{
  "contractName": "Marketplace",
  "abi": [
    {
      "inputs": [
        {
          "internalType": "uint256",
          "name": "_LISTING_FEE",
          "type": "uint256"
        }
      ],
      "stateMutability": "nonpayable",
      "type": "constructor"
    },
    {
      "anonymous": false,
      "inputs": [
        {
          "indexed": true,
          "internalType": "address",
          "name": "nftContract",
          "type": "address"
        },
        {
          "indexed": false,
          "internalType": "uint256",
          "name": "tokenId",
          "type": "uint256"
        },
        {
          "indexed": true,
          "internalType": "address",
          "name": "seller",
          "type": "address"
        },
        {
          "indexed": true,
          "internalType": "address",
          "name": "owner",
          "type": "address"
        },
        {
          "indexed": false,
          "internalType": "uint256",
          "name": "price",
          "type": "uint256"
        }
      ],
      "name": "NFTListed",
      "type": "event"
    },
    {
      "anonymous": false,
      "inputs": [
        {
          "indexed": true,
          "internalType": "address",
          "name": "nftContract",
          "type": "address"
        },
        {
          "indexed": false,
          "internalType": "uint256",
          "name": "tokenId",
          "type": "uint256"
        },
        {
          "indexed": true,
          "internalType": "address",
          "name": "seller",
          "type": "address"
        },
        {
          "indexed": true,
          "internalType": "address",
          "name": "owner",
          "type": "address"
        },
        {
          "indexed": false,
          "internalType": "uint256",
          "name": "price",
          "type": "uint256"
        }
      ],
      "name": "NFTSold",
      "type": "event"
    },
    {
      "inputs": [
        {
          "internalType": "address",
          "name": "_nftContract",
          "type": "address"
        },
        {
          "internalType": "uint256",
          "name": "_tokenId",
          "type": "uint256"
        },
        {
          "internalType": "uint256",
          "name": "_price",
          "type": "uint256"
        }
      ],
      "name": "listNft",
      "outputs": [],
      "stateMutability": "payable",
      "type": "function",
      "payable": true
    },
    {
      "inputs": [
        {
          "internalType": "address",
          "name": "_nftContract",
          "type": "address"
        },
        {
          "internalType": "uint256",
          "name": "_tokenId",
          "type": "uint256"
        }
      ],
      "name": "buyNft",
      "outputs": [],
      "stateMutability": "payable",
      "type": "function",
      "payable": true
    },
    {
      "inputs": [
        {
          "internalType": "address",
          "name": "_nftContract",
          "type": "address"
        },
        {
          "internalType": "uint256",
          "name": "_tokenId",
          "type": "uint256"
        },
        {
          "internalType": "uint256",
          "name": "_price",
          "type": "uint256"
        }
      ],
      "name": "resellNft",
      "outputs": [],
      "stateMutability": "payable",
      "type": "function",
      "payable": true
    },
    {
      "inputs": [],
      "name": "getListingFee",
      "outputs": [
        {
          "internalType": "uint256",
          "name": "",
          "type": "uint256"
        }
      ],
      "stateMutability": "view",
      "type": "function",
      "constant": true
    },
    {
      "inputs": [
        {
          "internalType": "uint256",
          "name": "NFT_tokenId",
          "type": "uint256"
        }
      ],
      "name": "get_NFT",
      "outputs": [
        {
          "components": [
            {
              "internalType": "address",
              "name": "nftContract",
              "type": "address"
            },
            {
              "internalType": "uint256",
              "name": "tokenId",
              "type": "uint256"
            },
            {
              "internalType": "address payable",
              "name": "seller",
              "type": "address"
            },
            {
              "internalType": "address payable",
              "name": "owner",
              "type": "address"
            },
            {
              "internalType": "uint256",
              "name": "price",
              "type": "uint256"
            },
            {
              "internalType": "bool",
              "name": "listed",
              "type": "bool"
            }
          ],
          "internalType": "struct Marketplace.NFT",
          "name": "",
          "type": "tuple"
        }
      ],
      "stateMutability": "view",
      "type": "function",
      "constant": true
    },
    {
      "inputs": [],
      "name": "get_nftsSold",
      "outputs": [
        {
          "internalType": "uint256",
          "name": "",
          "type": "uint256"
        }
      ],
      "stateMutability": "view",
      "type": "function",
      "constant": true
    },
    {
      "inputs": [],
      "name": "get_nftCount",
      "outputs": [
        {
          "internalType": "uint256",
          "name": "",
          "type": "uint256"
        }
      ],
      "stateMutability": "view",
      "type": "function",
      "constant": true
    },
    {
      "inputs": [],
      "name": "get_marketOwner",
      "outputs": [
        {
          "internalType": "address",
          "name": "",
          "type": "address"
        }
      ],
      "stateMutability": "view",
      "type": "function",
      "constant": true
    },
    {
      "inputs": [],
      "name": "getAllNFT",
      "outputs": [
        {
          "components": [
            {
              "internalType": "address",
              "name": "nftContract",
              "type": "address"
            },
            {
              "internalType": "uint256",
              "name": "tokenId",
              "type": "uint256"
            },
            {
              "internalType": "address payable",
              "name": "seller",
              "type": "address"
            },
            {
              "internalType": "address payable",
              "name": "owner",
              "type": "address"
            },
            {
              "internalType": "uint256",
              "name": "price",
              "type": "uint256"
            },
            {
              "internalType": "bool",
              "name": "listed",
              "type": "bool"
            }
          ],
          "internalType": "struct Marketplace.NFT[]",
          "name": "",
          "type": "tuple[]"
        }
      ],
      "stateMutability": "view",
      "type": "function",
      "constant": true
    },
    {
      "inputs": [],
      "name": "getListedNfts",
      "outputs": [
        {
          "components": [
            {
              "internalType": "address",
              "name": "nftContract",
              "type": "address"
            },
            {
              "internalType": "uint256",
              "name": "tokenId",
              "type": "uint256"
            },
            {
              "internalType": "address payable",
              "name": "seller",
              "type": "address"
            },
            {
              "internalType": "address payable",
              "name": "owner",
              "type": "address"
            },
            {
              "internalType": "uint256",
              "name": "price",
              "type": "uint256"
            },
            {
              "internalType": "bool",
              "name": "listed",
              "type": "bool"
            }
          ],
          "internalType": "struct Marketplace.NFT[]",
          "name": "",
          "type": "tuple[]"
        }
      ],
      "stateMutability": "view",
      "type": "function",
      "constant": true
    },
    {
      "inputs": [],
      "name": "getMyNfts",
      "outputs": [
        {
          "components": [
            {
              "internalType": "address",
              "name": "nftContract",
              "type": "address"
            },
            {
              "internalType": "uint256",
              "name": "tokenId",
              "type": "uint256"
            },
            {
              "internalType": "address payable",
              "name": "seller",
              "type": "address"
            },
            {
              "internalType": "address payable",
              "name": "owner",
              "type": "address"
            },
            {
              "internalType": "uint256",
              "name": "price",
              "type": "uint256"
            },
            {
              "internalType": "bool",
              "name": "listed",
              "type": "bool"
            }
          ],
          "internalType": "struct Marketplace.NFT[]",
          "name": "",
          "type": "tuple[]"
        }
      ],
      "stateMutability": "view",
      "type": "function",
      "constant": true
    },
    {
      "inputs": [],
      "name": "getMyListedNfts",
      "outputs": [
        {
          "components": [
            {
              "internalType": "address",
              "name": "nftContract",
              "type": "address"
            },
            {
              "internalType": "uint256",
              "name": "tokenId",
              "type": "uint256"
            },
            {
              "internalType": "address payable",
              "name": "seller",
              "type": "address"
            },
            {
              "internalType": "address payable",
              "name": "owner",
              "type": "address"
            },
            {
              "internalType": "uint256",
              "name": "price",
              "type": "uint256"
            },
            {
              "internalType": "bool",
              "name": "listed",
              "type": "bool"
            }
          ],
          "internalType": "struct Marketplace.NFT[]",
          "name": "",
          "type": "tuple[]"
        }
      ],
      "stateMutability": "view",
      "type": "function",
      "constant": true
    }
  ],
  "bytecode": "0x60c0604052600060015560006002553480156200001b57600080fd5b50604051620024ec380380620024ec8339818101604052810190620000419190620000cc565b60016000819055503373ffffffffffffffffffffffffffffffffffffffff1660a08173ffffffffffffffffffffffffffffffffffffffff1681525050806080818152505050620000fe565b600080fd5b6000819050919050565b620000a68162000091565b8114620000b257600080fd5b50565b600081519050620000c6816200009b565b92915050565b600060208284031215620000e557620000e46200008c565b5b6000620000f584828501620000b5565b91505092915050565b60805160a0516123ac62000140600039600081816105c50152610fdb015260008181610b7701528181611015015281816113ea01526114a001526123ac6000f3fe6080604052600436106100a75760003560e01c80634ddf4f8f116100645780634ddf4f8f146101b15780638d6cb3fb146101cd578063b8fe6abe146101f8578063c922b17c14610223578063ca8b6ce81461023f578063f3b1633d1461026a576100a7565b8063047b07bf146100ac5780631d384a45146100d75780631f4cc4db146101025780632efc67f11461012d57806334f5b6241461016a57806342bcff9614610186575b600080fd5b3480156100b857600080fd5b506100c1610295565b6040516100ce9190611bea565b60405180910390f35b3480156100e357600080fd5b506100ec6105c1565b6040516100f99190611c1b565b60405180910390f35b34801561010e57600080fd5b506101176105e9565b6040516101249190611bea565b60405180910390f35b34801561013957600080fd5b50610154600480360381019061014f9190611c67565b610987565b6040516101619190611d0f565b60405180910390f35b610184600480360381019061017f9190611d56565b610ae5565b005b34801561019257600080fd5b5061019b610dad565b6040516101a89190611db8565b60405180910390f35b6101cb60048036038101906101c69190611dd3565b610db7565b005b3480156101d957600080fd5b506101e261118c565b6040516101ef9190611bea565b60405180910390f35b34801561020457600080fd5b5061020d6113e6565b60405161021a9190611db8565b60405180910390f35b61023d60048036038101906102389190611d56565b61140e565b005b34801561024b57600080fd5b506102546117a3565b6040516102619190611db8565b60405180910390f35b34801561027657600080fd5b5061027f6117ad565b60405161028c9190611bea565b60405180910390f35b6060600060025490506000805b82811015610341573373ffffffffffffffffffffffffffffffffffffffff16600360006001846102d29190611e42565b815260200190815260200160002060030160009054906101000a900473ffffffffffffffffffffffffffffffffffffffff1673ffffffffffffffffffffffffffffffffffffffff160361032e57818061032a90611e98565b9250505b808061033990611e98565b9150506102a2565b5060008167ffffffffffffffff81111561035e5761035d611ee0565b5b60405190808252806020026020018201604052801561039757816020015b6103846119b0565b81526020019060019003908161037c5790505b5090506000805b848110156105b6573373ffffffffffffffffffffffffffffffffffffffff16600360006001846103ce9190611e42565b815260200190815260200160002060030160009054906101000a900473ffffffffffffffffffffffffffffffffffffffff1673ffffffffffffffffffffffffffffffffffffffff16036105a3576003600060018361042c9190611e42565b81526020019081526020016000206040518060c00160405290816000820160009054906101000a900473ffffffffffffffffffffffffffffffffffffffff1673ffffffffffffffffffffffffffffffffffffffff1673ffffffffffffffffffffffffffffffffffffffff168152602001600182015481526020016002820160009054906101000a900473ffffffffffffffffffffffffffffffffffffffff1673ffffffffffffffffffffffffffffffffffffffff1673ffffffffffffffffffffffffffffffffffffffff1681526020016003820160009054906101000a900473ffffffffffffffffffffffffffffffffffffffff1673ffffffffffffffffffffffffffffffffffffffff1673ffffffffffffffffffffffffffffffffffffffff168152602001600482015481526020016005820160009054906101000a900460ff16151515158152505083838151811061058957610588611f0f565b5b6020026020010181905250818061059f90611e98565b9250505b80806105ae90611e98565b91505061039e565b508194505050505090565b60007f0000000000000000000000000000000000000000000000000000000000000000905090565b6060600060025490506000805b828110156106ce573373ffffffffffffffffffffffffffffffffffffffff16600360006001846106269190611e42565b815260200190815260200160002060020160009054906101000a900473ffffffffffffffffffffffffffffffffffffffff1673ffffffffffffffffffffffffffffffffffffffff161480156106a75750600360006001836106879190611e42565b815260200190815260200160002060050160009054906101000a900460ff165b156106bb5781806106b790611e98565b9250505b80806106c690611e98565b9150506105f6565b5060008167ffffffffffffffff8111156106eb576106ea611ee0565b5b60405190808252806020026020018201604052801561072457816020015b6107116119b0565b8152602001906001900390816107095790505b5090506000805b8481101561097c573373ffffffffffffffffffffffffffffffffffffffff166003600060018461075b9190611e42565b815260200190815260200160002060020160009054906101000a900473ffffffffffffffffffffffffffffffffffffffff1673ffffffffffffffffffffffffffffffffffffffff161480156107dc5750600360006001836107bc9190611e42565b815260200190815260200160002060050160009054906101000a900460ff165b1561096957600360006001836107f29190611e42565b81526020019081526020016000206040518060c00160405290816000820160009054906101000a900473ffffffffffffffffffffffffffffffffffffffff1673ffffffffffffffffffffffffffffffffffffffff1673ffffffffffffffffffffffffffffffffffffffff168152602001600182015481526020016002820160009054906101000a900473ffffffffffffffffffffffffffffffffffffffff1673ffffffffffffffffffffffffffffffffffffffff1673ffffffffffffffffffffffffffffffffffffffff1681526020016003820160009054906101000a900473ffffffffffffffffffffffffffffffffffffffff1673ffffffffffffffffffffffffffffffffffffffff1673ffffffffffffffffffffffffffffffffffffffff168152602001600482015481526020016005820160009054906101000a900460ff16151515158152505083838151811061094f5761094e611f0f565b5b6020026020010181905250818061096590611e98565b9250505b808061097490611e98565b91505061072b565b508194505050505090565b61098f6119b0565b600360008381526020019081526020016000206040518060c00160405290816000820160009054906101000a900473ffffffffffffffffffffffffffffffffffffffff1673ffffffffffffffffffffffffffffffffffffffff1673ffffffffffffffffffffffffffffffffffffffff168152602001600182015481526020016002820160009054906101000a900473ffffffffffffffffffffffffffffffffffffffff1673ffffffffffffffffffffffffffffffffffffffff1673ffffffffffffffffffffffffffffffffffffffff1681526020016003820160009054906101000a900473ffffffffffffffffffffffffffffffffffffffff1673ffffffffffffffffffffffffffffffffffffffff1673ffffffffffffffffffffffffffffffffffffffff168152602001600482015481526020016005820160009054906101000a900460ff1615151515815250509050919050565b600260005403610b2a576040517f08c379a0000000000000000000000000000000000000000000000000000000008152600401610b2190611f9b565b60405180910390fd5b600260008190555060008111610b75576040517f08c379a0000000000000000000000000000000000000000000000000000000008152600401610b6c90612007565b60405180910390fd5b7f00000000000000000000000000000000000000000000000000000000000000003414610bd7576040517f08c379a0000000000000000000000000000000000000000000000000000000008152600401610bce90612073565b60405180910390fd5b8273ffffffffffffffffffffffffffffffffffffffff166323b872dd3330856040518463ffffffff1660e01b8152600401610c1493929190612093565b600060405180830381600087803b158015610c2e57600080fd5b505af1158015610c42573d6000803e3d6000fd5b505050506000600360008481526020019081526020016000209050338160020160006101000a81548173ffffffffffffffffffffffffffffffffffffffff021916908373ffffffffffffffffffffffffffffffffffffffff160217905550308160030160006101000a81548173ffffffffffffffffffffffffffffffffffffffff021916908373ffffffffffffffffffffffffffffffffffffffff16021790555060018160050160006101000a81548160ff02191690831515021790555081816004018190555060016000815480929190610d1c906120ca565b91905055503073ffffffffffffffffffffffffffffffffffffffff163373ffffffffffffffffffffffffffffffffffffffff168573ffffffffffffffffffffffffffffffffffffffff167fa0c6c0d02d86fdacecbaa5fdf5894bab204e31a778250474108540733a9b8d198686604051610d979291906120f3565b60405180910390a4506001600081905550505050565b6000600154905090565b600260005403610dfc576040517f08c379a0000000000000000000000000000000000000000000000000000000008152600401610df390611f9b565b60405180910390fd5b6002600081905550600060036000838152602001908152602001600020905060008211610e5e576040517f08c379a0000000000000000000000000000000000000000000000000000000008152600401610e5590612168565b60405180910390fd5b8060050160009054906101000a900460ff16610eaf576040517f08c379a0000000000000000000000000000000000000000000000000000000008152600401610ea6906121fa565b60405180910390fd5b8060040154341015610ef6576040517f08c379a0000000000000000000000000000000000000000000000000000000008152600401610eed9061228c565b60405180910390fd5b60003390508160020160009054906101000a900473ffffffffffffffffffffffffffffffffffffffff1673ffffffffffffffffffffffffffffffffffffffff166108fc349081150290604051600060405180830381858888f19350505050158015610f65573d6000803e3d6000fd5b508373ffffffffffffffffffffffffffffffffffffffff166323b872dd308385600101546040518463ffffffff1660e01b8152600401610fa79392919061230b565b600060405180830381600087803b158015610fc157600080fd5b505af1158015610fd5573d6000803e3d6000fd5b505050507f000000000000000000000000000000000000000000000000000000000000000073ffffffffffffffffffffffffffffffffffffffff166108fc7f00000000000000000000000000000000000000000000000000000000000000009081150290604051600060405180830381858888f1935050505015801561105f573d6000803e3d6000fd5b50808260030160006101000a81548173ffffffffffffffffffffffffffffffffffffffff021916908373ffffffffffffffffffffffffffffffffffffffff16021790555060008260050160006101000a81548160ff021916908315150217905550600160008154809291906110d390611e98565b91905055508073ffffffffffffffffffffffffffffffffffffffff168260020160009054906101000a900473ffffffffffffffffffffffffffffffffffffffff1673ffffffffffffffffffffffffffffffffffffffff168573ffffffffffffffffffffffffffffffffffffffff167f16f1dbd97e6bf646d429ed186cce832f1f7fd9907814293b83181e9970ab7bd28560010154346040516111769291906120f3565b60405180910390a4505060016000819055505050565b6060600060025490506000600154826111a59190612342565b905060008167ffffffffffffffff8111156111c3576111c2611ee0565b5b6040519080825280602002602001820160405280156111fc57816020015b6111e96119b0565b8152602001906001900390816111e15790505b5090506000805b848110156113db576003600060018361121c9190611e42565b815260200190815260200160002060050160009054906101000a900460ff16156113c857600360006001836112519190611e42565b81526020019081526020016000206040518060c00160405290816000820160009054906101000a900473ffffffffffffffffffffffffffffffffffffffff1673ffffffffffffffffffffffffffffffffffffffff1673ffffffffffffffffffffffffffffffffffffffff168152602001600182015481526020016002820160009054906101000a900473ffffffffffffffffffffffffffffffffffffffff1673ffffffffffffffffffffffffffffffffffffffff1673ffffffffffffffffffffffffffffffffffffffff1681526020016003820160009054906101000a900473ffffffffffffffffffffffffffffffffffffffff1673ffffffffffffffffffffffffffffffffffffffff1673ffffffffffffffffffffffffffffffffffffffff168152602001600482015481526020016005820160009054906101000a900460ff1615151515815250508383815181106113ae576113ad611f0f565b5b602002602001018190525081806113c490611e98565b9250505b80806113d390611e98565b915050611203565b508194505050505090565b60007f0000000000000000000000000000000000000000000000000000000000000000905090565b600260005403611453576040517f08c379a000000000000000000000000000000000000000000000000000000000815260040161144a90611f9b565b60405180910390fd5b60026000819055506000811161149e576040517f08c379a000000000000000000000000000000000000000000000000000000000815260040161149590612007565b60405180910390fd5b7f00000000000000000000000000000000000000000000000000000000000000003414611500576040517f08c379a00000000000000000000000000000000000000000000000000000000081526004016114f790612073565b60405180910390fd5b8273ffffffffffffffffffffffffffffffffffffffff166323b872dd3330856040518463ffffffff1660e01b815260040161153d93929190612093565b600060405180830381600087803b15801561155757600080fd5b505af115801561156b573d6000803e3d6000fd5b505050506002600081548092919061158290611e98565b91905055506040518060c001604052808473ffffffffffffffffffffffffffffffffffffffff1681526020018381526020013373ffffffffffffffffffffffffffffffffffffffff1681526020013073ffffffffffffffffffffffffffffffffffffffff168152602001828152602001600115158152506003600084815260200190815260200160002060008201518160000160006101000a81548173ffffffffffffffffffffffffffffffffffffffff021916908373ffffffffffffffffffffffffffffffffffffffff1602179055506020820151816001015560408201518160020160006101000a81548173ffffffffffffffffffffffffffffffffffffffff021916908373ffffffffffffffffffffffffffffffffffffffff16021790555060608201518160030160006101000a81548173ffffffffffffffffffffffffffffffffffffffff021916908373ffffffffffffffffffffffffffffffffffffffff1602179055506080820151816004015560a08201518160050160006101000a81548160ff0219169083151502179055509050503073ffffffffffffffffffffffffffffffffffffffff163373ffffffffffffffffffffffffffffffffffffffff168473ffffffffffffffffffffffffffffffffffffffff167fa0c6c0d02d86fdacecbaa5fdf5894bab204e31a778250474108540733a9b8d19858560405161178e9291906120f3565b60405180910390a46001600081905550505050565b6000600254905090565b6060600060025490506000808267ffffffffffffffff8111156117d3576117d2611ee0565b5b60405190808252806020026020018201604052801561180c57816020015b6117f96119b0565b8152602001906001900390816117f15790505b50905060005b838110156119a6576003600060018361182b9190611e42565b81526020019081526020016000206040518060c00160405290816000820160009054906101000a900473ffffffffffffffffffffffffffffffffffffffff1673ffffffffffffffffffffffffffffffffffffffff1673ffffffffffffffffffffffffffffffffffffffff168152602001600182015481526020016002820160009054906101000a900473ffffffffffffffffffffffffffffffffffffffff1673ffffffffffffffffffffffffffffffffffffffff1673ffffffffffffffffffffffffffffffffffffffff1681526020016003820160009054906101000a900473ffffffffffffffffffffffffffffffffffffffff1673ffffffffffffffffffffffffffffffffffffffff1673ffffffffffffffffffffffffffffffffffffffff168152602001600482015481526020016005820160009054906101000a900460ff16151515158152505082848151811061198857611987611f0f565b5b6020026020010181905250808061199e90611e98565b915050611812565b5080935050505090565b6040518060c00160405280600073ffffffffffffffffffffffffffffffffffffffff16815260200160008152602001600073ffffffffffffffffffffffffffffffffffffffff168152602001600073ffffffffffffffffffffffffffffffffffffffff168152602001600081526020016000151581525090565b600081519050919050565b600082825260208201905092915050565b6000819050602082019050919050565b600073ffffffffffffffffffffffffffffffffffffffff82169050919050565b6000611a8182611a56565b9050919050565b611a9181611a76565b82525050565b6000819050919050565b611aaa81611a97565b82525050565b6000611abb82611a56565b9050919050565b611acb81611ab0565b82525050565b60008115159050919050565b611ae681611ad1565b82525050565b60c082016000820151611b026000850182611a88565b506020820151611b156020850182611aa1565b506040820151611b286040850182611ac2565b506060820151611b3b6060850182611ac2565b506080820151611b4e6080850182611aa1565b5060a0820151611b6160a0850182611add565b50505050565b6000611b738383611aec565b60c08301905092915050565b6000602082019050919050565b6000611b9782611a2a565b611ba18185611a35565b9350611bac83611a46565b8060005b83811015611bdd578151611bc48882611b67565b9750611bcf83611b7f565b925050600181019050611bb0565b5085935050505092915050565b60006020820190508181036000830152611c048184611b8c565b905092915050565b611c1581611a76565b82525050565b6000602082019050611c306000830184611c0c565b92915050565b600080fd5b611c4481611a97565b8114611c4f57600080fd5b50565b600081359050611c6181611c3b565b92915050565b600060208284031215611c7d57611c7c611c36565b5b6000611c8b84828501611c52565b91505092915050565b60c082016000820151611caa6000850182611a88565b506020820151611cbd6020850182611aa1565b506040820151611cd06040850182611ac2565b506060820151611ce36060850182611ac2565b506080820151611cf66080850182611aa1565b5060a0820151611d0960a0850182611add565b50505050565b600060c082019050611d246000830184611c94565b92915050565b611d3381611a76565b8114611d3e57600080fd5b50565b600081359050611d5081611d2a565b92915050565b600080600060608486031215611d6f57611d6e611c36565b5b6000611d7d86828701611d41565b9350506020611d8e86828701611c52565b9250506040611d9f86828701611c52565b9150509250925092565b611db281611a97565b82525050565b6000602082019050611dcd6000830184611da9565b92915050565b60008060408385031215611dea57611de9611c36565b5b6000611df885828601611d41565b9250506020611e0985828601611c52565b9150509250929050565b7f4e487b7100000000000000000000000000000000000000000000000000000000600052601160045260246000fd5b6000611e4d82611a97565b9150611e5883611a97565b9250827fffffffffffffffffffffffffffffffffffffffffffffffffffffffffffffffff03821115611e8d57611e8c611e13565b5b828201905092915050565b6000611ea382611a97565b91507fffffffffffffffffffffffffffffffffffffffffffffffffffffffffffffffff8203611ed557611ed4611e13565b5b600182019050919050565b7f4e487b7100000000000000000000000000000000000000000000000000000000600052604160045260246000fd5b7f4e487b7100000000000000000000000000000000000000000000000000000000600052603260045260246000fd5b600082825260208201905092915050565b7f5265656e7472616e637947756172643a207265656e7472616e742063616c6c00600082015250565b6000611f85601f83611f3e565b9150611f9082611f4f565b602082019050919050565b60006020820190508181036000830152611fb481611f78565b9050919050565b7f5072696365206d757374206265206174206c6561737420312077656900000000600082015250565b6000611ff1601c83611f3e565b9150611ffc82611fbb565b602082019050919050565b6000602082019050818103600083015261202081611fe4565b9050919050565b7f4e6f7420656e6f75676820657468657220666f72206c697374696e6720666565600082015250565b600061205d602083611f3e565b915061206882612027565b602082019050919050565b6000602082019050818103600083015261208c81612050565b9050919050565b60006060820190506120a86000830186611c0c565b6120b56020830185611c0c565b6120c26040830184611da9565b949350505050565b60006120d582611a97565b9150600082036120e8576120e7611e13565b5b600182039050919050565b60006040820190506121086000830185611da9565b6121156020830184611da9565b9392505050565b7f4e4654206974656d20646f65736e277420657869737400000000000000000000600082015250565b6000612152601683611f3e565b915061215d8261211c565b602082019050919050565b6000602082019050818103600083015261218181612145565b9050919050565b7f4e4654206974656d206973206e6f74206c6973746564206f6e20746865206d6160008201527f726b6574706c6163650000000000000000000000000000000000000000000000602082015250565b60006121e4602983611f3e565b91506121ef82612188565b604082019050919050565b60006020820190508181036000830152612213816121d7565b9050919050565b7f4e6f7420656e6f75676820657468657220746f20636f7665722061736b696e6760008201527f2070726963650000000000000000000000000000000000000000000000000000602082015250565b6000612276602683611f3e565b91506122818261221a565b604082019050919050565b600060208201905081810360008301526122a581612269565b9050919050565b6000819050919050565b60006122d16122cc6122c784611a56565b6122ac565b611a56565b9050919050565b60006122e3826122b6565b9050919050565b60006122f5826122d8565b9050919050565b612305816122ea565b82525050565b60006060820190506123206000830186611c0c565b61232d60208301856122fc565b61233a6040830184611da9565b949350505050565b600061234d82611a97565b915061235883611a97565b92508282101561236b5761236a611e13565b5b82820390509291505056fea2646970667358221220be46e9d20687f9d439d7eed0abca4f45f319335ee16c7dd7960fd90f706dda0564736f6c634300080f0033",
  "immutableReferences": {
    "1838": [
      {
        "length": 32,
        "start": 2935
      },
      {
        "length": 32,
        "start": 4117
      },
      {
        "length": 32,
        "start": 5098
      },
      {
        "length": 32,
        "start": 5280
      }
    ],
    "1840": [
      {
        "length": 32,
        "start": 1477
      },
      {
        "length": 32,
        "start": 4059
      }
    ]
  },
  "source": "// SPDX-License-Identifier: MIT\r\npragma solidity ^0.8.4;\r\n\r\n//import \"@openzeppelin/contracts/utils/Counters.sol\";\r\nimport \"@openzeppelin/contracts/token/ERC721/ERC721.sol\";\r\nimport \"@openzeppelin/contracts/security/ReentrancyGuard.sol\";\r\n\r\ncontract Marketplace is ReentrancyGuard{\r\n    \r\n    //using Counters for Counters.Counter;\r\n    //Counters.Counter private _nftsSold;\r\n    //Counters.Counter private _nftCount;\r\n    uint256 private _nftsSold = 0;\r\n    uint256 private _nftCount = 0;\r\n    uint256 private immutable LISTING_FEE;// = 100000000000000 wei; // 0.0001 ethers\r\n    address payable private immutable _marketOwner;\r\n    //address public marketContract = address(this);\r\n    \r\n    mapping(uint256 => NFT) private _idToNFT;\r\n\r\n    struct NFT{\r\n        address nftContract;\r\n        uint256 tokenId;\r\n        address payable seller;\r\n        address payable owner;\r\n        uint256 price;\r\n        bool listed;\r\n    }\r\n\r\n    event NFTListed(address indexed nftContract, uint256 tokenId, address indexed seller, address indexed owner, uint256 price);\r\n    event NFTSold(address indexed nftContract, uint256 tokenId, address indexed seller, address indexed owner, uint256 price);\r\n\r\n    constructor(uint _LISTING_FEE){\r\n        _marketOwner = payable(msg.sender);\r\n        LISTING_FEE = _LISTING_FEE;\r\n    }\r\n\r\n    //list the NFT on the marketplace\r\n    function listNft(address _nftContract, uint256 _tokenId, uint256 _price) public payable nonReentrant{\r\n        require(_price > 0, \"Price must be at least 1 wei\");\r\n        require(msg.value == LISTING_FEE, \"Not enough ether for listing fee\");\r\n\r\n        (IERC721(_nftContract)).transferFrom(msg.sender, address(this), _tokenId);\r\n\r\n        //_nftCount.increment();\r\n        _nftCount++;\r\n\r\n        _idToNFT[_tokenId] = NFT(\r\n            _nftContract,\r\n            _tokenId,\r\n            payable(msg.sender),\r\n            payable(address(this)),\r\n            _price,\r\n            true\r\n        );\r\n\r\n        emit NFTListed(_nftContract, _tokenId, msg.sender, address(this), _price);\r\n    }\r\n\r\n\r\n    //Buy an NFT\r\n    function buyNft(address _nftContract, uint256 _tokenId) public payable nonReentrant{\r\n        NFT storage nft = _idToNFT[_tokenId];\r\n        //uint256 nftCount = _nftCount.current();\r\n        require(_tokenId > 0/* && _tokenId <= nftCount*/, \"NFT item doesn't exist\");\r\n        require(nft.listed, \"NFT item is not listed on the marketplace\");\r\n        require(msg.value >= nft.price, \"Not enough ether to cover asking price\");\r\n\r\n        address payable buyer = payable(msg.sender);\r\n        (payable(nft.seller)).transfer(msg.value);\r\n        (IERC721(_nftContract)).transferFrom(address(this), buyer, nft.tokenId);\r\n        payable(_marketOwner).transfer(LISTING_FEE);\r\n        nft.owner = buyer;\r\n        nft.listed = false;\r\n\r\n        //_nftsSold.increment();\r\n        _nftsSold++;\r\n\r\n        emit NFTSold(_nftContract, nft.tokenId, nft.seller, buyer, msg.value);\r\n    }\r\n\r\n    //Resell an NFT purchased from the marketplace\r\n    function resellNft(address _nftContract, uint256 _tokenId, uint256 _price) public payable nonReentrant{\r\n        require(_price > 0, \"Price must be at least 1 wei\");\r\n        require(msg.value == LISTING_FEE, \"Not enough ether for listing fee\");\r\n\r\n        (IERC721(_nftContract)).transferFrom(msg.sender, address(this), _tokenId);\r\n\r\n        NFT storage nft = _idToNFT[_tokenId];\r\n        nft.seller = payable(msg.sender);\r\n        nft.owner = payable(address(this));\r\n        nft.listed = true;\r\n        nft.price = _price;\r\n\r\n        //_nftsSold.decrement();\r\n        _nftsSold--;\r\n\r\n        emit NFTListed(_nftContract, _tokenId, msg.sender, payable(address(this)), _price);\r\n    }\r\n\r\n    \r\n    \r\n    //---------------------------------\r\n\r\n    \r\n    function getListingFee() public view returns (uint256){\r\n        return LISTING_FEE;\r\n    }\r\n\r\n    function get_NFT(uint256 NFT_tokenId) public view returns (NFT memory){\r\n        return _idToNFT[NFT_tokenId];\r\n    }\r\n\r\n    function get_nftsSold() public view returns (uint256){\r\n        return _nftsSold;\r\n    }\r\n\r\n    function get_nftCount() public view returns (uint256){\r\n        return _nftCount;\r\n    }\r\n\r\n    function get_marketOwner() public view returns (address){\r\n        return _marketOwner;\r\n    }\r\n\r\n\r\n    function getAllNFT() public view returns (NFT[] memory){\r\n        uint nftCount = _nftCount;\r\n        uint nftsIndex = 0;\r\n        NFT[] memory nfts = new NFT[](nftCount);\r\n        for(uint i=0; i<nftCount; i++){\r\n            nfts[nftsIndex] = _idToNFT[i+1];\r\n        }\r\n        return nfts;\r\n    }\r\n\r\n    function getListedNfts() public view returns (NFT[] memory){\r\n        uint256 nftCount = _nftCount;\r\n        uint256 unsoldNftsCount = nftCount - _nftsSold;\r\n\r\n        NFT[] memory nfts = new NFT[](unsoldNftsCount);\r\n        uint nftsIndex = 0;\r\n        for(uint i=0; i<nftCount; i++){\r\n            if(_idToNFT[i+1].listed){\r\n                nfts[nftsIndex] = _idToNFT[i+1];\r\n                nftsIndex++;\r\n            }\r\n        }\r\n        return nfts;\r\n    }\r\n\r\n    function getMyNfts() public view returns (NFT[] memory){\r\n        uint nftCount = _nftCount;\r\n        uint myNftCount = 0;\r\n        for(uint i=0; i<nftCount; i++){\r\n            if(_idToNFT[i+1].owner == msg.sender){\r\n                myNftCount++;\r\n            }\r\n        }\r\n\r\n        NFT[] memory nfts = new NFT[](myNftCount);\r\n        uint nftsIndex = 0;\r\n        for(uint i=0; i<nftCount; i++){\r\n            if(_idToNFT[i+1].owner == msg.sender){\r\n                nfts[nftsIndex] = _idToNFT[i+1];\r\n                nftsIndex++;\r\n            }\r\n        }\r\n        return nfts;\r\n    }\r\n\r\n    function getMyListedNfts() public view returns (NFT[] memory){\r\n        uint nftCount = _nftCount;\r\n        uint myListedNftCount = 0;\r\n        for (uint i = 0; i < nftCount; i++) {\r\n            if (_idToNFT[i + 1].seller == msg.sender && _idToNFT[i + 1].listed) {\r\n                myListedNftCount++;\r\n            }\r\n        }\r\n\r\n        NFT[] memory nfts = new NFT[](myListedNftCount);\r\n        uint nftsIndex = 0;\r\n        for (uint i = 0; i < nftCount; i++) {\r\n            if (_idToNFT[i + 1].seller == msg.sender && _idToNFT[i + 1].listed) {\r\n                nfts[nftsIndex] = _idToNFT[i + 1];\r\n                nftsIndex++;\r\n            }\r\n        }\r\n        return nfts;\r\n    }\r\n}",
  "sourcePath": "C:\\Users\\Federico Mioli\\Desktop\\Personale\\git projects\\NFT_Marketplace\\contracts\\Marketplace.sol",
  "compiler": {
    "name": "solc",
    "version": "0.8.15+commit.e14f2714.Emscripten.clang"
  },
  "schemaVersion": "3.4.8",
  "updatedAt": "2022-11-02T14:09:42.807Z",
  "networkType": "ethereum",
  "devdoc": {
    "kind": "dev",
    "methods": {},
    "version": 1
  },
  "userdoc": {
    "kind": "user",
    "methods": {},
    "version": 1
  }
}