{
  "contractName": "Marketplace",
  "abi": [
    {
      "inputs": [
        {
          "internalType": "uint256",
          "name": "_LISTING_FEE",
          "type": "uint256"
        }
      ],
      "stateMutability": "nonpayable",
      "type": "constructor"
    },
    {
      "anonymous": false,
      "inputs": [
        {
          "indexed": false,
          "internalType": "address",
          "name": "nftContract",
          "type": "address"
        },
        {
          "indexed": false,
          "internalType": "uint256",
          "name": "tokenId",
          "type": "uint256"
        },
        {
          "indexed": false,
          "internalType": "address",
          "name": "seller",
          "type": "address"
        },
        {
          "indexed": false,
          "internalType": "address",
          "name": "owner",
          "type": "address"
        },
        {
          "indexed": false,
          "internalType": "uint256",
          "name": "price",
          "type": "uint256"
        }
      ],
      "name": "NFTListed",
      "type": "event"
    },
    {
      "anonymous": false,
      "inputs": [
        {
          "indexed": false,
          "internalType": "address",
          "name": "nftContract",
          "type": "address"
        },
        {
          "indexed": false,
          "internalType": "uint256",
          "name": "tokenId",
          "type": "uint256"
        },
        {
          "indexed": false,
          "internalType": "address",
          "name": "seller",
          "type": "address"
        },
        {
          "indexed": false,
          "internalType": "address",
          "name": "owner",
          "type": "address"
        },
        {
          "indexed": false,
          "internalType": "uint256",
          "name": "price",
          "type": "uint256"
        }
      ],
      "name": "NFTSold",
      "type": "event"
    },
    {
      "inputs": [
        {
          "internalType": "address",
          "name": "_nftContract",
          "type": "address"
        },
        {
          "internalType": "uint256",
          "name": "_tokenId",
          "type": "uint256"
        },
        {
          "internalType": "uint256",
          "name": "_price",
          "type": "uint256"
        }
      ],
      "name": "listNft",
      "outputs": [],
      "stateMutability": "payable",
      "type": "function",
      "payable": true
    },
    {
      "inputs": [
        {
          "internalType": "address",
          "name": "_nftContract",
          "type": "address"
        },
        {
          "internalType": "uint256",
          "name": "_tokenId",
          "type": "uint256"
        }
      ],
      "name": "buyNft",
      "outputs": [],
      "stateMutability": "payable",
      "type": "function",
      "payable": true
    },
    {
      "inputs": [
        {
          "internalType": "address",
          "name": "_nftContract",
          "type": "address"
        },
        {
          "internalType": "uint256",
          "name": "_tokenId",
          "type": "uint256"
        },
        {
          "internalType": "uint256",
          "name": "_price",
          "type": "uint256"
        }
      ],
      "name": "resellNft",
      "outputs": [],
      "stateMutability": "payable",
      "type": "function",
      "payable": true
    },
    {
      "inputs": [],
      "name": "getListingFee",
      "outputs": [
        {
          "internalType": "uint256",
          "name": "",
          "type": "uint256"
        }
      ],
      "stateMutability": "view",
      "type": "function",
      "constant": true
    },
    {
      "inputs": [
        {
          "internalType": "uint256",
          "name": "NFT_tokenId",
          "type": "uint256"
        }
      ],
      "name": "get_NFT",
      "outputs": [
        {
          "components": [
            {
              "internalType": "address",
              "name": "nftContract",
              "type": "address"
            },
            {
              "internalType": "uint256",
              "name": "tokenId",
              "type": "uint256"
            },
            {
              "internalType": "address payable",
              "name": "seller",
              "type": "address"
            },
            {
              "internalType": "address payable",
              "name": "owner",
              "type": "address"
            },
            {
              "internalType": "uint256",
              "name": "price",
              "type": "uint256"
            },
            {
              "internalType": "bool",
              "name": "listed",
              "type": "bool"
            }
          ],
          "internalType": "struct Marketplace.NFT",
          "name": "",
          "type": "tuple"
        }
      ],
      "stateMutability": "view",
      "type": "function",
      "constant": true
    },
    {
      "inputs": [],
      "name": "get_nftsSold",
      "outputs": [
        {
          "internalType": "uint256",
          "name": "",
          "type": "uint256"
        }
      ],
      "stateMutability": "view",
      "type": "function",
      "constant": true
    },
    {
      "inputs": [],
      "name": "get_nftCount",
      "outputs": [
        {
          "internalType": "uint256",
          "name": "",
          "type": "uint256"
        }
      ],
      "stateMutability": "view",
      "type": "function",
      "constant": true
    },
    {
      "inputs": [],
      "name": "get_marketOwner",
      "outputs": [
        {
          "internalType": "address",
          "name": "",
          "type": "address"
        }
      ],
      "stateMutability": "view",
      "type": "function",
      "constant": true
    },
    {
      "inputs": [],
      "name": "getAllNFT",
      "outputs": [
        {
          "components": [
            {
              "internalType": "address",
              "name": "nftContract",
              "type": "address"
            },
            {
              "internalType": "uint256",
              "name": "tokenId",
              "type": "uint256"
            },
            {
              "internalType": "address payable",
              "name": "seller",
              "type": "address"
            },
            {
              "internalType": "address payable",
              "name": "owner",
              "type": "address"
            },
            {
              "internalType": "uint256",
              "name": "price",
              "type": "uint256"
            },
            {
              "internalType": "bool",
              "name": "listed",
              "type": "bool"
            }
          ],
          "internalType": "struct Marketplace.NFT[]",
          "name": "",
          "type": "tuple[]"
        }
      ],
      "stateMutability": "view",
      "type": "function",
      "constant": true
    },
    {
      "inputs": [],
      "name": "getListedNfts",
      "outputs": [
        {
          "components": [
            {
              "internalType": "address",
              "name": "nftContract",
              "type": "address"
            },
            {
              "internalType": "uint256",
              "name": "tokenId",
              "type": "uint256"
            },
            {
              "internalType": "address payable",
              "name": "seller",
              "type": "address"
            },
            {
              "internalType": "address payable",
              "name": "owner",
              "type": "address"
            },
            {
              "internalType": "uint256",
              "name": "price",
              "type": "uint256"
            },
            {
              "internalType": "bool",
              "name": "listed",
              "type": "bool"
            }
          ],
          "internalType": "struct Marketplace.NFT[]",
          "name": "",
          "type": "tuple[]"
        }
      ],
      "stateMutability": "view",
      "type": "function",
      "constant": true
    },
    {
      "inputs": [],
      "name": "getMyNfts",
      "outputs": [
        {
          "components": [
            {
              "internalType": "address",
              "name": "nftContract",
              "type": "address"
            },
            {
              "internalType": "uint256",
              "name": "tokenId",
              "type": "uint256"
            },
            {
              "internalType": "address payable",
              "name": "seller",
              "type": "address"
            },
            {
              "internalType": "address payable",
              "name": "owner",
              "type": "address"
            },
            {
              "internalType": "uint256",
              "name": "price",
              "type": "uint256"
            },
            {
              "internalType": "bool",
              "name": "listed",
              "type": "bool"
            }
          ],
          "internalType": "struct Marketplace.NFT[]",
          "name": "",
          "type": "tuple[]"
        }
      ],
      "stateMutability": "view",
      "type": "function",
      "constant": true
    },
    {
      "inputs": [],
      "name": "getMyListedNfts",
      "outputs": [
        {
          "components": [
            {
              "internalType": "address",
              "name": "nftContract",
              "type": "address"
            },
            {
              "internalType": "uint256",
              "name": "tokenId",
              "type": "uint256"
            },
            {
              "internalType": "address payable",
              "name": "seller",
              "type": "address"
            },
            {
              "internalType": "address payable",
              "name": "owner",
              "type": "address"
            },
            {
              "internalType": "uint256",
              "name": "price",
              "type": "uint256"
            },
            {
              "internalType": "bool",
              "name": "listed",
              "type": "bool"
            }
          ],
          "internalType": "struct Marketplace.NFT[]",
          "name": "",
          "type": "tuple[]"
        }
      ],
      "stateMutability": "view",
      "type": "function",
      "constant": true
    }
  ],
  "bytecode": "0x60c0604052600060015560006002553480156200001b57600080fd5b50604051620024ff380380620024ff8339818101604052810190620000419190620000cc565b60016000819055503373ffffffffffffffffffffffffffffffffffffffff1660a08173ffffffffffffffffffffffffffffffffffffffff1681525050806080818152505050620000fe565b600080fd5b6000819050919050565b620000a68162000091565b8114620000b257600080fd5b50565b600081519050620000c6816200009b565b92915050565b600060208284031215620000e557620000e46200008c565b5b6000620000f584828501620000b5565b91505092915050565b60805160a0516123bf62000140600039600081816105c50152610f9c015260008181610b7701528181610fd60152818161136c015261142201526123bf6000f3fe6080604052600436106100a75760003560e01c80634ddf4f8f116100645780634ddf4f8f146101b15780638d6cb3fb146101cd578063b8fe6abe146101f8578063c922b17c14610223578063ca8b6ce81461023f578063f3b1633d1461026a576100a7565b8063047b07bf146100ac5780631d384a45146100d75780631f4cc4db146101025780632efc67f11461012d57806334f5b6241461016a57806342bcff9614610186575b600080fd5b3480156100b857600080fd5b506100c1610295565b6040516100ce9190611b2d565b60405180910390f35b3480156100e357600080fd5b506100ec6105c1565b6040516100f99190611b5e565b60405180910390f35b34801561010e57600080fd5b506101176105e9565b6040516101249190611b2d565b60405180910390f35b34801561013957600080fd5b50610154600480360381019061014f9190611baa565b610987565b6040516101619190611c52565b60405180910390f35b610184600480360381019061017f9190611c99565b610ae5565b005b34801561019257600080fd5b5061019b610d6e565b6040516101a89190611cfb565b60405180910390f35b6101cb60048036038101906101c69190611d16565b610d78565b005b3480156101d957600080fd5b506101e261110e565b6040516101ef9190611b2d565b60405180910390f35b34801561020457600080fd5b5061020d611368565b60405161021a9190611cfb565b60405180910390f35b61023d60048036038101906102389190611c99565b611390565b005b34801561024b57600080fd5b506102546116e6565b6040516102619190611cfb565b60405180910390f35b34801561027657600080fd5b5061027f6116f0565b60405161028c9190611b2d565b60405180910390f35b6060600060025490506000805b82811015610341573373ffffffffffffffffffffffffffffffffffffffff16600360006001846102d29190611d85565b815260200190815260200160002060030160009054906101000a900473ffffffffffffffffffffffffffffffffffffffff1673ffffffffffffffffffffffffffffffffffffffff160361032e57818061032a90611ddb565b9250505b808061033990611ddb565b9150506102a2565b5060008167ffffffffffffffff81111561035e5761035d611e23565b5b60405190808252806020026020018201604052801561039757816020015b6103846118f3565b81526020019060019003908161037c5790505b5090506000805b848110156105b6573373ffffffffffffffffffffffffffffffffffffffff16600360006001846103ce9190611d85565b815260200190815260200160002060030160009054906101000a900473ffffffffffffffffffffffffffffffffffffffff1673ffffffffffffffffffffffffffffffffffffffff16036105a3576003600060018361042c9190611d85565b81526020019081526020016000206040518060c00160405290816000820160009054906101000a900473ffffffffffffffffffffffffffffffffffffffff1673ffffffffffffffffffffffffffffffffffffffff1673ffffffffffffffffffffffffffffffffffffffff168152602001600182015481526020016002820160009054906101000a900473ffffffffffffffffffffffffffffffffffffffff1673ffffffffffffffffffffffffffffffffffffffff1673ffffffffffffffffffffffffffffffffffffffff1681526020016003820160009054906101000a900473ffffffffffffffffffffffffffffffffffffffff1673ffffffffffffffffffffffffffffffffffffffff1673ffffffffffffffffffffffffffffffffffffffff168152602001600482015481526020016005820160009054906101000a900460ff16151515158152505083838151811061058957610588611e52565b5b6020026020010181905250818061059f90611ddb565b9250505b80806105ae90611ddb565b91505061039e565b508194505050505090565b60007f0000000000000000000000000000000000000000000000000000000000000000905090565b6060600060025490506000805b828110156106ce573373ffffffffffffffffffffffffffffffffffffffff16600360006001846106269190611d85565b815260200190815260200160002060020160009054906101000a900473ffffffffffffffffffffffffffffffffffffffff1673ffffffffffffffffffffffffffffffffffffffff161480156106a75750600360006001836106879190611d85565b815260200190815260200160002060050160009054906101000a900460ff165b156106bb5781806106b790611ddb565b9250505b80806106c690611ddb565b9150506105f6565b5060008167ffffffffffffffff8111156106eb576106ea611e23565b5b60405190808252806020026020018201604052801561072457816020015b6107116118f3565b8152602001906001900390816107095790505b5090506000805b8481101561097c573373ffffffffffffffffffffffffffffffffffffffff166003600060018461075b9190611d85565b815260200190815260200160002060020160009054906101000a900473ffffffffffffffffffffffffffffffffffffffff1673ffffffffffffffffffffffffffffffffffffffff161480156107dc5750600360006001836107bc9190611d85565b815260200190815260200160002060050160009054906101000a900460ff165b1561096957600360006001836107f29190611d85565b81526020019081526020016000206040518060c00160405290816000820160009054906101000a900473ffffffffffffffffffffffffffffffffffffffff1673ffffffffffffffffffffffffffffffffffffffff1673ffffffffffffffffffffffffffffffffffffffff168152602001600182015481526020016002820160009054906101000a900473ffffffffffffffffffffffffffffffffffffffff1673ffffffffffffffffffffffffffffffffffffffff1673ffffffffffffffffffffffffffffffffffffffff1681526020016003820160009054906101000a900473ffffffffffffffffffffffffffffffffffffffff1673ffffffffffffffffffffffffffffffffffffffff1673ffffffffffffffffffffffffffffffffffffffff168152602001600482015481526020016005820160009054906101000a900460ff16151515158152505083838151811061094f5761094e611e52565b5b6020026020010181905250818061096590611ddb565b9250505b808061097490611ddb565b91505061072b565b508194505050505090565b61098f6118f3565b600360008381526020019081526020016000206040518060c00160405290816000820160009054906101000a900473ffffffffffffffffffffffffffffffffffffffff1673ffffffffffffffffffffffffffffffffffffffff1673ffffffffffffffffffffffffffffffffffffffff168152602001600182015481526020016002820160009054906101000a900473ffffffffffffffffffffffffffffffffffffffff1673ffffffffffffffffffffffffffffffffffffffff1673ffffffffffffffffffffffffffffffffffffffff1681526020016003820160009054906101000a900473ffffffffffffffffffffffffffffffffffffffff1673ffffffffffffffffffffffffffffffffffffffff1673ffffffffffffffffffffffffffffffffffffffff168152602001600482015481526020016005820160009054906101000a900460ff1615151515815250509050919050565b600260005403610b2a576040517f08c379a0000000000000000000000000000000000000000000000000000000008152600401610b2190611ede565b60405180910390fd5b600260008190555060008111610b75576040517f08c379a0000000000000000000000000000000000000000000000000000000008152600401610b6c90611f4a565b60405180910390fd5b7f00000000000000000000000000000000000000000000000000000000000000003414610bd7576040517f08c379a0000000000000000000000000000000000000000000000000000000008152600401610bce90611fb6565b60405180910390fd5b8273ffffffffffffffffffffffffffffffffffffffff166323b872dd3330856040518463ffffffff1660e01b8152600401610c1493929190611fd6565b600060405180830381600087803b158015610c2e57600080fd5b505af1158015610c42573d6000803e3d6000fd5b505050506000600360008481526020019081526020016000209050338160020160006101000a81548173ffffffffffffffffffffffffffffffffffffffff021916908373ffffffffffffffffffffffffffffffffffffffff160217905550308160030160006101000a81548173ffffffffffffffffffffffffffffffffffffffff021916908373ffffffffffffffffffffffffffffffffffffffff16021790555060018160050160006101000a81548160ff02191690831515021790555081816004018190555060016000815480929190610d1c9061200d565b91905055507fa0c6c0d02d86fdacecbaa5fdf5894bab204e31a778250474108540733a9b8d198484333086604051610d58959493929190612095565b60405180910390a1506001600081905550505050565b6000600154905090565b600260005403610dbd576040517f08c379a0000000000000000000000000000000000000000000000000000000008152600401610db490611ede565b60405180910390fd5b6002600081905550600060036000838152602001908152602001600020905060008211610e1f576040517f08c379a0000000000000000000000000000000000000000000000000000000008152600401610e1690612134565b60405180910390fd5b8060050160009054906101000a900460ff16610e70576040517f08c379a0000000000000000000000000000000000000000000000000000000008152600401610e67906121c6565b60405180910390fd5b8060040154341015610eb7576040517f08c379a0000000000000000000000000000000000000000000000000000000008152600401610eae90612258565b60405180910390fd5b60003390508160020160009054906101000a900473ffffffffffffffffffffffffffffffffffffffff1673ffffffffffffffffffffffffffffffffffffffff166108fc349081150290604051600060405180830381858888f19350505050158015610f26573d6000803e3d6000fd5b508373ffffffffffffffffffffffffffffffffffffffff166323b872dd308385600101546040518463ffffffff1660e01b8152600401610f6893929190612278565b600060405180830381600087803b158015610f8257600080fd5b505af1158015610f96573d6000803e3d6000fd5b505050507f000000000000000000000000000000000000000000000000000000000000000073ffffffffffffffffffffffffffffffffffffffff166108fc7f00000000000000000000000000000000000000000000000000000000000000009081150290604051600060405180830381858888f19350505050158015611020573d6000803e3d6000fd5b50808260030160006101000a81548173ffffffffffffffffffffffffffffffffffffffff021916908373ffffffffffffffffffffffffffffffffffffffff16021790555060008260050160006101000a81548160ff0219169083151502179055506001600081548092919061109490611ddb565b91905055507f16f1dbd97e6bf646d429ed186cce832f1f7fd9907814293b83181e9970ab7bd28483600101548460020160009054906101000a900473ffffffffffffffffffffffffffffffffffffffff1684346040516110f89594939291906122af565b60405180910390a1505060016000819055505050565b6060600060025490506000600154826111279190612302565b905060008167ffffffffffffffff81111561114557611144611e23565b5b60405190808252806020026020018201604052801561117e57816020015b61116b6118f3565b8152602001906001900390816111635790505b5090506000805b8481101561135d576003600060018361119e9190611d85565b815260200190815260200160002060050160009054906101000a900460ff161561134a57600360006001836111d39190611d85565b81526020019081526020016000206040518060c00160405290816000820160009054906101000a900473ffffffffffffffffffffffffffffffffffffffff1673ffffffffffffffffffffffffffffffffffffffff1673ffffffffffffffffffffffffffffffffffffffff168152602001600182015481526020016002820160009054906101000a900473ffffffffffffffffffffffffffffffffffffffff1673ffffffffffffffffffffffffffffffffffffffff1673ffffffffffffffffffffffffffffffffffffffff1681526020016003820160009054906101000a900473ffffffffffffffffffffffffffffffffffffffff1673ffffffffffffffffffffffffffffffffffffffff1673ffffffffffffffffffffffffffffffffffffffff168152602001600482015481526020016005820160009054906101000a900460ff1615151515815250508383815181106113305761132f611e52565b5b6020026020010181905250818061134690611ddb565b9250505b808061135590611ddb565b915050611185565b508194505050505090565b60007f0000000000000000000000000000000000000000000000000000000000000000905090565b6002600054036113d5576040517f08c379a00000000000000000000000000000000000000000000000000000000081526004016113cc90611ede565b60405180910390fd5b600260008190555060008111611420576040517f08c379a000000000000000000000000000000000000000000000000000000000815260040161141790611f4a565b60405180910390fd5b7f00000000000000000000000000000000000000000000000000000000000000003414611482576040517f08c379a000000000000000000000000000000000000000000000000000000000815260040161147990611fb6565b60405180910390fd5b8273ffffffffffffffffffffffffffffffffffffffff166323b872dd3330856040518463ffffffff1660e01b81526004016114bf93929190611fd6565b600060405180830381600087803b1580156114d957600080fd5b505af11580156114ed573d6000803e3d6000fd5b505050506002600081548092919061150490611ddb565b91905055506040518060c001604052808473ffffffffffffffffffffffffffffffffffffffff1681526020018381526020013373ffffffffffffffffffffffffffffffffffffffff1681526020013073ffffffffffffffffffffffffffffffffffffffff168152602001828152602001600115158152506003600084815260200190815260200160002060008201518160000160006101000a81548173ffffffffffffffffffffffffffffffffffffffff021916908373ffffffffffffffffffffffffffffffffffffffff1602179055506020820151816001015560408201518160020160006101000a81548173ffffffffffffffffffffffffffffffffffffffff021916908373ffffffffffffffffffffffffffffffffffffffff16021790555060608201518160030160006101000a81548173ffffffffffffffffffffffffffffffffffffffff021916908373ffffffffffffffffffffffffffffffffffffffff1602179055506080820151816004015560a08201518160050160006101000a81548160ff0219169083151502179055509050507fa0c6c0d02d86fdacecbaa5fdf5894bab204e31a778250474108540733a9b8d1983833330856040516116d1959493929190612336565b60405180910390a16001600081905550505050565b6000600254905090565b6060600060025490506000808267ffffffffffffffff81111561171657611715611e23565b5b60405190808252806020026020018201604052801561174f57816020015b61173c6118f3565b8152602001906001900390816117345790505b50905060005b838110156118e9576003600060018361176e9190611d85565b81526020019081526020016000206040518060c00160405290816000820160009054906101000a900473ffffffffffffffffffffffffffffffffffffffff1673ffffffffffffffffffffffffffffffffffffffff1673ffffffffffffffffffffffffffffffffffffffff168152602001600182015481526020016002820160009054906101000a900473ffffffffffffffffffffffffffffffffffffffff1673ffffffffffffffffffffffffffffffffffffffff1673ffffffffffffffffffffffffffffffffffffffff1681526020016003820160009054906101000a900473ffffffffffffffffffffffffffffffffffffffff1673ffffffffffffffffffffffffffffffffffffffff1673ffffffffffffffffffffffffffffffffffffffff168152602001600482015481526020016005820160009054906101000a900460ff1615151515815250508284815181106118cb576118ca611e52565b5b602002602001018190525080806118e190611ddb565b915050611755565b5080935050505090565b6040518060c00160405280600073ffffffffffffffffffffffffffffffffffffffff16815260200160008152602001600073ffffffffffffffffffffffffffffffffffffffff168152602001600073ffffffffffffffffffffffffffffffffffffffff168152602001600081526020016000151581525090565b600081519050919050565b600082825260208201905092915050565b6000819050602082019050919050565b600073ffffffffffffffffffffffffffffffffffffffff82169050919050565b60006119c482611999565b9050919050565b6119d4816119b9565b82525050565b6000819050919050565b6119ed816119da565b82525050565b60006119fe82611999565b9050919050565b611a0e816119f3565b82525050565b60008115159050919050565b611a2981611a14565b82525050565b60c082016000820151611a4560008501826119cb565b506020820151611a5860208501826119e4565b506040820151611a6b6040850182611a05565b506060820151611a7e6060850182611a05565b506080820151611a9160808501826119e4565b5060a0820151611aa460a0850182611a20565b50505050565b6000611ab68383611a2f565b60c08301905092915050565b6000602082019050919050565b6000611ada8261196d565b611ae48185611978565b9350611aef83611989565b8060005b83811015611b20578151611b078882611aaa565b9750611b1283611ac2565b925050600181019050611af3565b5085935050505092915050565b60006020820190508181036000830152611b478184611acf565b905092915050565b611b58816119b9565b82525050565b6000602082019050611b736000830184611b4f565b92915050565b600080fd5b611b87816119da565b8114611b9257600080fd5b50565b600081359050611ba481611b7e565b92915050565b600060208284031215611bc057611bbf611b79565b5b6000611bce84828501611b95565b91505092915050565b60c082016000820151611bed60008501826119cb565b506020820151611c0060208501826119e4565b506040820151611c136040850182611a05565b506060820151611c266060850182611a05565b506080820151611c3960808501826119e4565b5060a0820151611c4c60a0850182611a20565b50505050565b600060c082019050611c676000830184611bd7565b92915050565b611c76816119b9565b8114611c8157600080fd5b50565b600081359050611c9381611c6d565b92915050565b600080600060608486031215611cb257611cb1611b79565b5b6000611cc086828701611c84565b9350506020611cd186828701611b95565b9250506040611ce286828701611b95565b9150509250925092565b611cf5816119da565b82525050565b6000602082019050611d106000830184611cec565b92915050565b60008060408385031215611d2d57611d2c611b79565b5b6000611d3b85828601611c84565b9250506020611d4c85828601611b95565b9150509250929050565b7f4e487b7100000000000000000000000000000000000000000000000000000000600052601160045260246000fd5b6000611d90826119da565b9150611d9b836119da565b9250827fffffffffffffffffffffffffffffffffffffffffffffffffffffffffffffffff03821115611dd057611dcf611d56565b5b828201905092915050565b6000611de6826119da565b91507fffffffffffffffffffffffffffffffffffffffffffffffffffffffffffffffff8203611e1857611e17611d56565b5b600182019050919050565b7f4e487b7100000000000000000000000000000000000000000000000000000000600052604160045260246000fd5b7f4e487b7100000000000000000000000000000000000000000000000000000000600052603260045260246000fd5b600082825260208201905092915050565b7f5265656e7472616e637947756172643a207265656e7472616e742063616c6c00600082015250565b6000611ec8601f83611e81565b9150611ed382611e92565b602082019050919050565b60006020820190508181036000830152611ef781611ebb565b9050919050565b7f5072696365206d757374206265206174206c6561737420312077656900000000600082015250565b6000611f34601c83611e81565b9150611f3f82611efe565b602082019050919050565b60006020820190508181036000830152611f6381611f27565b9050919050565b7f4e6f7420656e6f75676820657468657220666f72206c697374696e6720666565600082015250565b6000611fa0602083611e81565b9150611fab82611f6a565b602082019050919050565b60006020820190508181036000830152611fcf81611f93565b9050919050565b6000606082019050611feb6000830186611b4f565b611ff86020830185611b4f565b6120056040830184611cec565b949350505050565b6000612018826119da565b91506000820361202b5761202a611d56565b5b600182039050919050565b6000819050919050565b600061205b61205661205184611999565b612036565b611999565b9050919050565b600061206d82612040565b9050919050565b600061207f82612062565b9050919050565b61208f81612074565b82525050565b600060a0820190506120aa6000830188611b4f565b6120b76020830187611cec565b6120c46040830186611b4f565b6120d16060830185612086565b6120de6080830184611cec565b9695505050505050565b7f4e4654206974656d20646f65736e277420657869737400000000000000000000600082015250565b600061211e601683611e81565b9150612129826120e8565b602082019050919050565b6000602082019050818103600083015261214d81612111565b9050919050565b7f4e4654206974656d206973206e6f74206c6973746564206f6e20746865206d6160008201527f726b6574706c6163650000000000000000000000000000000000000000000000602082015250565b60006121b0602983611e81565b91506121bb82612154565b604082019050919050565b600060208201905081810360008301526121df816121a3565b9050919050565b7f4e6f7420656e6f75676820657468657220746f20636f7665722061736b696e6760008201527f2070726963650000000000000000000000000000000000000000000000000000602082015250565b6000612242602683611e81565b915061224d826121e6565b604082019050919050565b6000602082019050818103600083015261227181612235565b9050919050565b600060608201905061228d6000830186611b4f565b61229a6020830185612086565b6122a76040830184611cec565b949350505050565b600060a0820190506122c46000830188611b4f565b6122d16020830187611cec565b6122de6040830186612086565b6122eb6060830185612086565b6122f86080830184611cec565b9695505050505050565b600061230d826119da565b9150612318836119da565b92508282101561232b5761232a611d56565b5b828203905092915050565b600060a08201905061234b6000830188611b4f565b6123586020830187611cec565b6123656040830186611b4f565b6123726060830185611b4f565b61237f6080830184611cec565b969550505050505056fea26469706673582212205ed11210a4df941d90428d059dd45ef635d5abdd4c99b3d58c943d607930767164736f6c634300080f0033",
  "immutableReferences": {
    "1838": [
      {
        "length": 32,
        "start": 2935
      },
      {
        "length": 32,
        "start": 4054
      },
      {
        "length": 32,
        "start": 4972
      },
      {
        "length": 32,
        "start": 5154
      }
    ],
    "1840": [
      {
        "length": 32,
        "start": 1477
      },
      {
        "length": 32,
        "start": 3996
      }
    ]
  },
  "source": "// SPDX-License-Identifier: MIT\r\npragma solidity ^0.8.4;\r\n\r\n//import \"@openzeppelin/contracts/utils/Counters.sol\";\r\nimport \"@openzeppelin/contracts/token/ERC721/ERC721.sol\";\r\nimport \"@openzeppelin/contracts/security/ReentrancyGuard.sol\";\r\n\r\ncontract Marketplace is ReentrancyGuard{\r\n    \r\n    //using Counters for Counters.Counter;\r\n    //Counters.Counter private _nftsSold;\r\n    //Counters.Counter private _nftCount;\r\n    uint256 private _nftsSold = 0;\r\n    uint256 private _nftCount = 0;\r\n    uint256 private immutable LISTING_FEE;// = 100000000000000 wei; // 0.0001 ethers\r\n    address payable private immutable _marketOwner;\r\n    //address public marketContract = address(this);\r\n    \r\n    mapping(uint256 => NFT) private _idToNFT;\r\n\r\n    struct NFT{\r\n        address nftContract;\r\n        uint256 tokenId;\r\n        address payable seller;\r\n        address payable owner;\r\n        uint256 price;\r\n        bool listed;\r\n    }\r\n\r\n    event NFTListed(address nftContract, uint256 tokenId, address seller, address owner, uint256 price);\r\n    event NFTSold(address nftContract, uint256 tokenId, address seller, address owner, uint256 price);\r\n\r\n    constructor(uint _LISTING_FEE){\r\n        _marketOwner = payable(msg.sender);\r\n        LISTING_FEE = _LISTING_FEE;\r\n    }\r\n\r\n    //list the NFT on the marketplace\r\n    function listNft(address _nftContract, uint256 _tokenId, uint256 _price) public payable nonReentrant{\r\n        require(_price > 0, \"Price must be at least 1 wei\");\r\n        require(msg.value == LISTING_FEE, \"Not enough ether for listing fee\");\r\n\r\n        (IERC721(_nftContract)).transferFrom(msg.sender, address(this), _tokenId);\r\n\r\n        //_nftCount.increment();\r\n        _nftCount++;\r\n\r\n        _idToNFT[_tokenId] = NFT(\r\n            _nftContract,\r\n            _tokenId,\r\n            payable(msg.sender),\r\n            payable(address(this)),\r\n            _price,\r\n            true\r\n        );\r\n\r\n        emit NFTListed(_nftContract, _tokenId, msg.sender, address(this), _price);\r\n    }\r\n\r\n\r\n    //Buy an NFT\r\n    function buyNft(address _nftContract, uint256 _tokenId) public payable nonReentrant{\r\n        NFT storage nft = _idToNFT[_tokenId];\r\n        //uint256 nftCount = _nftCount.current();\r\n        require(_tokenId > 0/* && _tokenId <= nftCount*/, \"NFT item doesn't exist\");\r\n        require(nft.listed, \"NFT item is not listed on the marketplace\");\r\n        require(msg.value >= nft.price, \"Not enough ether to cover asking price\");\r\n\r\n        address payable buyer = payable(msg.sender);\r\n        (payable(nft.seller)).transfer(msg.value);\r\n        (IERC721(_nftContract)).transferFrom(address(this), buyer, nft.tokenId);\r\n        payable(_marketOwner).transfer(LISTING_FEE);\r\n        nft.owner = buyer;\r\n        nft.listed = false;\r\n\r\n        //_nftsSold.increment();\r\n        _nftsSold++;\r\n\r\n        emit NFTSold(_nftContract, nft.tokenId, nft.seller, buyer, msg.value);\r\n    }\r\n\r\n    //Resell an NFT purchased from the marketplace\r\n    function resellNft(address _nftContract, uint256 _tokenId, uint256 _price) public payable nonReentrant{\r\n        require(_price > 0, \"Price must be at least 1 wei\");\r\n        require(msg.value == LISTING_FEE, \"Not enough ether for listing fee\");\r\n\r\n        (IERC721(_nftContract)).transferFrom(msg.sender, address(this), _tokenId);\r\n\r\n        NFT storage nft = _idToNFT[_tokenId];\r\n        nft.seller = payable(msg.sender);\r\n        nft.owner = payable(address(this));\r\n        nft.listed = true;\r\n        nft.price = _price;\r\n\r\n        //_nftsSold.decrement();\r\n        _nftsSold--;\r\n\r\n        emit NFTListed(_nftContract, _tokenId, msg.sender, payable(address(this)), _price);\r\n    }\r\n\r\n    \r\n    \r\n    //---------------------------------\r\n\r\n    \r\n    function getListingFee() public view returns (uint256){\r\n        return LISTING_FEE;\r\n    }\r\n\r\n    function get_NFT(uint256 NFT_tokenId) public view returns (NFT memory){\r\n        return _idToNFT[NFT_tokenId];\r\n    }\r\n\r\n    function get_nftsSold() public view returns (uint256){\r\n        return _nftsSold;\r\n    }\r\n\r\n    function get_nftCount() public view returns (uint256){\r\n        return _nftCount;\r\n    }\r\n\r\n    function get_marketOwner() public view returns (address){\r\n        return _marketOwner;\r\n    }\r\n\r\n\r\n    function getAllNFT() public view returns (NFT[] memory){\r\n        uint nftCount = _nftCount;\r\n        uint nftsIndex = 0;\r\n        NFT[] memory nfts = new NFT[](nftCount);\r\n        for(uint i=0; i<nftCount; i++){\r\n            nfts[nftsIndex] = _idToNFT[i+1];\r\n        }\r\n        return nfts;\r\n    }\r\n\r\n    function getListedNfts() public view returns (NFT[] memory){\r\n        uint256 nftCount = _nftCount;\r\n        uint256 unsoldNftsCount = nftCount - _nftsSold;\r\n\r\n        NFT[] memory nfts = new NFT[](unsoldNftsCount);\r\n        uint nftsIndex = 0;\r\n        for(uint i=0; i<nftCount; i++){\r\n            if(_idToNFT[i+1].listed){\r\n                nfts[nftsIndex] = _idToNFT[i+1];\r\n                nftsIndex++;\r\n            }\r\n        }\r\n        return nfts;\r\n    }\r\n\r\n    function getMyNfts() public view returns (NFT[] memory){\r\n        uint nftCount = _nftCount;\r\n        uint myNftCount = 0;\r\n        for(uint i=0; i<nftCount; i++){\r\n            if(_idToNFT[i+1].owner == msg.sender){\r\n                myNftCount++;\r\n            }\r\n        }\r\n\r\n        NFT[] memory nfts = new NFT[](myNftCount);\r\n        uint nftsIndex = 0;\r\n        for(uint i=0; i<nftCount; i++){\r\n            if(_idToNFT[i+1].owner == msg.sender){\r\n                nfts[nftsIndex] = _idToNFT[i+1];\r\n                nftsIndex++;\r\n            }\r\n        }\r\n        return nfts;\r\n    }\r\n\r\n    function getMyListedNfts() public view returns (NFT[] memory){\r\n        uint nftCount = _nftCount;\r\n        uint myListedNftCount = 0;\r\n        for (uint i = 0; i < nftCount; i++) {\r\n            if (_idToNFT[i + 1].seller == msg.sender && _idToNFT[i + 1].listed) {\r\n                myListedNftCount++;\r\n            }\r\n        }\r\n\r\n        NFT[] memory nfts = new NFT[](myListedNftCount);\r\n        uint nftsIndex = 0;\r\n        for (uint i = 0; i < nftCount; i++) {\r\n            if (_idToNFT[i + 1].seller == msg.sender && _idToNFT[i + 1].listed) {\r\n                nfts[nftsIndex] = _idToNFT[i + 1];\r\n                nftsIndex++;\r\n            }\r\n        }\r\n        return nfts;\r\n    }\r\n}",
  "sourcePath": "C:\\Users\\Federico Mioli\\Desktop\\Personale\\git projects\\NFT_Marketplace\\contracts\\Marketplace.sol",
  "compiler": {
    "name": "solc",
    "version": "0.8.15+commit.e14f2714.Emscripten.clang"
  },
  "schemaVersion": "3.4.8",
  "updatedAt": "2022-10-14T13:17:14.804Z",
  "networkType": "ethereum",
  "devdoc": {
    "kind": "dev",
    "methods": {},
    "version": 1
  },
  "userdoc": {
    "kind": "user",
    "methods": {},
    "version": 1
  }
}