{
  "contractName": "NFT",
  "abi": [
    {
      "inputs": [
        {
          "internalType": "address",
          "name": "_marketplaceContract",
          "type": "address"
        }
      ],
      "stateMutability": "nonpayable",
      "type": "constructor"
    },
    {
      "anonymous": false,
      "inputs": [
        {
          "indexed": true,
          "internalType": "address",
          "name": "owner",
          "type": "address"
        },
        {
          "indexed": true,
          "internalType": "address",
          "name": "approved",
          "type": "address"
        },
        {
          "indexed": true,
          "internalType": "uint256",
          "name": "tokenId",
          "type": "uint256"
        }
      ],
      "name": "Approval",
      "type": "event"
    },
    {
      "anonymous": false,
      "inputs": [
        {
          "indexed": true,
          "internalType": "address",
          "name": "owner",
          "type": "address"
        },
        {
          "indexed": true,
          "internalType": "address",
          "name": "operator",
          "type": "address"
        },
        {
          "indexed": false,
          "internalType": "bool",
          "name": "approved",
          "type": "bool"
        }
      ],
      "name": "ApprovalForAll",
      "type": "event"
    },
    {
      "anonymous": false,
      "inputs": [
        {
          "indexed": false,
          "internalType": "uint256",
          "name": "tokenId",
          "type": "uint256"
        }
      ],
      "name": "NFTMinted",
      "type": "event"
    },
    {
      "anonymous": false,
      "inputs": [
        {
          "indexed": true,
          "internalType": "address",
          "name": "from",
          "type": "address"
        },
        {
          "indexed": true,
          "internalType": "address",
          "name": "to",
          "type": "address"
        },
        {
          "indexed": true,
          "internalType": "uint256",
          "name": "tokenId",
          "type": "uint256"
        }
      ],
      "name": "Transfer",
      "type": "event"
    },
    {
      "inputs": [],
      "name": "_tokenIds",
      "outputs": [
        {
          "internalType": "uint256",
          "name": "",
          "type": "uint256"
        }
      ],
      "stateMutability": "view",
      "type": "function",
      "constant": true
    },
    {
      "inputs": [
        {
          "internalType": "address",
          "name": "to",
          "type": "address"
        },
        {
          "internalType": "uint256",
          "name": "tokenId",
          "type": "uint256"
        }
      ],
      "name": "approve",
      "outputs": [],
      "stateMutability": "nonpayable",
      "type": "function"
    },
    {
      "inputs": [
        {
          "internalType": "address",
          "name": "owner",
          "type": "address"
        }
      ],
      "name": "balanceOf",
      "outputs": [
        {
          "internalType": "uint256",
          "name": "",
          "type": "uint256"
        }
      ],
      "stateMutability": "view",
      "type": "function",
      "constant": true
    },
    {
      "inputs": [
        {
          "internalType": "uint256",
          "name": "tokenId",
          "type": "uint256"
        }
      ],
      "name": "getApproved",
      "outputs": [
        {
          "internalType": "address",
          "name": "",
          "type": "address"
        }
      ],
      "stateMutability": "view",
      "type": "function",
      "constant": true
    },
    {
      "inputs": [
        {
          "internalType": "address",
          "name": "owner",
          "type": "address"
        },
        {
          "internalType": "address",
          "name": "operator",
          "type": "address"
        }
      ],
      "name": "isApprovedForAll",
      "outputs": [
        {
          "internalType": "bool",
          "name": "",
          "type": "bool"
        }
      ],
      "stateMutability": "view",
      "type": "function",
      "constant": true
    },
    {
      "inputs": [],
      "name": "name",
      "outputs": [
        {
          "internalType": "string",
          "name": "",
          "type": "string"
        }
      ],
      "stateMutability": "view",
      "type": "function",
      "constant": true
    },
    {
      "inputs": [
        {
          "internalType": "uint256",
          "name": "tokenId",
          "type": "uint256"
        }
      ],
      "name": "ownerOf",
      "outputs": [
        {
          "internalType": "address",
          "name": "",
          "type": "address"
        }
      ],
      "stateMutability": "view",
      "type": "function",
      "constant": true
    },
    {
      "inputs": [
        {
          "internalType": "address",
          "name": "from",
          "type": "address"
        },
        {
          "internalType": "address",
          "name": "to",
          "type": "address"
        },
        {
          "internalType": "uint256",
          "name": "tokenId",
          "type": "uint256"
        }
      ],
      "name": "safeTransferFrom",
      "outputs": [],
      "stateMutability": "nonpayable",
      "type": "function"
    },
    {
      "inputs": [
        {
          "internalType": "address",
          "name": "from",
          "type": "address"
        },
        {
          "internalType": "address",
          "name": "to",
          "type": "address"
        },
        {
          "internalType": "uint256",
          "name": "tokenId",
          "type": "uint256"
        },
        {
          "internalType": "bytes",
          "name": "_data",
          "type": "bytes"
        }
      ],
      "name": "safeTransferFrom",
      "outputs": [],
      "stateMutability": "nonpayable",
      "type": "function"
    },
    {
      "inputs": [
        {
          "internalType": "address",
          "name": "operator",
          "type": "address"
        },
        {
          "internalType": "bool",
          "name": "approved",
          "type": "bool"
        }
      ],
      "name": "setApprovalForAll",
      "outputs": [],
      "stateMutability": "nonpayable",
      "type": "function"
    },
    {
      "inputs": [
        {
          "internalType": "bytes4",
          "name": "interfaceId",
          "type": "bytes4"
        }
      ],
      "name": "supportsInterface",
      "outputs": [
        {
          "internalType": "bool",
          "name": "",
          "type": "bool"
        }
      ],
      "stateMutability": "view",
      "type": "function",
      "constant": true
    },
    {
      "inputs": [],
      "name": "symbol",
      "outputs": [
        {
          "internalType": "string",
          "name": "",
          "type": "string"
        }
      ],
      "stateMutability": "view",
      "type": "function",
      "constant": true
    },
    {
      "inputs": [
        {
          "internalType": "uint256",
          "name": "tokenId",
          "type": "uint256"
        }
      ],
      "name": "tokenURI",
      "outputs": [
        {
          "internalType": "string",
          "name": "",
          "type": "string"
        }
      ],
      "stateMutability": "view",
      "type": "function",
      "constant": true
    },
    {
      "inputs": [
        {
          "internalType": "address",
          "name": "from",
          "type": "address"
        },
        {
          "internalType": "address",
          "name": "to",
          "type": "address"
        },
        {
          "internalType": "uint256",
          "name": "tokenId",
          "type": "uint256"
        }
      ],
      "name": "transferFrom",
      "outputs": [],
      "stateMutability": "nonpayable",
      "type": "function"
    },
    {
      "inputs": [
        {
          "internalType": "string",
          "name": "_tokenURI",
          "type": "string"
        }
      ],
      "name": "mint",
      "outputs": [],
      "stateMutability": "nonpayable",
      "type": "function"
    }
  ],
  "bytecode": "0x608060405260006007553480156200001657600080fd5b506040516200336e3803806200336e83398181016040528101906200003c919062000180565b6040518060400160405280600881526020017f44617070204e46540000000000000000000000000000000000000000000000008152506040518060400160405280600481526020017f444e4654000000000000000000000000000000000000000000000000000000008152508160009081620000b991906200042c565b508060019081620000cb91906200042c565b50505080600860006101000a81548173ffffffffffffffffffffffffffffffffffffffff021916908373ffffffffffffffffffffffffffffffffffffffff1602179055505062000513565b600080fd5b600073ffffffffffffffffffffffffffffffffffffffff82169050919050565b600062000148826200011b565b9050919050565b6200015a816200013b565b81146200016657600080fd5b50565b6000815190506200017a816200014f565b92915050565b60006020828403121562000199576200019862000116565b5b6000620001a98482850162000169565b91505092915050565b600081519050919050565b7f4e487b7100000000000000000000000000000000000000000000000000000000600052604160045260246000fd5b7f4e487b7100000000000000000000000000000000000000000000000000000000600052602260045260246000fd5b600060028204905060018216806200023457607f821691505b6020821081036200024a5762000249620001ec565b5b50919050565b60008190508160005260206000209050919050565b60006020601f8301049050919050565b600082821b905092915050565b600060088302620002b47fffffffffffffffffffffffffffffffffffffffffffffffffffffffffffffffff8262000275565b620002c0868362000275565b95508019841693508086168417925050509392505050565b6000819050919050565b6000819050919050565b60006200030d620003076200030184620002d8565b620002e2565b620002d8565b9050919050565b6000819050919050565b6200032983620002ec565b62000341620003388262000314565b84845462000282565b825550505050565b600090565b6200035862000349565b620003658184846200031e565b505050565b5b818110156200038d57620003816000826200034e565b6001810190506200036b565b5050565b601f821115620003dc57620003a68162000250565b620003b18462000265565b81016020851015620003c1578190505b620003d9620003d08562000265565b8301826200036a565b50505b505050565b600082821c905092915050565b60006200040160001984600802620003e1565b1980831691505092915050565b60006200041c8383620003ee565b9150826002028217905092915050565b6200043782620001b2565b67ffffffffffffffff811115620004535762000452620001bd565b5b6200045f82546200021b565b6200046c82828562000391565b600060209050601f831160018114620004a457600084156200048f578287015190505b6200049b85826200040e565b8655506200050b565b601f198416620004b48662000250565b60005b82811015620004de57848901518255600182019150602085019450602081019050620004b7565b86831015620004fe5784890151620004fa601f891682620003ee565b8355505b6001600288020188555050505b505050505050565b612e4b80620005236000396000f3fe608060405234801561001057600080fd5b50600436106100f55760003560e01c806370a0823111610097578063b88d4fde11610066578063b88d4fde14610284578063c87b56dd146102a0578063d85d3d27146102d0578063e985e9c5146102ec576100f5565b806370a08231146101fc57806395d89b411461022c578063a22cb4651461024a578063aa46a40014610266576100f5565b8063095ea7b3116100d3578063095ea7b31461017857806323b872dd1461019457806342842e0e146101b05780636352211e146101cc576100f5565b806301ffc9a7146100fa57806306fdde031461012a578063081812fc14610148575b600080fd5b610114600480360381019061010f9190611944565b61031c565b604051610121919061198c565b60405180910390f35b6101326103fe565b60405161013f9190611a40565b60405180910390f35b610162600480360381019061015d9190611a98565b610490565b60405161016f9190611b06565b60405180910390f35b610192600480360381019061018d9190611b4d565b610515565b005b6101ae60048036038101906101a99190611b8d565b61062c565b005b6101ca60048036038101906101c59190611b8d565b61068c565b005b6101e660048036038101906101e19190611a98565b6106ac565b6040516101f39190611b06565b60405180910390f35b61021660048036038101906102119190611be0565b61075d565b6040516102239190611c1c565b60405180910390f35b610234610814565b6040516102419190611a40565b60405180910390f35b610264600480360381019061025f9190611c63565b6108a6565b005b61026e6108bc565b60405161027b9190611c1c565b60405180910390f35b61029e60048036038101906102999190611dd8565b6108c2565b005b6102ba60048036038101906102b59190611a98565b610924565b6040516102c79190611a40565b60405180910390f35b6102ea60048036038101906102e59190611efc565b610a75565b005b61030660048036038101906103019190611f45565b610b10565b604051610313919061198c565b60405180910390f35b60007f80ac58cd000000000000000000000000000000000000000000000000000000007bffffffffffffffffffffffffffffffffffffffffffffffffffffffff1916827bffffffffffffffffffffffffffffffffffffffffffffffffffffffff191614806103e757507f5b5e139f000000000000000000000000000000000000000000000000000000007bffffffffffffffffffffffffffffffffffffffffffffffffffffffff1916827bffffffffffffffffffffffffffffffffffffffffffffffffffffffff1916145b806103f757506103f682610ba4565b5b9050919050565b60606000805461040d90611fb4565b80601f016020809104026020016040519081016040528092919081815260200182805461043990611fb4565b80156104865780601f1061045b57610100808354040283529160200191610486565b820191906000526020600020905b81548152906001019060200180831161046957829003601f168201915b5050505050905090565b600061049b82610c0e565b6104da576040517f08c379a00000000000000000000000000000000000000000000000000000000081526004016104d190612057565b60405180910390fd5b6004600083815260200190815260200160002060009054906101000a900473ffffffffffffffffffffffffffffffffffffffff169050919050565b6000610520826106ac565b90508073ffffffffffffffffffffffffffffffffffffffff168373ffffffffffffffffffffffffffffffffffffffff1603610590576040517f08c379a0000000000000000000000000000000000000000000000000000000008152600401610587906120e9565b60405180910390fd5b8073ffffffffffffffffffffffffffffffffffffffff166105af610c7a565b73ffffffffffffffffffffffffffffffffffffffff1614806105de57506105dd816105d8610c7a565b610b10565b5b61061d576040517f08c379a00000000000000000000000000000000000000000000000000000000081526004016106149061217b565b60405180910390fd5b6106278383610c82565b505050565b61063d610637610c7a565b82610d3b565b61067c576040517f08c379a00000000000000000000000000000000000000000000000000000000081526004016106739061220d565b60405180910390fd5b610687838383610e19565b505050565b6106a7838383604051806020016040528060008152506108c2565b505050565b6000806002600084815260200190815260200160002060009054906101000a900473ffffffffffffffffffffffffffffffffffffffff169050600073ffffffffffffffffffffffffffffffffffffffff168173ffffffffffffffffffffffffffffffffffffffff1603610754576040517f08c379a000000000000000000000000000000000000000000000000000000000815260040161074b9061229f565b60405180910390fd5b80915050919050565b60008073ffffffffffffffffffffffffffffffffffffffff168273ffffffffffffffffffffffffffffffffffffffff16036107cd576040517f08c379a00000000000000000000000000000000000000000000000000000000081526004016107c490612331565b60405180910390fd5b600360008373ffffffffffffffffffffffffffffffffffffffff1673ffffffffffffffffffffffffffffffffffffffff168152602001908152602001600020549050919050565b60606001805461082390611fb4565b80601f016020809104026020016040519081016040528092919081815260200182805461084f90611fb4565b801561089c5780601f106108715761010080835404028352916020019161089c565b820191906000526020600020905b81548152906001019060200180831161087f57829003601f168201915b5050505050905090565b6108b86108b1610c7a565b838361107f565b5050565b60075481565b6108d36108cd610c7a565b83610d3b565b610912576040517f08c379a00000000000000000000000000000000000000000000000000000000081526004016109099061220d565b60405180910390fd5b61091e848484846111eb565b50505050565b606061092f82610c0e565b61096e576040517f08c379a0000000000000000000000000000000000000000000000000000000008152600401610965906123c3565b60405180910390fd5b600060066000848152602001908152602001600020805461098e90611fb4565b80601f01602080910402602001604051908101604052809291908181526020018280546109ba90611fb4565b8015610a075780601f106109dc57610100808354040283529160200191610a07565b820191906000526020600020905b8154815290600101906020018083116109ea57829003601f168201915b505050505090506000610a18611247565b90506000815103610a2d578192505050610a70565b600082511115610a62578082604051602001610a4a92919061241f565b60405160208183030381529060405292505050610a70565b610a6b8461125e565b925050505b919050565b60076000815480929190610a8890612472565b919050555060006007549050610a9e3382611305565b610aa88183611323565b610ad5600860009054906101000a900473ffffffffffffffffffffffffffffffffffffffff1660016108a6565b7fd9dc24857f317ed9abbbb42e920ede0104231eb1d3d70236a74887ffaf15986881604051610b049190611c1c565b60405180910390a15050565b6000600560008473ffffffffffffffffffffffffffffffffffffffff1673ffffffffffffffffffffffffffffffffffffffff16815260200190815260200160002060008373ffffffffffffffffffffffffffffffffffffffff1673ffffffffffffffffffffffffffffffffffffffff16815260200190815260200160002060009054906101000a900460ff16905092915050565b60007f01ffc9a7000000000000000000000000000000000000000000000000000000007bffffffffffffffffffffffffffffffffffffffffffffffffffffffff1916827bffffffffffffffffffffffffffffffffffffffffffffffffffffffff1916149050919050565b60008073ffffffffffffffffffffffffffffffffffffffff166002600084815260200190815260200160002060009054906101000a900473ffffffffffffffffffffffffffffffffffffffff1673ffffffffffffffffffffffffffffffffffffffff1614159050919050565b600033905090565b816004600083815260200190815260200160002060006101000a81548173ffffffffffffffffffffffffffffffffffffffff021916908373ffffffffffffffffffffffffffffffffffffffff160217905550808273ffffffffffffffffffffffffffffffffffffffff16610cf5836106ac565b73ffffffffffffffffffffffffffffffffffffffff167f8c5be1e5ebec7d5bd14f71427d1e84f3dd0314c0f7b2291e5b200ac8c7c3b92560405160405180910390a45050565b6000610d4682610c0e565b610d85576040517f08c379a0000000000000000000000000000000000000000000000000000000008152600401610d7c9061252c565b60405180910390fd5b6000610d90836106ac565b90508073ffffffffffffffffffffffffffffffffffffffff168473ffffffffffffffffffffffffffffffffffffffff161480610dd25750610dd18185610b10565b5b80610e1057508373ffffffffffffffffffffffffffffffffffffffff16610df884610490565b73ffffffffffffffffffffffffffffffffffffffff16145b91505092915050565b8273ffffffffffffffffffffffffffffffffffffffff16610e39826106ac565b73ffffffffffffffffffffffffffffffffffffffff1614610e8f576040517f08c379a0000000000000000000000000000000000000000000000000000000008152600401610e86906125be565b60405180910390fd5b600073ffffffffffffffffffffffffffffffffffffffff168273ffffffffffffffffffffffffffffffffffffffff1603610efe576040517f08c379a0000000000000000000000000000000000000000000000000000000008152600401610ef590612650565b60405180910390fd5b610f09838383611390565b610f14600082610c82565b6001600360008573ffffffffffffffffffffffffffffffffffffffff1673ffffffffffffffffffffffffffffffffffffffff1681526020019081526020016000206000828254610f649190612670565b925050819055506001600360008473ffffffffffffffffffffffffffffffffffffffff1673ffffffffffffffffffffffffffffffffffffffff1681526020019081526020016000206000828254610fbb91906126a4565b92505081905550816002600083815260200190815260200160002060006101000a81548173ffffffffffffffffffffffffffffffffffffffff021916908373ffffffffffffffffffffffffffffffffffffffff160217905550808273ffffffffffffffffffffffffffffffffffffffff168473ffffffffffffffffffffffffffffffffffffffff167fddf252ad1be2c89b69c2b068fc378daa952ba7f163c4a11628f55a4df523b3ef60405160405180910390a461107a838383611395565b505050565b8173ffffffffffffffffffffffffffffffffffffffff168373ffffffffffffffffffffffffffffffffffffffff16036110ed576040517f08c379a00000000000000000000000000000000000000000000000000000000081526004016110e490612746565b60405180910390fd5b80600560008573ffffffffffffffffffffffffffffffffffffffff1673ffffffffffffffffffffffffffffffffffffffff16815260200190815260200160002060008473ffffffffffffffffffffffffffffffffffffffff1673ffffffffffffffffffffffffffffffffffffffff16815260200190815260200160002060006101000a81548160ff0219169083151502179055508173ffffffffffffffffffffffffffffffffffffffff168373ffffffffffffffffffffffffffffffffffffffff167f17307eab39ab6107e8899845ad3d59bd9653f200f220920489ca2b5937696c31836040516111de919061198c565b60405180910390a3505050565b6111f6848484610e19565b6112028484848461139a565b611241576040517f08c379a0000000000000000000000000000000000000000000000000000000008152600401611238906127d8565b60405180910390fd5b50505050565b606060405180602001604052806000815250905090565b606061126982610c0e565b6112a8576040517f08c379a000000000000000000000000000000000000000000000000000000000815260040161129f9061286a565b60405180910390fd5b60006112b2611247565b905060008151116112d257604051806020016040528060008152506112fd565b806112dc84611521565b6040516020016112ed92919061241f565b6040516020818303038152906040525b915050919050565b61131f828260405180602001604052806000815250611681565b5050565b61132c82610c0e565b61136b576040517f08c379a0000000000000000000000000000000000000000000000000000000008152600401611362906128fc565b60405180910390fd5b8060066000848152602001908152602001600020908161138b9190612ac8565b505050565b505050565b505050565b60006113bb8473ffffffffffffffffffffffffffffffffffffffff166116dc565b15611514578373ffffffffffffffffffffffffffffffffffffffff1663150b7a026113e4610c7a565b8786866040518563ffffffff1660e01b81526004016114069493929190612bef565b6020604051808303816000875af192505050801561144257506040513d601f19601f8201168201806040525081019061143f9190612c50565b60015b6114c4573d8060008114611472576040519150601f19603f3d011682016040523d82523d6000602084013e611477565b606091505b5060008151036114bc576040517f08c379a00000000000000000000000000000000000000000000000000000000081526004016114b3906127d8565b60405180910390fd5b805181602001fd5b63150b7a0260e01b7bffffffffffffffffffffffffffffffffffffffffffffffffffffffff1916817bffffffffffffffffffffffffffffffffffffffffffffffffffffffff191614915050611519565b600190505b949350505050565b606060008203611568576040518060400160405280600181526020017f3000000000000000000000000000000000000000000000000000000000000000815250905061167c565b600082905060005b6000821461159a57808061158390612472565b915050600a826115939190612cac565b9150611570565b60008167ffffffffffffffff8111156115b6576115b5611cad565b5b6040519080825280601f01601f1916602001820160405280156115e85781602001600182028036833780820191505090505b5090505b60008514611675576001826116019190612670565b9150600a856116109190612cdd565b603061161c91906126a4565b60f81b81838151811061163257611631612d0e565b5b60200101907effffffffffffffffffffffffffffffffffffffffffffffffffffffffffffff1916908160001a905350600a8561166e9190612cac565b94506115ec565b8093505050505b919050565b61168b83836116ff565b611698600084848461139a565b6116d7576040517f08c379a00000000000000000000000000000000000000000000000000000000081526004016116ce906127d8565b60405180910390fd5b505050565b6000808273ffffffffffffffffffffffffffffffffffffffff163b119050919050565b600073ffffffffffffffffffffffffffffffffffffffff168273ffffffffffffffffffffffffffffffffffffffff160361176e576040517f08c379a000000000000000000000000000000000000000000000000000000000815260040161176590612d89565b60405180910390fd5b61177781610c0e565b156117b7576040517f08c379a00000000000000000000000000000000000000000000000000000000081526004016117ae90612df5565b60405180910390fd5b6117c360008383611390565b6001600360008473ffffffffffffffffffffffffffffffffffffffff1673ffffffffffffffffffffffffffffffffffffffff168152602001908152602001600020600082825461181391906126a4565b92505081905550816002600083815260200190815260200160002060006101000a81548173ffffffffffffffffffffffffffffffffffffffff021916908373ffffffffffffffffffffffffffffffffffffffff160217905550808273ffffffffffffffffffffffffffffffffffffffff16600073ffffffffffffffffffffffffffffffffffffffff167fddf252ad1be2c89b69c2b068fc378daa952ba7f163c4a11628f55a4df523b3ef60405160405180910390a46118d460008383611395565b5050565b6000604051905090565b600080fd5b600080fd5b60007fffffffff0000000000000000000000000000000000000000000000000000000082169050919050565b611921816118ec565b811461192c57600080fd5b50565b60008135905061193e81611918565b92915050565b60006020828403121561195a576119596118e2565b5b60006119688482850161192f565b91505092915050565b60008115159050919050565b61198681611971565b82525050565b60006020820190506119a1600083018461197d565b92915050565b600081519050919050565b600082825260208201905092915050565b60005b838110156119e15780820151818401526020810190506119c6565b838111156119f0576000848401525b50505050565b6000601f19601f8301169050919050565b6000611a12826119a7565b611a1c81856119b2565b9350611a2c8185602086016119c3565b611a35816119f6565b840191505092915050565b60006020820190508181036000830152611a5a8184611a07565b905092915050565b6000819050919050565b611a7581611a62565b8114611a8057600080fd5b50565b600081359050611a9281611a6c565b92915050565b600060208284031215611aae57611aad6118e2565b5b6000611abc84828501611a83565b91505092915050565b600073ffffffffffffffffffffffffffffffffffffffff82169050919050565b6000611af082611ac5565b9050919050565b611b0081611ae5565b82525050565b6000602082019050611b1b6000830184611af7565b92915050565b611b2a81611ae5565b8114611b3557600080fd5b50565b600081359050611b4781611b21565b92915050565b60008060408385031215611b6457611b636118e2565b5b6000611b7285828601611b38565b9250506020611b8385828601611a83565b9150509250929050565b600080600060608486031215611ba657611ba56118e2565b5b6000611bb486828701611b38565b9350506020611bc586828701611b38565b9250506040611bd686828701611a83565b9150509250925092565b600060208284031215611bf657611bf56118e2565b5b6000611c0484828501611b38565b91505092915050565b611c1681611a62565b82525050565b6000602082019050611c316000830184611c0d565b92915050565b611c4081611971565b8114611c4b57600080fd5b50565b600081359050611c5d81611c37565b92915050565b60008060408385031215611c7a57611c796118e2565b5b6000611c8885828601611b38565b9250506020611c9985828601611c4e565b9150509250929050565b600080fd5b600080fd5b7f4e487b7100000000000000000000000000000000000000000000000000000000600052604160045260246000fd5b611ce5826119f6565b810181811067ffffffffffffffff82111715611d0457611d03611cad565b5b80604052505050565b6000611d176118d8565b9050611d238282611cdc565b919050565b600067ffffffffffffffff821115611d4357611d42611cad565b5b611d4c826119f6565b9050602081019050919050565b82818337600083830152505050565b6000611d7b611d7684611d28565b611d0d565b905082815260208101848484011115611d9757611d96611ca8565b5b611da2848285611d59565b509392505050565b600082601f830112611dbf57611dbe611ca3565b5b8135611dcf848260208601611d68565b91505092915050565b60008060008060808587031215611df257611df16118e2565b5b6000611e0087828801611b38565b9450506020611e1187828801611b38565b9350506040611e2287828801611a83565b925050606085013567ffffffffffffffff811115611e4357611e426118e7565b5b611e4f87828801611daa565b91505092959194509250565b600067ffffffffffffffff821115611e7657611e75611cad565b5b611e7f826119f6565b9050602081019050919050565b6000611e9f611e9a84611e5b565b611d0d565b905082815260208101848484011115611ebb57611eba611ca8565b5b611ec6848285611d59565b509392505050565b600082601f830112611ee357611ee2611ca3565b5b8135611ef3848260208601611e8c565b91505092915050565b600060208284031215611f1257611f116118e2565b5b600082013567ffffffffffffffff811115611f3057611f2f6118e7565b5b611f3c84828501611ece565b91505092915050565b60008060408385031215611f5c57611f5b6118e2565b5b6000611f6a85828601611b38565b9250506020611f7b85828601611b38565b9150509250929050565b7f4e487b7100000000000000000000000000000000000000000000000000000000600052602260045260246000fd5b60006002820490506001821680611fcc57607f821691505b602082108103611fdf57611fde611f85565b5b50919050565b7f4552433732313a20617070726f76656420717565727920666f72206e6f6e657860008201527f697374656e7420746f6b656e0000000000000000000000000000000000000000602082015250565b6000612041602c836119b2565b915061204c82611fe5565b604082019050919050565b6000602082019050818103600083015261207081612034565b9050919050565b7f4552433732313a20617070726f76616c20746f2063757272656e74206f776e6560008201527f7200000000000000000000000000000000000000000000000000000000000000602082015250565b60006120d36021836119b2565b91506120de82612077565b604082019050919050565b60006020820190508181036000830152612102816120c6565b9050919050565b7f4552433732313a20617070726f76652063616c6c6572206973206e6f74206f7760008201527f6e6572206e6f7220617070726f76656420666f7220616c6c0000000000000000602082015250565b60006121656038836119b2565b915061217082612109565b604082019050919050565b6000602082019050818103600083015261219481612158565b9050919050565b7f4552433732313a207472616e736665722063616c6c6572206973206e6f74206f60008201527f776e6572206e6f7220617070726f766564000000000000000000000000000000602082015250565b60006121f76031836119b2565b91506122028261219b565b604082019050919050565b60006020820190508181036000830152612226816121ea565b9050919050565b7f4552433732313a206f776e657220717565727920666f72206e6f6e657869737460008201527f656e7420746f6b656e0000000000000000000000000000000000000000000000602082015250565b60006122896029836119b2565b91506122948261222d565b604082019050919050565b600060208201905081810360008301526122b88161227c565b9050919050565b7f4552433732313a2062616c616e636520717565727920666f7220746865207a6560008201527f726f206164647265737300000000000000000000000000000000000000000000602082015250565b600061231b602a836119b2565b9150612326826122bf565b604082019050919050565b6000602082019050818103600083015261234a8161230e565b9050919050565b7f45524337323155524953746f726167653a2055524920717565727920666f722060008201527f6e6f6e6578697374656e7420746f6b656e000000000000000000000000000000602082015250565b60006123ad6031836119b2565b91506123b882612351565b604082019050919050565b600060208201905081810360008301526123dc816123a0565b9050919050565b600081905092915050565b60006123f9826119a7565b61240381856123e3565b93506124138185602086016119c3565b80840191505092915050565b600061242b82856123ee565b915061243782846123ee565b91508190509392505050565b7f4e487b7100000000000000000000000000000000000000000000000000000000600052601160045260246000fd5b600061247d82611a62565b91507fffffffffffffffffffffffffffffffffffffffffffffffffffffffffffffffff82036124af576124ae612443565b5b600182019050919050565b7f4552433732313a206f70657261746f7220717565727920666f72206e6f6e657860008201527f697374656e7420746f6b656e0000000000000000000000000000000000000000602082015250565b6000612516602c836119b2565b9150612521826124ba565b604082019050919050565b6000602082019050818103600083015261254581612509565b9050919050565b7f4552433732313a207472616e736665722066726f6d20696e636f72726563742060008201527f6f776e6572000000000000000000000000000000000000000000000000000000602082015250565b60006125a86025836119b2565b91506125b38261254c565b604082019050919050565b600060208201905081810360008301526125d78161259b565b9050919050565b7f4552433732313a207472616e7366657220746f20746865207a65726f2061646460008201527f7265737300000000000000000000000000000000000000000000000000000000602082015250565b600061263a6024836119b2565b9150612645826125de565b604082019050919050565b600060208201905081810360008301526126698161262d565b9050919050565b600061267b82611a62565b915061268683611a62565b92508282101561269957612698612443565b5b828203905092915050565b60006126af82611a62565b91506126ba83611a62565b9250827fffffffffffffffffffffffffffffffffffffffffffffffffffffffffffffffff038211156126ef576126ee612443565b5b828201905092915050565b7f4552433732313a20617070726f766520746f2063616c6c657200000000000000600082015250565b60006127306019836119b2565b915061273b826126fa565b602082019050919050565b6000602082019050818103600083015261275f81612723565b9050919050565b7f4552433732313a207472616e7366657220746f206e6f6e20455243373231526560008201527f63656976657220696d706c656d656e7465720000000000000000000000000000602082015250565b60006127c26032836119b2565b91506127cd82612766565b604082019050919050565b600060208201905081810360008301526127f1816127b5565b9050919050565b7f4552433732314d657461646174613a2055524920717565727920666f72206e6f60008201527f6e6578697374656e7420746f6b656e0000000000000000000000000000000000602082015250565b6000612854602f836119b2565b915061285f826127f8565b604082019050919050565b6000602082019050818103600083015261288381612847565b9050919050565b7f45524337323155524953746f726167653a2055524920736574206f66206e6f6e60008201527f6578697374656e7420746f6b656e000000000000000000000000000000000000602082015250565b60006128e6602e836119b2565b91506128f18261288a565b604082019050919050565b60006020820190508181036000830152612915816128d9565b9050919050565b60008190508160005260206000209050919050565b60006020601f8301049050919050565b600082821b905092915050565b60006008830261297e7fffffffffffffffffffffffffffffffffffffffffffffffffffffffffffffffff82612941565b6129888683612941565b95508019841693508086168417925050509392505050565b6000819050919050565b60006129c56129c06129bb84611a62565b6129a0565b611a62565b9050919050565b6000819050919050565b6129df836129aa565b6129f36129eb826129cc565b84845461294e565b825550505050565b600090565b612a086129fb565b612a138184846129d6565b505050565b5b81811015612a3757612a2c600082612a00565b600181019050612a19565b5050565b601f821115612a7c57612a4d8161291c565b612a5684612931565b81016020851015612a65578190505b612a79612a7185612931565b830182612a18565b50505b505050565b600082821c905092915050565b6000612a9f60001984600802612a81565b1980831691505092915050565b6000612ab88383612a8e565b9150826002028217905092915050565b612ad1826119a7565b67ffffffffffffffff811115612aea57612ae9611cad565b5b612af48254611fb4565b612aff828285612a3b565b600060209050601f831160018114612b325760008415612b20578287015190505b612b2a8582612aac565b865550612b92565b601f198416612b408661291c565b60005b82811015612b6857848901518255600182019150602085019450602081019050612b43565b86831015612b855784890151612b81601f891682612a8e565b8355505b6001600288020188555050505b505050505050565b600081519050919050565b600082825260208201905092915050565b6000612bc182612b9a565b612bcb8185612ba5565b9350612bdb8185602086016119c3565b612be4816119f6565b840191505092915050565b6000608082019050612c046000830187611af7565b612c116020830186611af7565b612c1e6040830185611c0d565b8181036060830152612c308184612bb6565b905095945050505050565b600081519050612c4a81611918565b92915050565b600060208284031215612c6657612c656118e2565b5b6000612c7484828501612c3b565b91505092915050565b7f4e487b7100000000000000000000000000000000000000000000000000000000600052601260045260246000fd5b6000612cb782611a62565b9150612cc283611a62565b925082612cd257612cd1612c7d565b5b828204905092915050565b6000612ce882611a62565b9150612cf383611a62565b925082612d0357612d02612c7d565b5b828206905092915050565b7f4e487b7100000000000000000000000000000000000000000000000000000000600052603260045260246000fd5b7f4552433732313a206d696e7420746f20746865207a65726f2061646472657373600082015250565b6000612d736020836119b2565b9150612d7e82612d3d565b602082019050919050565b60006020820190508181036000830152612da281612d66565b9050919050565b7f4552433732313a20746f6b656e20616c7265616479206d696e74656400000000600082015250565b6000612ddf601c836119b2565b9150612dea82612da9565b602082019050919050565b60006020820190508181036000830152612e0e81612dd2565b905091905056fea26469706673582212209cf4a6f53023f15a25970a0e268d43d10e4ee551204aba0c74b027fb1c76c06764736f6c634300080f0033",
  "immutableReferences": {},
  "source": "// SPDX-License-Identifier: MIT\r\npragma solidity ^0.8.13;\r\n\r\nimport \"@openzeppelin/contracts/token/ERC721/ERC721.sol\";\r\nimport \"@openzeppelin/contracts/token/ERC721/extensions/ERC721URIStorage.sol\";\r\nimport \"@openzeppelin/contracts/utils/Counters.sol\";\r\n\r\n\r\ncontract NFT is ERC721URIStorage {\r\n    //using Counters for Counters.Counter;\r\n    //Counters.Counter public _tokenIds;\r\n    uint256 public _tokenIds = 0;\r\n    address marketplaceContract;\r\n\r\n    event NFTMinted(uint256 tokenId);\r\n\r\n    constructor(address _marketplaceContract) ERC721(\"Dapp NFT\", \"DNFT\"){\r\n        marketplaceContract = _marketplaceContract;\r\n    }\r\n\r\n    //_tokenURI points to the JSON metadata on IPFS that stores the NFT's metadata\r\n    function mint(string memory _tokenURI) public {\r\n        //_tokenIds.increment();\r\n        _tokenIds++;\r\n        uint256 newTokenId = _tokenIds;\r\n\r\n        //Mint the NFT with tokenId newTokenId to the address who called createToken\r\n        _safeMint(msg.sender, newTokenId);\r\n        //Map the tokenId to the tokenURI (which is an IPFS URL with the NFT metadata)\r\n        _setTokenURI(newTokenId, _tokenURI);\r\n\r\n        //When the nftContract executes the setApprovalForAll(contractAddress, true),\r\n        // it allows the contractAddress (the Market contract) to operate all of the nftContract's tokens\r\n        setApprovalForAll(marketplaceContract, true);\r\n        emit NFTMinted(newTokenId);\r\n    }\r\n}",
  "sourcePath": "C:\\Users\\Federico Mioli\\Desktop\\Personale\\git projects\\NFT_Marketplace\\contracts\\NFT.sol",
  "compiler": {
    "name": "solc",
    "version": "0.8.15+commit.e14f2714.Emscripten.clang"
  },
  "schemaVersion": "3.4.8",
  "updatedAt": "2022-10-14T13:17:14.785Z",
  "networkType": "ethereum",
  "devdoc": {
    "kind": "dev",
    "methods": {
      "approve(address,uint256)": {
        "details": "See {IERC721-approve}."
      },
      "balanceOf(address)": {
        "details": "See {IERC721-balanceOf}."
      },
      "getApproved(uint256)": {
        "details": "See {IERC721-getApproved}."
      },
      "isApprovedForAll(address,address)": {
        "details": "See {IERC721-isApprovedForAll}."
      },
      "name()": {
        "details": "See {IERC721Metadata-name}."
      },
      "ownerOf(uint256)": {
        "details": "See {IERC721-ownerOf}."
      },
      "safeTransferFrom(address,address,uint256)": {
        "details": "See {IERC721-safeTransferFrom}."
      },
      "safeTransferFrom(address,address,uint256,bytes)": {
        "details": "See {IERC721-safeTransferFrom}."
      },
      "setApprovalForAll(address,bool)": {
        "details": "See {IERC721-setApprovalForAll}."
      },
      "supportsInterface(bytes4)": {
        "details": "See {IERC165-supportsInterface}."
      },
      "symbol()": {
        "details": "See {IERC721Metadata-symbol}."
      },
      "tokenURI(uint256)": {
        "details": "See {IERC721Metadata-tokenURI}."
      },
      "transferFrom(address,address,uint256)": {
        "details": "See {IERC721-transferFrom}."
      }
    },
    "version": 1
  },
  "userdoc": {
    "kind": "user",
    "methods": {},
    "version": 1
  }
}