{
  "contractName": "Marketplace",
  "abi": [
    {
      "inputs": [],
      "stateMutability": "nonpayable",
      "type": "constructor"
    },
    {
      "anonymous": false,
      "inputs": [
        {
          "indexed": false,
          "internalType": "address",
          "name": "nftContract",
          "type": "address"
        },
        {
          "indexed": false,
          "internalType": "uint256",
          "name": "tokenId",
          "type": "uint256"
        },
        {
          "indexed": false,
          "internalType": "address",
          "name": "seller",
          "type": "address"
        },
        {
          "indexed": false,
          "internalType": "address",
          "name": "owner",
          "type": "address"
        },
        {
          "indexed": false,
          "internalType": "uint256",
          "name": "price",
          "type": "uint256"
        }
      ],
      "name": "NFTListed",
      "type": "event"
    },
    {
      "anonymous": false,
      "inputs": [
        {
          "indexed": false,
          "internalType": "address",
          "name": "nftContract",
          "type": "address"
        },
        {
          "indexed": false,
          "internalType": "uint256",
          "name": "tokenId",
          "type": "uint256"
        },
        {
          "indexed": false,
          "internalType": "address",
          "name": "seller",
          "type": "address"
        },
        {
          "indexed": false,
          "internalType": "address",
          "name": "owner",
          "type": "address"
        },
        {
          "indexed": false,
          "internalType": "uint256",
          "name": "price",
          "type": "uint256"
        }
      ],
      "name": "NFTSold",
      "type": "event"
    },
    {
      "inputs": [],
      "name": "LISTING_FEE",
      "outputs": [
        {
          "internalType": "uint256",
          "name": "",
          "type": "uint256"
        }
      ],
      "stateMutability": "view",
      "type": "function"
    },
    {
      "inputs": [],
      "name": "_marketOwner",
      "outputs": [
        {
          "internalType": "address payable",
          "name": "",
          "type": "address"
        }
      ],
      "stateMutability": "view",
      "type": "function"
    },
    {
      "inputs": [
        {
          "internalType": "address",
          "name": "_nftContract",
          "type": "address"
        },
        {
          "internalType": "uint256",
          "name": "_tokenId",
          "type": "uint256"
        },
        {
          "internalType": "uint256",
          "name": "_price",
          "type": "uint256"
        }
      ],
      "name": "listNft",
      "outputs": [],
      "stateMutability": "payable",
      "type": "function"
    },
    {
      "inputs": [
        {
          "internalType": "address",
          "name": "_nftContract",
          "type": "address"
        },
        {
          "internalType": "uint256",
          "name": "_tokenId",
          "type": "uint256"
        }
      ],
      "name": "buyNft",
      "outputs": [],
      "stateMutability": "payable",
      "type": "function"
    },
    {
      "inputs": [
        {
          "internalType": "address",
          "name": "_nftContract",
          "type": "address"
        },
        {
          "internalType": "uint256",
          "name": "_tokenId",
          "type": "uint256"
        },
        {
          "internalType": "uint256",
          "name": "_price",
          "type": "uint256"
        }
      ],
      "name": "resellNft",
      "outputs": [],
      "stateMutability": "payable",
      "type": "function"
    },
    {
      "inputs": [],
      "name": "getListingFee",
      "outputs": [
        {
          "internalType": "uint256",
          "name": "",
          "type": "uint256"
        }
      ],
      "stateMutability": "pure",
      "type": "function"
    },
    {
      "inputs": [],
      "name": "getListedNfts",
      "outputs": [
        {
          "components": [
            {
              "internalType": "address",
              "name": "nftContract",
              "type": "address"
            },
            {
              "internalType": "uint256",
              "name": "tokenId",
              "type": "uint256"
            },
            {
              "internalType": "address payable",
              "name": "seller",
              "type": "address"
            },
            {
              "internalType": "address payable",
              "name": "owner",
              "type": "address"
            },
            {
              "internalType": "uint256",
              "name": "price",
              "type": "uint256"
            },
            {
              "internalType": "bool",
              "name": "listed",
              "type": "bool"
            }
          ],
          "internalType": "struct Marketplace.NFT[]",
          "name": "",
          "type": "tuple[]"
        }
      ],
      "stateMutability": "view",
      "type": "function"
    },
    {
      "inputs": [],
      "name": "getMyNfts",
      "outputs": [
        {
          "components": [
            {
              "internalType": "address",
              "name": "nftContract",
              "type": "address"
            },
            {
              "internalType": "uint256",
              "name": "tokenId",
              "type": "uint256"
            },
            {
              "internalType": "address payable",
              "name": "seller",
              "type": "address"
            },
            {
              "internalType": "address payable",
              "name": "owner",
              "type": "address"
            },
            {
              "internalType": "uint256",
              "name": "price",
              "type": "uint256"
            },
            {
              "internalType": "bool",
              "name": "listed",
              "type": "bool"
            }
          ],
          "internalType": "struct Marketplace.NFT[]",
          "name": "",
          "type": "tuple[]"
        }
      ],
      "stateMutability": "view",
      "type": "function"
    },
    {
      "inputs": [],
      "name": "getMyListedNfts",
      "outputs": [
        {
          "components": [
            {
              "internalType": "address",
              "name": "nftContract",
              "type": "address"
            },
            {
              "internalType": "uint256",
              "name": "tokenId",
              "type": "uint256"
            },
            {
              "internalType": "address payable",
              "name": "seller",
              "type": "address"
            },
            {
              "internalType": "address payable",
              "name": "owner",
              "type": "address"
            },
            {
              "internalType": "uint256",
              "name": "price",
              "type": "uint256"
            },
            {
              "internalType": "bool",
              "name": "listed",
              "type": "bool"
            }
          ],
          "internalType": "struct Marketplace.NFT[]",
          "name": "",
          "type": "tuple[]"
        }
      ],
      "stateMutability": "view",
      "type": "function"
    }
  ],
  "bytecode": "0x60c0604052655af3107a400060809081525034801561001d57600080fd5b5060016000819055503373ffffffffffffffffffffffffffffffffffffffff1660a08173ffffffffffffffffffffffffffffffffffffffff168152505060805160a051611f7f6100a260003960008181610b5a0152610dba0152600081816108bb0152818161096f01528181610df40152818161118b01526112410152611f7f6000f3fe6080604052600436106100865760003560e01c80634c2304fc116100595780634c2304fc146101285780634ddf4f8f146101535780638d6cb3fb1461016f578063b8fe6abe1461019a578063c922b17c146101c557610086565b8063047b07bf1461008b5780631f4cc4db146100b65780632b86ae38146100e157806334f5b6241461010c575b600080fd5b34801561009757600080fd5b506100a06101e1565b6040516100ad91906117b1565b60405180910390f35b3480156100c257600080fd5b506100cb610514565b6040516100d891906117b1565b60405180910390f35b3480156100ed57600080fd5b506100f66108b9565b60405161010391906117e2565b60405180910390f35b6101266004803603810190610121919061185a565b6108dd565b005b34801561013457600080fd5b5061013d610b58565b60405161014a91906118bc565b60405180910390f35b61016d600480360381019061016891906118d7565b610b7c565b005b34801561017b57600080fd5b50610184610f1f565b60405161019191906117b1565b60405180910390f35b3480156101a657600080fd5b506101af611187565b6040516101bc91906117e2565b60405180910390f35b6101df60048036038101906101da919061185a565b6111af565b005b606060006101ef60026114f7565b90506000805b82811015610294573373ffffffffffffffffffffffffffffffffffffffff16600360006001846102259190611946565b815260200190815260200160002060030160009054906101000a900473ffffffffffffffffffffffffffffffffffffffff1673ffffffffffffffffffffffffffffffffffffffff160361028157818061027d9061199c565b9250505b808061028c9061199c565b9150506101f5565b5060008167ffffffffffffffff8111156102b1576102b06119e4565b5b6040519080825280602002602001820160405280156102ea57816020015b6102d7611577565b8152602001906001900390816102cf5790505b5090506000805b84811015610509573373ffffffffffffffffffffffffffffffffffffffff16600360006001846103219190611946565b815260200190815260200160002060030160009054906101000a900473ffffffffffffffffffffffffffffffffffffffff1673ffffffffffffffffffffffffffffffffffffffff16036104f6576003600060018361037f9190611946565b81526020019081526020016000206040518060c00160405290816000820160009054906101000a900473ffffffffffffffffffffffffffffffffffffffff1673ffffffffffffffffffffffffffffffffffffffff1673ffffffffffffffffffffffffffffffffffffffff168152602001600182015481526020016002820160009054906101000a900473ffffffffffffffffffffffffffffffffffffffff1673ffffffffffffffffffffffffffffffffffffffff1673ffffffffffffffffffffffffffffffffffffffff1681526020016003820160009054906101000a900473ffffffffffffffffffffffffffffffffffffffff1673ffffffffffffffffffffffffffffffffffffffff1673ffffffffffffffffffffffffffffffffffffffff168152602001600482015481526020016005820160009054906101000a900460ff1615151515815250508383815181106104dc576104db611a13565b5b602002602001018190525081806104f29061199c565b9250505b80806105019061199c565b9150506102f1565b508194505050505090565b6060600061052260026114f7565b90506000805b82811015610600573373ffffffffffffffffffffffffffffffffffffffff16600360006001846105589190611946565b815260200190815260200160002060020160009054906101000a900473ffffffffffffffffffffffffffffffffffffffff1673ffffffffffffffffffffffffffffffffffffffff161480156105d95750600360006001836105b99190611946565b815260200190815260200160002060050160009054906101000a900460ff165b156105ed5781806105e99061199c565b9250505b80806105f89061199c565b915050610528565b5060008167ffffffffffffffff81111561061d5761061c6119e4565b5b60405190808252806020026020018201604052801561065657816020015b610643611577565b81526020019060019003908161063b5790505b5090506000805b848110156108ae573373ffffffffffffffffffffffffffffffffffffffff166003600060018461068d9190611946565b815260200190815260200160002060020160009054906101000a900473ffffffffffffffffffffffffffffffffffffffff1673ffffffffffffffffffffffffffffffffffffffff1614801561070e5750600360006001836106ee9190611946565b815260200190815260200160002060050160009054906101000a900460ff165b1561089b57600360006001836107249190611946565b81526020019081526020016000206040518060c00160405290816000820160009054906101000a900473ffffffffffffffffffffffffffffffffffffffff1673ffffffffffffffffffffffffffffffffffffffff1673ffffffffffffffffffffffffffffffffffffffff168152602001600182015481526020016002820160009054906101000a900473ffffffffffffffffffffffffffffffffffffffff1673ffffffffffffffffffffffffffffffffffffffff1673ffffffffffffffffffffffffffffffffffffffff1681526020016003820160009054906101000a900473ffffffffffffffffffffffffffffffffffffffff1673ffffffffffffffffffffffffffffffffffffffff1673ffffffffffffffffffffffffffffffffffffffff168152602001600482015481526020016005820160009054906101000a900460ff16151515158152505083838151811061088157610880611a13565b5b602002602001018190525081806108979061199c565b9250505b80806108a69061199c565b91505061065d565b508194505050505090565b7f000000000000000000000000000000000000000000000000000000000000000081565b600260005403610922576040517f08c379a000000000000000000000000000000000000000000000000000000000815260040161091990611a9f565b60405180910390fd5b60026000819055506000811161096d576040517f08c379a000000000000000000000000000000000000000000000000000000000815260040161096490611b0b565b60405180910390fd5b7f000000000000000000000000000000000000000000000000000000000000000034146109cf576040517f08c379a00000000000000000000000000000000000000000000000000000000081526004016109c690611b77565b60405180910390fd5b8273ffffffffffffffffffffffffffffffffffffffff166323b872dd3330856040518463ffffffff1660e01b8152600401610a0c93929190611ba6565b600060405180830381600087803b158015610a2657600080fd5b505af1158015610a3a573d6000803e3d6000fd5b505050506000600360008481526020019081526020016000209050338160020160006101000a81548173ffffffffffffffffffffffffffffffffffffffff021916908373ffffffffffffffffffffffffffffffffffffffff160217905550308160030160006101000a81548173ffffffffffffffffffffffffffffffffffffffff021916908373ffffffffffffffffffffffffffffffffffffffff16021790555060018160050160006101000a81548160ff021916908315150217905550818160040181905550610b0b6001611505565b7fa0c6c0d02d86fdacecbaa5fdf5894bab204e31a778250474108540733a9b8d198484333086604051610b42959493929190611bdd565b60405180910390a1506001600081905550505050565b7f000000000000000000000000000000000000000000000000000000000000000081565b600260005403610bc1576040517f08c379a0000000000000000000000000000000000000000000000000000000008152600401610bb890611a9f565b60405180910390fd5b600260008190555060006003600083815260200190815260200160002090506000610bec60026114f7565b9050600083118015610bfe5750808311155b610c3d576040517f08c379a0000000000000000000000000000000000000000000000000000000008152600401610c3490611c7c565b60405180910390fd5b8160050160009054906101000a900460ff16610c8e576040517f08c379a0000000000000000000000000000000000000000000000000000000008152600401610c8590611d0e565b60405180910390fd5b8160040154341015610cd5576040517f08c379a0000000000000000000000000000000000000000000000000000000008152600401610ccc90611da0565b60405180910390fd5b60003390508260020160009054906101000a900473ffffffffffffffffffffffffffffffffffffffff1673ffffffffffffffffffffffffffffffffffffffff166108fc349081150290604051600060405180830381858888f19350505050158015610d44573d6000803e3d6000fd5b508473ffffffffffffffffffffffffffffffffffffffff166323b872dd308386600101546040518463ffffffff1660e01b8152600401610d8693929190611e1f565b600060405180830381600087803b158015610da057600080fd5b505af1158015610db4573d6000803e3d6000fd5b505050507f000000000000000000000000000000000000000000000000000000000000000073ffffffffffffffffffffffffffffffffffffffff166108fc7f00000000000000000000000000000000000000000000000000000000000000009081150290604051600060405180830381858888f19350505050158015610e3e573d6000803e3d6000fd5b50808360030160006101000a81548173ffffffffffffffffffffffffffffffffffffffff021916908373ffffffffffffffffffffffffffffffffffffffff16021790555060008360050160006101000a81548160ff021916908315150217905550610ea96001611561565b7f16f1dbd97e6bf646d429ed186cce832f1f7fd9907814293b83181e9970ab7bd28584600101548560020160009054906101000a900473ffffffffffffffffffffffffffffffffffffffff168434604051610f08959493929190611e56565b60405180910390a150505060016000819055505050565b60606000610f2d60026114f7565b90506000610f3b60016114f7565b82610f469190611ea9565b905060008167ffffffffffffffff811115610f6457610f636119e4565b5b604051908082528060200260200182016040528015610f9d57816020015b610f8a611577565b815260200190600190039081610f825790505b5090506000805b8481101561117c5760036000600183610fbd9190611946565b815260200190815260200160002060050160009054906101000a900460ff16156111695760036000600183610ff29190611946565b81526020019081526020016000206040518060c00160405290816000820160009054906101000a900473ffffffffffffffffffffffffffffffffffffffff1673ffffffffffffffffffffffffffffffffffffffff1673ffffffffffffffffffffffffffffffffffffffff168152602001600182015481526020016002820160009054906101000a900473ffffffffffffffffffffffffffffffffffffffff1673ffffffffffffffffffffffffffffffffffffffff1673ffffffffffffffffffffffffffffffffffffffff1681526020016003820160009054906101000a900473ffffffffffffffffffffffffffffffffffffffff1673ffffffffffffffffffffffffffffffffffffffff1673ffffffffffffffffffffffffffffffffffffffff168152602001600482015481526020016005820160009054906101000a900460ff16151515158152505083838151811061114f5761114e611a13565b5b602002602001018190525081806111659061199c565b9250505b80806111749061199c565b915050610fa4565b508194505050505090565b60007f0000000000000000000000000000000000000000000000000000000000000000905090565b6002600054036111f4576040517f08c379a00000000000000000000000000000000000000000000000000000000081526004016111eb90611a9f565b60405180910390fd5b60026000819055506000811161123f576040517f08c379a000000000000000000000000000000000000000000000000000000000815260040161123690611b0b565b60405180910390fd5b7f000000000000000000000000000000000000000000000000000000000000000034146112a1576040517f08c379a000000000000000000000000000000000000000000000000000000000815260040161129890611b77565b60405180910390fd5b8273ffffffffffffffffffffffffffffffffffffffff166323b872dd3330856040518463ffffffff1660e01b81526004016112de93929190611ba6565b600060405180830381600087803b1580156112f857600080fd5b505af115801561130c573d6000803e3d6000fd5b5050505061131a6002611561565b6040518060c001604052808473ffffffffffffffffffffffffffffffffffffffff1681526020018381526020013373ffffffffffffffffffffffffffffffffffffffff1681526020013073ffffffffffffffffffffffffffffffffffffffff168152602001828152602001600115158152506003600084815260200190815260200160002060008201518160000160006101000a81548173ffffffffffffffffffffffffffffffffffffffff021916908373ffffffffffffffffffffffffffffffffffffffff1602179055506020820151816001015560408201518160020160006101000a81548173ffffffffffffffffffffffffffffffffffffffff021916908373ffffffffffffffffffffffffffffffffffffffff16021790555060608201518160030160006101000a81548173ffffffffffffffffffffffffffffffffffffffff021916908373ffffffffffffffffffffffffffffffffffffffff1602179055506080820151816004015560a08201518160050160006101000a81548160ff0219169083151502179055509050507fa0c6c0d02d86fdacecbaa5fdf5894bab204e31a778250474108540733a9b8d1983833330856040516114e2959493929190611bdd565b60405180910390a16001600081905550505050565b600081600001549050919050565b60008160000154905060008111611551576040517f08c379a000000000000000000000000000000000000000000000000000000000815260040161154890611f29565b60405180910390fd5b6001810382600001819055505050565b6001816000016000828254019250508190555050565b6040518060c00160405280600073ffffffffffffffffffffffffffffffffffffffff16815260200160008152602001600073ffffffffffffffffffffffffffffffffffffffff168152602001600073ffffffffffffffffffffffffffffffffffffffff168152602001600081526020016000151581525090565b600081519050919050565b600082825260208201905092915050565b6000819050602082019050919050565b600073ffffffffffffffffffffffffffffffffffffffff82169050919050565b60006116488261161d565b9050919050565b6116588161163d565b82525050565b6000819050919050565b6116718161165e565b82525050565b60006116828261161d565b9050919050565b61169281611677565b82525050565b60008115159050919050565b6116ad81611698565b82525050565b60c0820160008201516116c9600085018261164f565b5060208201516116dc6020850182611668565b5060408201516116ef6040850182611689565b5060608201516117026060850182611689565b5060808201516117156080850182611668565b5060a082015161172860a08501826116a4565b50505050565b600061173a83836116b3565b60c08301905092915050565b6000602082019050919050565b600061175e826115f1565b61176881856115fc565b93506117738361160d565b8060005b838110156117a457815161178b888261172e565b975061179683611746565b925050600181019050611777565b5085935050505092915050565b600060208201905081810360008301526117cb8184611753565b905092915050565b6117dc8161165e565b82525050565b60006020820190506117f760008301846117d3565b92915050565b600080fd5b61180b8161163d565b811461181657600080fd5b50565b60008135905061182881611802565b92915050565b6118378161165e565b811461184257600080fd5b50565b6000813590506118548161182e565b92915050565b600080600060608486031215611873576118726117fd565b5b600061188186828701611819565b935050602061189286828701611845565b92505060406118a386828701611845565b9150509250925092565b6118b681611677565b82525050565b60006020820190506118d160008301846118ad565b92915050565b600080604083850312156118ee576118ed6117fd565b5b60006118fc85828601611819565b925050602061190d85828601611845565b9150509250929050565b7f4e487b7100000000000000000000000000000000000000000000000000000000600052601160045260246000fd5b60006119518261165e565b915061195c8361165e565b9250827fffffffffffffffffffffffffffffffffffffffffffffffffffffffffffffffff0382111561199157611990611917565b5b828201905092915050565b60006119a78261165e565b91507fffffffffffffffffffffffffffffffffffffffffffffffffffffffffffffffff82036119d9576119d8611917565b5b600182019050919050565b7f4e487b7100000000000000000000000000000000000000000000000000000000600052604160045260246000fd5b7f4e487b7100000000000000000000000000000000000000000000000000000000600052603260045260246000fd5b600082825260208201905092915050565b7f5265656e7472616e637947756172643a207265656e7472616e742063616c6c00600082015250565b6000611a89601f83611a42565b9150611a9482611a53565b602082019050919050565b60006020820190508181036000830152611ab881611a7c565b9050919050565b7f5072696365206d757374206265206174206c6561737420312077656900000000600082015250565b6000611af5601c83611a42565b9150611b0082611abf565b602082019050919050565b60006020820190508181036000830152611b2481611ae8565b9050919050565b7f4e6f7420656e6f75676820657468657220666f72206c697374696e6720666565600082015250565b6000611b61602083611a42565b9150611b6c82611b2b565b602082019050919050565b60006020820190508181036000830152611b9081611b54565b9050919050565b611ba08161163d565b82525050565b6000606082019050611bbb6000830186611b97565b611bc86020830185611b97565b611bd560408301846117d3565b949350505050565b600060a082019050611bf26000830188611b97565b611bff60208301876117d3565b611c0c6040830186611b97565b611c196060830185611b97565b611c2660808301846117d3565b9695505050505050565b7f4e4654206974656d20646f65736e277420657869737400000000000000000000600082015250565b6000611c66601683611a42565b9150611c7182611c30565b602082019050919050565b60006020820190508181036000830152611c9581611c59565b9050919050565b7f4e4654206974656d206973206e6f74206c6973746564206f6e20746865206d6160008201527f726b6574706c6163650000000000000000000000000000000000000000000000602082015250565b6000611cf8602983611a42565b9150611d0382611c9c565b604082019050919050565b60006020820190508181036000830152611d2781611ceb565b9050919050565b7f4e6f7420656e6f75676820657468657220746f20636f7665722061736b696e6760008201527f2070726963650000000000000000000000000000000000000000000000000000602082015250565b6000611d8a602683611a42565b9150611d9582611d2e565b604082019050919050565b60006020820190508181036000830152611db981611d7d565b9050919050565b6000819050919050565b6000611de5611de0611ddb8461161d565b611dc0565b61161d565b9050919050565b6000611df782611dca565b9050919050565b6000611e0982611dec565b9050919050565b611e1981611dfe565b82525050565b6000606082019050611e346000830186611b97565b611e416020830185611e10565b611e4e60408301846117d3565b949350505050565b600060a082019050611e6b6000830188611b97565b611e7860208301876117d3565b611e856040830186611e10565b611e926060830185611e10565b611e9f60808301846117d3565b9695505050505050565b6000611eb48261165e565b9150611ebf8361165e565b925082821015611ed257611ed1611917565b5b828203905092915050565b7f436f756e7465723a2064656372656d656e74206f766572666c6f770000000000600082015250565b6000611f13601b83611a42565b9150611f1e82611edd565b602082019050919050565b60006020820190508181036000830152611f4281611f06565b905091905056fea26469706673582212203fc36b0c820f2d73432f07a7ab41f6509a830f84956b0b8d3921fe72157c0e0a64736f6c634300080f0033",
  "immutableReferences": {
    "1844": [
      {
        "length": 32,
        "start": 2235
      },
      {
        "length": 32,
        "start": 2415
      },
      {
        "length": 32,
        "start": 3572
      },
      {
        "length": 32,
        "start": 4491
      },
      {
        "length": 32,
        "start": 4673
      }
    ],
    "1846": [
      {
        "length": 32,
        "start": 2906
      },
      {
        "length": 32,
        "start": 3514
      }
    ]
  },
  "source": "// SPDX-License-Identifier: MIT\r\npragma solidity ^0.8.4;\r\n\r\nimport \"@openzeppelin/contracts/utils/Counters.sol\";\r\nimport \"@openzeppelin/contracts/token/ERC721/ERC721.sol\";\r\nimport \"@openzeppelin/contracts/security/ReentrancyGuard.sol\";\r\n\r\ncontract Marketplace is ReentrancyGuard{\r\n    \r\n    using Counters for Counters.Counter;\r\n    Counters.Counter private _nftsSold;\r\n    Counters.Counter private _nftCount;\r\n    uint256 public immutable LISTING_FEE = 100000000000000 wei; // 0.0001 ethers\r\n    address payable public immutable _marketOwner;\r\n    \r\n    mapping(uint256 => NFT) private _idToNFT;\r\n\r\n    struct NFT{\r\n        address nftContract;\r\n        uint256 tokenId;\r\n        address payable seller;\r\n        address payable owner;\r\n        uint256 price;\r\n        bool listed;\r\n    }\r\n\r\n    event NFTListed(address nftContract, uint256 tokenId, address seller, address owner, uint256 price);\r\n    event NFTSold(address nftContract, uint256 tokenId, address seller, address owner, uint256 price);\r\n\r\n    constructor(/*uint _LISTING_FEE*/){\r\n        _marketOwner = payable(msg.sender);\r\n        //LISTING_FEE = _LISTING_FEE;\r\n    }\r\n\r\n    //list the NFT on the marketplace\r\n    function listNft(address _nftContract, uint256 _tokenId, uint256 _price) public payable nonReentrant{\r\n        require(_price > 0, \"Price must be at least 1 wei\");\r\n        require(msg.value == LISTING_FEE, \"Not enough ether for listing fee\");\r\n\r\n        IERC721(_nftContract).transferFrom(msg.sender, address(this), _tokenId);\r\n\r\n        _nftCount.increment();\r\n\r\n        _idToNFT[_tokenId] = NFT(\r\n            _nftContract,\r\n            _tokenId,\r\n            payable(msg.sender),\r\n            payable(address(this)),\r\n            _price,\r\n            true\r\n        );\r\n\r\n        emit NFTListed(_nftContract, _tokenId, msg.sender, address(this), _price);\r\n    }\r\n\r\n\r\n    //Buy an NFT\r\n    function buyNft(address _nftContract, uint256 _tokenId) public payable nonReentrant{\r\n        NFT storage nft = _idToNFT[_tokenId];\r\n        uint256 nftCount = _nftCount.current();\r\n        require(_tokenId > 0 && _tokenId <= nftCount, \"NFT item doesn't exist\");\r\n        require(nft.listed, \"NFT item is not listed on the marketplace\");\r\n        require(msg.value >= nft.price, \"Not enough ether to cover asking price\");\r\n\r\n        address payable buyer = payable(msg.sender);\r\n        payable(nft.seller).transfer(msg.value);\r\n        IERC721(_nftContract).transferFrom(address(this), buyer, nft.tokenId);\r\n        _marketOwner.transfer(LISTING_FEE);\r\n        nft.owner = buyer;\r\n        nft.listed = false;\r\n\r\n        _nftsSold.increment();\r\n        emit NFTSold(_nftContract, nft.tokenId, nft.seller, buyer, msg.value);\r\n    }\r\n\r\n    //Resell an NFT purchased from the marketplace\r\n    function resellNft(address _nftContract, uint256 _tokenId, uint256 _price) public payable nonReentrant{\r\n        require(_price > 0, \"Price must be at least 1 wei\");\r\n        require(msg.value == LISTING_FEE, \"Not enough ether for listing fee\");\r\n\r\n        IERC721(_nftContract).transferFrom(msg.sender, address(this), _tokenId);\r\n\r\n        NFT storage nft = _idToNFT[_tokenId];\r\n        nft.seller = payable(msg.sender);\r\n        nft.owner = payable(address(this));\r\n        nft.listed = true;\r\n        nft.price = _price;\r\n\r\n        _nftsSold.decrement();\r\n        emit NFTListed(_nftContract, _tokenId, msg.sender, address(this), _price);\r\n    }\r\n\r\n    \r\n    \r\n    //---------------------------------\r\n\r\n    \r\n    function getListingFee() public pure returns (uint256){\r\n        return LISTING_FEE;\r\n    }\r\n\r\n    function getListedNfts() public view returns (NFT[] memory){\r\n        uint256 nftCount = _nftCount.current();\r\n        uint256 unsoldNftsCount = nftCount - _nftsSold.current();\r\n\r\n        NFT[] memory nfts = new NFT[](unsoldNftsCount);\r\n        uint nftsIndex = 0;\r\n        for(uint i=0; i<nftCount; i++){\r\n            if(_idToNFT[i+1].listed){\r\n                nfts[nftsIndex] = _idToNFT[i+1];\r\n                nftsIndex++;\r\n            }\r\n        }\r\n        return nfts;\r\n    }\r\n\r\n    function getMyNfts() public view returns (NFT[] memory){\r\n        uint nftCount = _nftCount.current();\r\n        uint myNftCount = 0;\r\n        for(uint i=0; i<nftCount; i++){\r\n            if(_idToNFT[i+1].owner == msg.sender){\r\n                myNftCount++;\r\n            }\r\n        }\r\n\r\n        NFT[] memory nfts = new NFT[](myNftCount);\r\n        uint nftsIndex = 0;\r\n        for(uint i=0; i<nftCount; i++){\r\n            if(_idToNFT[i+1].owner == msg.sender){\r\n                nfts[nftsIndex] = _idToNFT[i+1];\r\n                nftsIndex++;\r\n            }\r\n        }\r\n        return nfts;\r\n    }\r\n\r\n    function getMyListedNfts() public view returns (NFT[] memory){\r\n        uint nftCount = _nftCount.current();\r\n        uint myListedNftCount = 0;\r\n        for (uint i = 0; i < nftCount; i++) {\r\n        if (_idToNFT[i + 1].seller == msg.sender && _idToNFT[i + 1].listed) {\r\n            myListedNftCount++;\r\n        }\r\n        }\r\n\r\n        NFT[] memory nfts = new NFT[](myListedNftCount);\r\n        uint nftsIndex = 0;\r\n        for (uint i = 0; i < nftCount; i++) {\r\n        if (_idToNFT[i + 1].seller == msg.sender && _idToNFT[i + 1].listed) {\r\n            nfts[nftsIndex] = _idToNFT[i + 1];\r\n            nftsIndex++;\r\n        }\r\n        }\r\n        return nfts;\r\n    }\r\n}",
  "sourcePath": "C:\\Users\\Federico Mioli\\Desktop\\Personale\\git projects\\NFT_Marketplace\\contracts\\Marketplace.sol",
  "compiler": {
    "name": "solc",
    "version": "0.8.15+commit.e14f2714.Emscripten.clang"
  },
  "schemaVersion": "3.4.8",
  "updatedAt": "2022-07-15T15:20:46.368Z",
  "devdoc": {
    "kind": "dev",
    "methods": {},
    "version": 1
  },
  "userdoc": {
    "kind": "user",
    "methods": {},
    "version": 1
  }
}