{
  "contractName": "Marketplace",
  "abi": [
    {
      "inputs": [],
      "stateMutability": "nonpayable",
      "type": "constructor"
    },
    {
      "anonymous": false,
      "inputs": [
        {
          "indexed": false,
          "internalType": "address",
          "name": "nftContract",
          "type": "address"
        },
        {
          "indexed": false,
          "internalType": "uint256",
          "name": "tokenId",
          "type": "uint256"
        },
        {
          "indexed": false,
          "internalType": "address",
          "name": "seller",
          "type": "address"
        },
        {
          "indexed": false,
          "internalType": "address",
          "name": "owner",
          "type": "address"
        },
        {
          "indexed": false,
          "internalType": "uint256",
          "name": "price",
          "type": "uint256"
        }
      ],
      "name": "NFTListed",
      "type": "event"
    },
    {
      "anonymous": false,
      "inputs": [
        {
          "indexed": false,
          "internalType": "address",
          "name": "nftContract",
          "type": "address"
        },
        {
          "indexed": false,
          "internalType": "uint256",
          "name": "tokenId",
          "type": "uint256"
        },
        {
          "indexed": false,
          "internalType": "address",
          "name": "seller",
          "type": "address"
        },
        {
          "indexed": false,
          "internalType": "address",
          "name": "owner",
          "type": "address"
        },
        {
          "indexed": false,
          "internalType": "uint256",
          "name": "price",
          "type": "uint256"
        }
      ],
      "name": "NFTSold",
      "type": "event"
    },
    {
      "inputs": [],
      "name": "LISTING_FEE",
      "outputs": [
        {
          "internalType": "uint256",
          "name": "",
          "type": "uint256"
        }
      ],
      "stateMutability": "view",
      "type": "function"
    },
    {
      "inputs": [
        {
          "internalType": "address",
          "name": "_nftContract",
          "type": "address"
        },
        {
          "internalType": "uint256",
          "name": "_tokenId",
          "type": "uint256"
        },
        {
          "internalType": "uint256",
          "name": "_price",
          "type": "uint256"
        }
      ],
      "name": "listNft",
      "outputs": [],
      "stateMutability": "payable",
      "type": "function"
    },
    {
      "inputs": [
        {
          "internalType": "address",
          "name": "_nftContract",
          "type": "address"
        },
        {
          "internalType": "uint256",
          "name": "_tokenId",
          "type": "uint256"
        }
      ],
      "name": "buyNft",
      "outputs": [],
      "stateMutability": "payable",
      "type": "function"
    },
    {
      "inputs": [
        {
          "internalType": "address",
          "name": "_nftContract",
          "type": "address"
        },
        {
          "internalType": "uint256",
          "name": "_tokenId",
          "type": "uint256"
        },
        {
          "internalType": "uint256",
          "name": "_price",
          "type": "uint256"
        }
      ],
      "name": "resellNft",
      "outputs": [],
      "stateMutability": "payable",
      "type": "function"
    },
    {
      "inputs": [],
      "name": "getListingFee",
      "outputs": [
        {
          "internalType": "uint256",
          "name": "",
          "type": "uint256"
        }
      ],
      "stateMutability": "pure",
      "type": "function"
    },
    {
      "inputs": [],
      "name": "getListedNfts",
      "outputs": [
        {
          "components": [
            {
              "internalType": "address",
              "name": "nftContract",
              "type": "address"
            },
            {
              "internalType": "uint256",
              "name": "tokenId",
              "type": "uint256"
            },
            {
              "internalType": "address payable",
              "name": "seller",
              "type": "address"
            },
            {
              "internalType": "address payable",
              "name": "owner",
              "type": "address"
            },
            {
              "internalType": "uint256",
              "name": "price",
              "type": "uint256"
            },
            {
              "internalType": "bool",
              "name": "listed",
              "type": "bool"
            }
          ],
          "internalType": "struct Marketplace.NFT[]",
          "name": "",
          "type": "tuple[]"
        }
      ],
      "stateMutability": "view",
      "type": "function"
    },
    {
      "inputs": [],
      "name": "getMyNfts",
      "outputs": [
        {
          "components": [
            {
              "internalType": "address",
              "name": "nftContract",
              "type": "address"
            },
            {
              "internalType": "uint256",
              "name": "tokenId",
              "type": "uint256"
            },
            {
              "internalType": "address payable",
              "name": "seller",
              "type": "address"
            },
            {
              "internalType": "address payable",
              "name": "owner",
              "type": "address"
            },
            {
              "internalType": "uint256",
              "name": "price",
              "type": "uint256"
            },
            {
              "internalType": "bool",
              "name": "listed",
              "type": "bool"
            }
          ],
          "internalType": "struct Marketplace.NFT[]",
          "name": "",
          "type": "tuple[]"
        }
      ],
      "stateMutability": "view",
      "type": "function"
    },
    {
      "inputs": [],
      "name": "getMyListedNfts",
      "outputs": [
        {
          "components": [
            {
              "internalType": "address",
              "name": "nftContract",
              "type": "address"
            },
            {
              "internalType": "uint256",
              "name": "tokenId",
              "type": "uint256"
            },
            {
              "internalType": "address payable",
              "name": "seller",
              "type": "address"
            },
            {
              "internalType": "address payable",
              "name": "owner",
              "type": "address"
            },
            {
              "internalType": "uint256",
              "name": "price",
              "type": "uint256"
            },
            {
              "internalType": "bool",
              "name": "listed",
              "type": "bool"
            }
          ],
          "internalType": "struct Marketplace.NFT[]",
          "name": "",
          "type": "tuple[]"
        }
      ],
      "stateMutability": "view",
      "type": "function"
    }
  ],
  "bytecode": "0x60a0604052655af3107a400060809081525034801561001d57600080fd5b50600160008190555033600360006101000a81548173ffffffffffffffffffffffffffffffffffffffff021916908373ffffffffffffffffffffffffffffffffffffffff160217905550608051611efd61009e600039600081816108850152818161093901528181610d9c0152818161113301526111e90152611efd6000f3fe60806040526004361061007b5760003560e01c80634ddf4f8f1161004e5780634ddf4f8f1461011d5780638d6cb3fb14610139578063b8fe6abe14610164578063c922b17c1461018f5761007b565b8063047b07bf146100805780631f4cc4db146100ab5780632b86ae38146100d657806334f5b62414610101575b600080fd5b34801561008c57600080fd5b506100956101ab565b6040516100a29190611759565b60405180910390f35b3480156100b757600080fd5b506100c06104de565b6040516100cd9190611759565b60405180910390f35b3480156100e257600080fd5b506100eb610883565b6040516100f8919061178a565b60405180910390f35b61011b60048036038101906101169190611802565b6108a7565b005b61013760048036038101906101329190611855565b610b22565b005b34801561014557600080fd5b5061014e610ec7565b60405161015b9190611759565b60405180910390f35b34801561017057600080fd5b5061017961112f565b604051610186919061178a565b60405180910390f35b6101a960048036038101906101a49190611802565b611157565b005b606060006101b9600261149f565b90506000805b8281101561025e573373ffffffffffffffffffffffffffffffffffffffff16600460006001846101ef91906118c4565b815260200190815260200160002060030160009054906101000a900473ffffffffffffffffffffffffffffffffffffffff1673ffffffffffffffffffffffffffffffffffffffff160361024b5781806102479061191a565b9250505b80806102569061191a565b9150506101bf565b5060008167ffffffffffffffff81111561027b5761027a611962565b5b6040519080825280602002602001820160405280156102b457816020015b6102a161151f565b8152602001906001900390816102995790505b5090506000805b848110156104d3573373ffffffffffffffffffffffffffffffffffffffff16600460006001846102eb91906118c4565b815260200190815260200160002060030160009054906101000a900473ffffffffffffffffffffffffffffffffffffffff1673ffffffffffffffffffffffffffffffffffffffff16036104c0576004600060018361034991906118c4565b81526020019081526020016000206040518060c00160405290816000820160009054906101000a900473ffffffffffffffffffffffffffffffffffffffff1673ffffffffffffffffffffffffffffffffffffffff1673ffffffffffffffffffffffffffffffffffffffff168152602001600182015481526020016002820160009054906101000a900473ffffffffffffffffffffffffffffffffffffffff1673ffffffffffffffffffffffffffffffffffffffff1673ffffffffffffffffffffffffffffffffffffffff1681526020016003820160009054906101000a900473ffffffffffffffffffffffffffffffffffffffff1673ffffffffffffffffffffffffffffffffffffffff1673ffffffffffffffffffffffffffffffffffffffff168152602001600482015481526020016005820160009054906101000a900460ff1615151515815250508383815181106104a6576104a5611991565b5b602002602001018190525081806104bc9061191a565b9250505b80806104cb9061191a565b9150506102bb565b508194505050505090565b606060006104ec600261149f565b90506000805b828110156105ca573373ffffffffffffffffffffffffffffffffffffffff166004600060018461052291906118c4565b815260200190815260200160002060020160009054906101000a900473ffffffffffffffffffffffffffffffffffffffff1673ffffffffffffffffffffffffffffffffffffffff161480156105a357506004600060018361058391906118c4565b815260200190815260200160002060050160009054906101000a900460ff165b156105b75781806105b39061191a565b9250505b80806105c29061191a565b9150506104f2565b5060008167ffffffffffffffff8111156105e7576105e6611962565b5b60405190808252806020026020018201604052801561062057816020015b61060d61151f565b8152602001906001900390816106055790505b5090506000805b84811015610878573373ffffffffffffffffffffffffffffffffffffffff166004600060018461065791906118c4565b815260200190815260200160002060020160009054906101000a900473ffffffffffffffffffffffffffffffffffffffff1673ffffffffffffffffffffffffffffffffffffffff161480156106d85750600460006001836106b891906118c4565b815260200190815260200160002060050160009054906101000a900460ff165b1561086557600460006001836106ee91906118c4565b81526020019081526020016000206040518060c00160405290816000820160009054906101000a900473ffffffffffffffffffffffffffffffffffffffff1673ffffffffffffffffffffffffffffffffffffffff1673ffffffffffffffffffffffffffffffffffffffff168152602001600182015481526020016002820160009054906101000a900473ffffffffffffffffffffffffffffffffffffffff1673ffffffffffffffffffffffffffffffffffffffff1673ffffffffffffffffffffffffffffffffffffffff1681526020016003820160009054906101000a900473ffffffffffffffffffffffffffffffffffffffff1673ffffffffffffffffffffffffffffffffffffffff1673ffffffffffffffffffffffffffffffffffffffff168152602001600482015481526020016005820160009054906101000a900460ff16151515158152505083838151811061084b5761084a611991565b5b602002602001018190525081806108619061191a565b9250505b80806108709061191a565b915050610627565b508194505050505090565b7f000000000000000000000000000000000000000000000000000000000000000081565b6002600054036108ec576040517f08c379a00000000000000000000000000000000000000000000000000000000081526004016108e390611a1d565b60405180910390fd5b600260008190555060008111610937576040517f08c379a000000000000000000000000000000000000000000000000000000000815260040161092e90611a89565b60405180910390fd5b7f00000000000000000000000000000000000000000000000000000000000000003414610999576040517f08c379a000000000000000000000000000000000000000000000000000000000815260040161099090611af5565b60405180910390fd5b8273ffffffffffffffffffffffffffffffffffffffff166323b872dd3330856040518463ffffffff1660e01b81526004016109d693929190611b24565b600060405180830381600087803b1580156109f057600080fd5b505af1158015610a04573d6000803e3d6000fd5b505050506000600460008481526020019081526020016000209050338160020160006101000a81548173ffffffffffffffffffffffffffffffffffffffff021916908373ffffffffffffffffffffffffffffffffffffffff160217905550308160030160006101000a81548173ffffffffffffffffffffffffffffffffffffffff021916908373ffffffffffffffffffffffffffffffffffffffff16021790555060018160050160006101000a81548160ff021916908315150217905550818160040181905550610ad560016114ad565b7fa0c6c0d02d86fdacecbaa5fdf5894bab204e31a778250474108540733a9b8d198484333086604051610b0c959493929190611b5b565b60405180910390a1506001600081905550505050565b600260005403610b67576040517f08c379a0000000000000000000000000000000000000000000000000000000008152600401610b5e90611a1d565b60405180910390fd5b600260008190555060006004600083815260200190815260200160002090506000610b92600261149f565b9050600083118015610ba45750808311155b610be3576040517f08c379a0000000000000000000000000000000000000000000000000000000008152600401610bda90611bfa565b60405180910390fd5b8160050160009054906101000a900460ff16610c34576040517f08c379a0000000000000000000000000000000000000000000000000000000008152600401610c2b90611c8c565b60405180910390fd5b8160040154341015610c7b576040517f08c379a0000000000000000000000000000000000000000000000000000000008152600401610c7290611d1e565b60405180910390fd5b60003390508260020160009054906101000a900473ffffffffffffffffffffffffffffffffffffffff1673ffffffffffffffffffffffffffffffffffffffff166108fc349081150290604051600060405180830381858888f19350505050158015610cea573d6000803e3d6000fd5b508473ffffffffffffffffffffffffffffffffffffffff166323b872dd308386600101546040518463ffffffff1660e01b8152600401610d2c93929190611d9d565b600060405180830381600087803b158015610d4657600080fd5b505af1158015610d5a573d6000803e3d6000fd5b50505050600360009054906101000a900473ffffffffffffffffffffffffffffffffffffffff1673ffffffffffffffffffffffffffffffffffffffff166108fc7f00000000000000000000000000000000000000000000000000000000000000009081150290604051600060405180830381858888f19350505050158015610de6573d6000803e3d6000fd5b50808360030160006101000a81548173ffffffffffffffffffffffffffffffffffffffff021916908373ffffffffffffffffffffffffffffffffffffffff16021790555060008360050160006101000a81548160ff021916908315150217905550610e516001611509565b7f16f1dbd97e6bf646d429ed186cce832f1f7fd9907814293b83181e9970ab7bd28584600101548560020160009054906101000a900473ffffffffffffffffffffffffffffffffffffffff168434604051610eb0959493929190611dd4565b60405180910390a150505060016000819055505050565b60606000610ed5600261149f565b90506000610ee3600161149f565b82610eee9190611e27565b905060008167ffffffffffffffff811115610f0c57610f0b611962565b5b604051908082528060200260200182016040528015610f4557816020015b610f3261151f565b815260200190600190039081610f2a5790505b5090506000805b848110156111245760046000600183610f6591906118c4565b815260200190815260200160002060050160009054906101000a900460ff16156111115760046000600183610f9a91906118c4565b81526020019081526020016000206040518060c00160405290816000820160009054906101000a900473ffffffffffffffffffffffffffffffffffffffff1673ffffffffffffffffffffffffffffffffffffffff1673ffffffffffffffffffffffffffffffffffffffff168152602001600182015481526020016002820160009054906101000a900473ffffffffffffffffffffffffffffffffffffffff1673ffffffffffffffffffffffffffffffffffffffff1673ffffffffffffffffffffffffffffffffffffffff1681526020016003820160009054906101000a900473ffffffffffffffffffffffffffffffffffffffff1673ffffffffffffffffffffffffffffffffffffffff1673ffffffffffffffffffffffffffffffffffffffff168152602001600482015481526020016005820160009054906101000a900460ff1615151515815250508383815181106110f7576110f6611991565b5b6020026020010181905250818061110d9061191a565b9250505b808061111c9061191a565b915050610f4c565b508194505050505090565b60007f0000000000000000000000000000000000000000000000000000000000000000905090565b60026000540361119c576040517f08c379a000000000000000000000000000000000000000000000000000000000815260040161119390611a1d565b60405180910390fd5b6002600081905550600081116111e7576040517f08c379a00000000000000000000000000000000000000000000000000000000081526004016111de90611a89565b60405180910390fd5b7f00000000000000000000000000000000000000000000000000000000000000003414611249576040517f08c379a000000000000000000000000000000000000000000000000000000000815260040161124090611af5565b60405180910390fd5b8273ffffffffffffffffffffffffffffffffffffffff166323b872dd3330856040518463ffffffff1660e01b815260040161128693929190611b24565b600060405180830381600087803b1580156112a057600080fd5b505af11580156112b4573d6000803e3d6000fd5b505050506112c26002611509565b6040518060c001604052808473ffffffffffffffffffffffffffffffffffffffff1681526020018381526020013373ffffffffffffffffffffffffffffffffffffffff1681526020013073ffffffffffffffffffffffffffffffffffffffff168152602001828152602001600115158152506004600084815260200190815260200160002060008201518160000160006101000a81548173ffffffffffffffffffffffffffffffffffffffff021916908373ffffffffffffffffffffffffffffffffffffffff1602179055506020820151816001015560408201518160020160006101000a81548173ffffffffffffffffffffffffffffffffffffffff021916908373ffffffffffffffffffffffffffffffffffffffff16021790555060608201518160030160006101000a81548173ffffffffffffffffffffffffffffffffffffffff021916908373ffffffffffffffffffffffffffffffffffffffff1602179055506080820151816004015560a08201518160050160006101000a81548160ff0219169083151502179055509050507fa0c6c0d02d86fdacecbaa5fdf5894bab204e31a778250474108540733a9b8d19838333308560405161148a959493929190611b5b565b60405180910390a16001600081905550505050565b600081600001549050919050565b600081600001549050600081116114f9576040517f08c379a00000000000000000000000000000000000000000000000000000000081526004016114f090611ea7565b60405180910390fd5b6001810382600001819055505050565b6001816000016000828254019250508190555050565b6040518060c00160405280600073ffffffffffffffffffffffffffffffffffffffff16815260200160008152602001600073ffffffffffffffffffffffffffffffffffffffff168152602001600073ffffffffffffffffffffffffffffffffffffffff168152602001600081526020016000151581525090565b600081519050919050565b600082825260208201905092915050565b6000819050602082019050919050565b600073ffffffffffffffffffffffffffffffffffffffff82169050919050565b60006115f0826115c5565b9050919050565b611600816115e5565b82525050565b6000819050919050565b61161981611606565b82525050565b600061162a826115c5565b9050919050565b61163a8161161f565b82525050565b60008115159050919050565b61165581611640565b82525050565b60c08201600082015161167160008501826115f7565b5060208201516116846020850182611610565b5060408201516116976040850182611631565b5060608201516116aa6060850182611631565b5060808201516116bd6080850182611610565b5060a08201516116d060a085018261164c565b50505050565b60006116e2838361165b565b60c08301905092915050565b6000602082019050919050565b600061170682611599565b61171081856115a4565b935061171b836115b5565b8060005b8381101561174c57815161173388826116d6565b975061173e836116ee565b92505060018101905061171f565b5085935050505092915050565b6000602082019050818103600083015261177381846116fb565b905092915050565b61178481611606565b82525050565b600060208201905061179f600083018461177b565b92915050565b600080fd5b6117b3816115e5565b81146117be57600080fd5b50565b6000813590506117d0816117aa565b92915050565b6117df81611606565b81146117ea57600080fd5b50565b6000813590506117fc816117d6565b92915050565b60008060006060848603121561181b5761181a6117a5565b5b6000611829868287016117c1565b935050602061183a868287016117ed565b925050604061184b868287016117ed565b9150509250925092565b6000806040838503121561186c5761186b6117a5565b5b600061187a858286016117c1565b925050602061188b858286016117ed565b9150509250929050565b7f4e487b7100000000000000000000000000000000000000000000000000000000600052601160045260246000fd5b60006118cf82611606565b91506118da83611606565b9250827fffffffffffffffffffffffffffffffffffffffffffffffffffffffffffffffff0382111561190f5761190e611895565b5b828201905092915050565b600061192582611606565b91507fffffffffffffffffffffffffffffffffffffffffffffffffffffffffffffffff820361195757611956611895565b5b600182019050919050565b7f4e487b7100000000000000000000000000000000000000000000000000000000600052604160045260246000fd5b7f4e487b7100000000000000000000000000000000000000000000000000000000600052603260045260246000fd5b600082825260208201905092915050565b7f5265656e7472616e637947756172643a207265656e7472616e742063616c6c00600082015250565b6000611a07601f836119c0565b9150611a12826119d1565b602082019050919050565b60006020820190508181036000830152611a36816119fa565b9050919050565b7f5072696365206d757374206265206174206c6561737420312077656900000000600082015250565b6000611a73601c836119c0565b9150611a7e82611a3d565b602082019050919050565b60006020820190508181036000830152611aa281611a66565b9050919050565b7f4e6f7420656e6f75676820657468657220666f72206c697374696e6720666565600082015250565b6000611adf6020836119c0565b9150611aea82611aa9565b602082019050919050565b60006020820190508181036000830152611b0e81611ad2565b9050919050565b611b1e816115e5565b82525050565b6000606082019050611b396000830186611b15565b611b466020830185611b15565b611b53604083018461177b565b949350505050565b600060a082019050611b706000830188611b15565b611b7d602083018761177b565b611b8a6040830186611b15565b611b976060830185611b15565b611ba4608083018461177b565b9695505050505050565b7f4e4654206974656d20646f65736e277420657869737400000000000000000000600082015250565b6000611be46016836119c0565b9150611bef82611bae565b602082019050919050565b60006020820190508181036000830152611c1381611bd7565b9050919050565b7f4e4654206974656d206973206e6f74206c6973746564206f6e20746865206d6160008201527f726b6574706c6163650000000000000000000000000000000000000000000000602082015250565b6000611c766029836119c0565b9150611c8182611c1a565b604082019050919050565b60006020820190508181036000830152611ca581611c69565b9050919050565b7f4e6f7420656e6f75676820657468657220746f20636f7665722061736b696e6760008201527f2070726963650000000000000000000000000000000000000000000000000000602082015250565b6000611d086026836119c0565b9150611d1382611cac565b604082019050919050565b60006020820190508181036000830152611d3781611cfb565b9050919050565b6000819050919050565b6000611d63611d5e611d59846115c5565b611d3e565b6115c5565b9050919050565b6000611d7582611d48565b9050919050565b6000611d8782611d6a565b9050919050565b611d9781611d7c565b82525050565b6000606082019050611db26000830186611b15565b611dbf6020830185611d8e565b611dcc604083018461177b565b949350505050565b600060a082019050611de96000830188611b15565b611df6602083018761177b565b611e036040830186611d8e565b611e106060830185611d8e565b611e1d608083018461177b565b9695505050505050565b6000611e3282611606565b9150611e3d83611606565b925082821015611e5057611e4f611895565b5b828203905092915050565b7f436f756e7465723a2064656372656d656e74206f766572666c6f770000000000600082015250565b6000611e91601b836119c0565b9150611e9c82611e5b565b602082019050919050565b60006020820190508181036000830152611ec081611e84565b905091905056fea26469706673582212206433f3e2a224db3b8a9ae8706427bce35106d658c5661a7a15c763846bb8012564736f6c634300080f0033",
  "immutableReferences": {
    "1844": [
      {
        "length": 32,
        "start": 2181
      },
      {
        "length": 32,
        "start": 2361
      },
      {
        "length": 32,
        "start": 3484
      },
      {
        "length": 32,
        "start": 4403
      },
      {
        "length": 32,
        "start": 4585
      }
    ]
  },
  "source": "// SPDX-License-Identifier: MIT\r\npragma solidity ^0.8.4;\r\n\r\nimport \"@openzeppelin/contracts/utils/Counters.sol\";\r\nimport \"@openzeppelin/contracts/token/ERC721/ERC721.sol\";\r\nimport \"@openzeppelin/contracts/security/ReentrancyGuard.sol\";\r\n\r\ncontract Marketplace is ReentrancyGuard{\r\n    \r\n    using Counters for Counters.Counter;\r\n    Counters.Counter private _nftsSold;\r\n    Counters.Counter private _nftCount;\r\n    uint256 public immutable LISTING_FEE = 100000000000000 wei; // 0.0001 ethers\r\n    address payable private _marketOwner;\r\n    \r\n    mapping(uint256 => NFT) private _idToNFT;\r\n\r\n    struct NFT{\r\n        address nftContract;\r\n        uint256 tokenId;\r\n        address payable seller;\r\n        address payable owner;\r\n        uint256 price;\r\n        bool listed;\r\n    }\r\n\r\n    event NFTListed(address nftContract, uint256 tokenId, address seller, address owner, uint256 price);\r\n    event NFTSold(address nftContract, uint256 tokenId, address seller, address owner, uint256 price);\r\n\r\n    constructor(/*uint _LISTING_FEE*/){\r\n        _marketOwner = payable(msg.sender);\r\n        //LISTING_FEE = _LISTING_FEE;\r\n    }\r\n\r\n    //list the NFT on the marketplace\r\n    function listNft(address _nftContract, uint256 _tokenId, uint256 _price) public payable nonReentrant{\r\n        require(_price > 0, \"Price must be at least 1 wei\");\r\n        require(msg.value == LISTING_FEE, \"Not enough ether for listing fee\");\r\n\r\n        IERC721(_nftContract).transferFrom(msg.sender, address(this), _tokenId);\r\n\r\n        _nftCount.increment();\r\n\r\n        _idToNFT[_tokenId] = NFT(\r\n            _nftContract,\r\n            _tokenId,\r\n            payable(msg.sender),\r\n            payable(address(this)),\r\n            _price,\r\n            true\r\n        );\r\n\r\n        emit NFTListed(_nftContract, _tokenId, msg.sender, address(this), _price);\r\n    }\r\n\r\n\r\n    //Buy an NFT\r\n    function buyNft(address _nftContract, uint256 _tokenId) public payable nonReentrant{\r\n        NFT storage nft = _idToNFT[_tokenId];\r\n        uint256 nftCount = _nftCount.current();\r\n        require(_tokenId > 0 && _tokenId <= nftCount, \"NFT item doesn't exist\");\r\n        require(nft.listed, \"NFT item is not listed on the marketplace\");\r\n        require(msg.value >= nft.price, \"Not enough ether to cover asking price\");\r\n\r\n        address payable buyer = payable(msg.sender);\r\n        payable(nft.seller).transfer(msg.value);\r\n        IERC721(_nftContract).transferFrom(address(this), buyer, nft.tokenId);\r\n        _marketOwner.transfer(LISTING_FEE);\r\n        nft.owner = buyer;\r\n        nft.listed = false;\r\n\r\n        _nftsSold.increment();\r\n        emit NFTSold(_nftContract, nft.tokenId, nft.seller, buyer, msg.value);\r\n    }\r\n\r\n    //Resell an NFT purchased from the marketplace\r\n    function resellNft(address _nftContract, uint256 _tokenId, uint256 _price) public payable nonReentrant{\r\n        require(_price > 0, \"Price must be at least 1 wei\");\r\n        require(msg.value == LISTING_FEE, \"Not enough ether for listing fee\");\r\n\r\n        IERC721(_nftContract).transferFrom(msg.sender, address(this), _tokenId);\r\n\r\n        NFT storage nft = _idToNFT[_tokenId];\r\n        nft.seller = payable(msg.sender);\r\n        nft.owner = payable(address(this));\r\n        nft.listed = true;\r\n        nft.price = _price;\r\n\r\n        _nftsSold.decrement();\r\n        emit NFTListed(_nftContract, _tokenId, msg.sender, address(this), _price);\r\n    }\r\n\r\n    \r\n    \r\n    //---------------------------------\r\n\r\n    \r\n    function getListingFee() public pure returns (uint256){\r\n        return LISTING_FEE;\r\n    }\r\n\r\n    function getListedNfts() public view returns (NFT[] memory){\r\n        uint256 nftCount = _nftCount.current();\r\n        uint256 unsoldNftsCount = nftCount - _nftsSold.current();\r\n\r\n        NFT[] memory nfts = new NFT[](unsoldNftsCount);\r\n        uint nftsIndex = 0;\r\n        for(uint i=0; i<nftCount; i++){\r\n            if(_idToNFT[i+1].listed){\r\n                nfts[nftsIndex] = _idToNFT[i+1];\r\n                nftsIndex++;\r\n            }\r\n        }\r\n        return nfts;\r\n    }\r\n\r\n    function getMyNfts() public view returns (NFT[] memory){\r\n        uint nftCount = _nftCount.current();\r\n        uint myNftCount = 0;\r\n        for(uint i=0; i<nftCount; i++){\r\n            if(_idToNFT[i+1].owner == msg.sender){\r\n                myNftCount++;\r\n            }\r\n        }\r\n\r\n        NFT[] memory nfts = new NFT[](myNftCount);\r\n        uint nftsIndex = 0;\r\n        for(uint i=0; i<nftCount; i++){\r\n            if(_idToNFT[i+1].owner == msg.sender){\r\n                nfts[nftsIndex] = _idToNFT[i+1];\r\n                nftsIndex++;\r\n            }\r\n        }\r\n        return nfts;\r\n    }\r\n\r\n    function getMyListedNfts() public view returns (NFT[] memory){\r\n        uint nftCount = _nftCount.current();\r\n        uint myListedNftCount = 0;\r\n        for (uint i = 0; i < nftCount; i++) {\r\n        if (_idToNFT[i + 1].seller == msg.sender && _idToNFT[i + 1].listed) {\r\n            myListedNftCount++;\r\n        }\r\n        }\r\n\r\n        NFT[] memory nfts = new NFT[](myListedNftCount);\r\n        uint nftsIndex = 0;\r\n        for (uint i = 0; i < nftCount; i++) {\r\n        if (_idToNFT[i + 1].seller == msg.sender && _idToNFT[i + 1].listed) {\r\n            nfts[nftsIndex] = _idToNFT[i + 1];\r\n            nftsIndex++;\r\n        }\r\n        }\r\n        return nfts;\r\n    }\r\n}",
  "sourcePath": "C:\\Users\\Federico Mioli\\Desktop\\Personale\\git projects\\NFT_Marketplace\\contracts\\Marketplace.sol",
  "compiler": {
    "name": "solc",
    "version": "0.8.15+commit.e14f2714.Emscripten.clang"
  },
  "schemaVersion": "3.4.8",
  "updatedAt": "2022-07-07T15:41:45.115Z",
  "devdoc": {
    "kind": "dev",
    "methods": {},
    "version": 1
  },
  "userdoc": {
    "kind": "user",
    "methods": {},
    "version": 1
  }
}