{
  "contractName": "Marketplace",
  "abi": [
    {
      "inputs": [
        {
          "internalType": "uint256",
          "name": "_LISTING_FEE",
          "type": "uint256"
        }
      ],
      "stateMutability": "nonpayable",
      "type": "constructor"
    },
    {
      "anonymous": false,
      "inputs": [
        {
          "indexed": false,
          "internalType": "address",
          "name": "nftContract",
          "type": "address"
        },
        {
          "indexed": false,
          "internalType": "uint256",
          "name": "tokenId",
          "type": "uint256"
        },
        {
          "indexed": false,
          "internalType": "address",
          "name": "seller",
          "type": "address"
        },
        {
          "indexed": false,
          "internalType": "address",
          "name": "owner",
          "type": "address"
        },
        {
          "indexed": false,
          "internalType": "uint256",
          "name": "price",
          "type": "uint256"
        }
      ],
      "name": "NFTListed",
      "type": "event"
    },
    {
      "anonymous": false,
      "inputs": [
        {
          "indexed": false,
          "internalType": "address",
          "name": "nftContract",
          "type": "address"
        },
        {
          "indexed": false,
          "internalType": "uint256",
          "name": "tokenId",
          "type": "uint256"
        },
        {
          "indexed": false,
          "internalType": "address",
          "name": "seller",
          "type": "address"
        },
        {
          "indexed": false,
          "internalType": "address",
          "name": "owner",
          "type": "address"
        },
        {
          "indexed": false,
          "internalType": "uint256",
          "name": "price",
          "type": "uint256"
        }
      ],
      "name": "NFTSold",
      "type": "event"
    },
    {
      "inputs": [],
      "name": "LISTING_FEE",
      "outputs": [
        {
          "internalType": "uint256",
          "name": "",
          "type": "uint256"
        }
      ],
      "stateMutability": "view",
      "type": "function"
    },
    {
      "inputs": [
        {
          "internalType": "uint256",
          "name": "",
          "type": "uint256"
        }
      ],
      "name": "_idToNFT",
      "outputs": [
        {
          "internalType": "address",
          "name": "nftContract",
          "type": "address"
        },
        {
          "internalType": "uint256",
          "name": "tokenId",
          "type": "uint256"
        },
        {
          "internalType": "address payable",
          "name": "seller",
          "type": "address"
        },
        {
          "internalType": "address payable",
          "name": "owner",
          "type": "address"
        },
        {
          "internalType": "uint256",
          "name": "price",
          "type": "uint256"
        },
        {
          "internalType": "bool",
          "name": "listed",
          "type": "bool"
        }
      ],
      "stateMutability": "view",
      "type": "function"
    },
    {
      "inputs": [],
      "name": "_marketOwner",
      "outputs": [
        {
          "internalType": "address payable",
          "name": "",
          "type": "address"
        }
      ],
      "stateMutability": "view",
      "type": "function"
    },
    {
      "inputs": [],
      "name": "_nftCount",
      "outputs": [
        {
          "internalType": "uint256",
          "name": "_value",
          "type": "uint256"
        }
      ],
      "stateMutability": "view",
      "type": "function"
    },
    {
      "inputs": [],
      "name": "_nftsSold",
      "outputs": [
        {
          "internalType": "uint256",
          "name": "_value",
          "type": "uint256"
        }
      ],
      "stateMutability": "view",
      "type": "function"
    },
    {
      "inputs": [
        {
          "internalType": "address",
          "name": "_nftContract",
          "type": "address"
        },
        {
          "internalType": "uint256",
          "name": "_tokenId",
          "type": "uint256"
        },
        {
          "internalType": "uint256",
          "name": "_price",
          "type": "uint256"
        }
      ],
      "name": "listNft",
      "outputs": [],
      "stateMutability": "payable",
      "type": "function"
    },
    {
      "inputs": [
        {
          "internalType": "address",
          "name": "_nftContract",
          "type": "address"
        },
        {
          "internalType": "uint256",
          "name": "_tokenId",
          "type": "uint256"
        }
      ],
      "name": "buyNft",
      "outputs": [],
      "stateMutability": "payable",
      "type": "function"
    },
    {
      "inputs": [
        {
          "internalType": "address",
          "name": "_nftContract",
          "type": "address"
        },
        {
          "internalType": "uint256",
          "name": "_tokenId",
          "type": "uint256"
        },
        {
          "internalType": "uint256",
          "name": "_price",
          "type": "uint256"
        }
      ],
      "name": "resellNft",
      "outputs": [],
      "stateMutability": "payable",
      "type": "function"
    },
    {
      "inputs": [],
      "name": "getListingFee",
      "outputs": [
        {
          "internalType": "uint256",
          "name": "",
          "type": "uint256"
        }
      ],
      "stateMutability": "view",
      "type": "function"
    },
    {
      "inputs": [],
      "name": "getAllNFT",
      "outputs": [
        {
          "components": [
            {
              "internalType": "address",
              "name": "nftContract",
              "type": "address"
            },
            {
              "internalType": "uint256",
              "name": "tokenId",
              "type": "uint256"
            },
            {
              "internalType": "address payable",
              "name": "seller",
              "type": "address"
            },
            {
              "internalType": "address payable",
              "name": "owner",
              "type": "address"
            },
            {
              "internalType": "uint256",
              "name": "price",
              "type": "uint256"
            },
            {
              "internalType": "bool",
              "name": "listed",
              "type": "bool"
            }
          ],
          "internalType": "struct Marketplace.NFT[]",
          "name": "",
          "type": "tuple[]"
        }
      ],
      "stateMutability": "view",
      "type": "function"
    },
    {
      "inputs": [],
      "name": "getListedNfts",
      "outputs": [
        {
          "components": [
            {
              "internalType": "address",
              "name": "nftContract",
              "type": "address"
            },
            {
              "internalType": "uint256",
              "name": "tokenId",
              "type": "uint256"
            },
            {
              "internalType": "address payable",
              "name": "seller",
              "type": "address"
            },
            {
              "internalType": "address payable",
              "name": "owner",
              "type": "address"
            },
            {
              "internalType": "uint256",
              "name": "price",
              "type": "uint256"
            },
            {
              "internalType": "bool",
              "name": "listed",
              "type": "bool"
            }
          ],
          "internalType": "struct Marketplace.NFT[]",
          "name": "",
          "type": "tuple[]"
        }
      ],
      "stateMutability": "view",
      "type": "function"
    },
    {
      "inputs": [],
      "name": "getMyNfts",
      "outputs": [
        {
          "components": [
            {
              "internalType": "address",
              "name": "nftContract",
              "type": "address"
            },
            {
              "internalType": "uint256",
              "name": "tokenId",
              "type": "uint256"
            },
            {
              "internalType": "address payable",
              "name": "seller",
              "type": "address"
            },
            {
              "internalType": "address payable",
              "name": "owner",
              "type": "address"
            },
            {
              "internalType": "uint256",
              "name": "price",
              "type": "uint256"
            },
            {
              "internalType": "bool",
              "name": "listed",
              "type": "bool"
            }
          ],
          "internalType": "struct Marketplace.NFT[]",
          "name": "",
          "type": "tuple[]"
        }
      ],
      "stateMutability": "view",
      "type": "function"
    },
    {
      "inputs": [],
      "name": "getMyListedNfts",
      "outputs": [
        {
          "components": [
            {
              "internalType": "address",
              "name": "nftContract",
              "type": "address"
            },
            {
              "internalType": "uint256",
              "name": "tokenId",
              "type": "uint256"
            },
            {
              "internalType": "address payable",
              "name": "seller",
              "type": "address"
            },
            {
              "internalType": "address payable",
              "name": "owner",
              "type": "address"
            },
            {
              "internalType": "uint256",
              "name": "price",
              "type": "uint256"
            },
            {
              "internalType": "bool",
              "name": "listed",
              "type": "bool"
            }
          ],
          "internalType": "struct Marketplace.NFT[]",
          "name": "",
          "type": "tuple[]"
        }
      ],
      "stateMutability": "view",
      "type": "function"
    }
  ],
  "bytecode": "0x60c06040523480156200001157600080fd5b506040516200255b3803806200255b8339818101604052810190620000379190620000c2565b60016000819055503373ffffffffffffffffffffffffffffffffffffffff1660a08173ffffffffffffffffffffffffffffffffffffffff1681525050806080818152505050620000f4565b600080fd5b6000819050919050565b6200009c8162000087565b8114620000a857600080fd5b50565b600081519050620000bc8162000091565b92915050565b600060208284031215620000db57620000da62000082565b5b6000620000eb84828501620000ab565b91505092915050565b60805160a05161241e6200013d60003960008181610c650152610eab0152600081816109ba01528181610a7a01528181610ee50152818161127b01526113da015261241e6000f3fe6080604052600436106100c25760003560e01c80634ddf4f8f1161007f578063b9e07df111610059578063b9e07df11461022c578063c922b17c1461026e578063d6cbb2021461028a578063f3b1633d146102b5576100c2565b80634ddf4f8f146101ba5780638d6cb3fb146101d6578063b8fe6abe14610201576100c2565b8063047b07bf146100c75780631f4cc4db146100f25780632b86ae381461011d57806331824a491461014857806334f5b624146101735780634c2304fc1461018f575b600080fd5b3480156100d357600080fd5b506100dc6102e0565b6040516100e99190611b60565b60405180910390f35b3480156100fe57600080fd5b50610107610613565b6040516101149190611b60565b60405180910390f35b34801561012957600080fd5b506101326109b8565b60405161013f9190611b91565b60405180910390f35b34801561015457600080fd5b5061015d6109dc565b60405161016a9190611b91565b60405180910390f35b61018d60048036038101906101889190611c09565b6109e8565b005b34801561019b57600080fd5b506101a4610c63565b6040516101b19190611c6b565b60405180910390f35b6101d460048036038101906101cf9190611c86565b610c87565b005b3480156101e257600080fd5b506101eb61100f565b6040516101f89190611b60565b60405180910390f35b34801561020d57600080fd5b50610216611277565b6040516102239190611b91565b60405180910390f35b34801561023857600080fd5b50610253600480360381019061024e9190611cc6565b61129f565b60405161026596959493929190611d11565b60405180910390f35b61028860048036038101906102839190611c09565b611348565b005b34801561029657600080fd5b5061029f611690565b6040516102ac9190611b91565b60405180910390f35b3480156102c157600080fd5b506102ca61169c565b6040516102d79190611b60565b60405180910390f35b606060006102ee60026118a6565b90506000805b82811015610393573373ffffffffffffffffffffffffffffffffffffffff16600360006001846103249190611da1565b815260200190815260200160002060030160009054906101000a900473ffffffffffffffffffffffffffffffffffffffff1673ffffffffffffffffffffffffffffffffffffffff160361038057818061037c90611df7565b9250505b808061038b90611df7565b9150506102f4565b5060008167ffffffffffffffff8111156103b0576103af611e3f565b5b6040519080825280602002602001820160405280156103e957816020015b6103d6611926565b8152602001906001900390816103ce5790505b5090506000805b84811015610608573373ffffffffffffffffffffffffffffffffffffffff16600360006001846104209190611da1565b815260200190815260200160002060030160009054906101000a900473ffffffffffffffffffffffffffffffffffffffff1673ffffffffffffffffffffffffffffffffffffffff16036105f5576003600060018361047e9190611da1565b81526020019081526020016000206040518060c00160405290816000820160009054906101000a900473ffffffffffffffffffffffffffffffffffffffff1673ffffffffffffffffffffffffffffffffffffffff1673ffffffffffffffffffffffffffffffffffffffff168152602001600182015481526020016002820160009054906101000a900473ffffffffffffffffffffffffffffffffffffffff1673ffffffffffffffffffffffffffffffffffffffff1673ffffffffffffffffffffffffffffffffffffffff1681526020016003820160009054906101000a900473ffffffffffffffffffffffffffffffffffffffff1673ffffffffffffffffffffffffffffffffffffffff1673ffffffffffffffffffffffffffffffffffffffff168152602001600482015481526020016005820160009054906101000a900460ff1615151515815250508383815181106105db576105da611e6e565b5b602002602001018190525081806105f190611df7565b9250505b808061060090611df7565b9150506103f0565b508194505050505090565b6060600061062160026118a6565b90506000805b828110156106ff573373ffffffffffffffffffffffffffffffffffffffff16600360006001846106579190611da1565b815260200190815260200160002060020160009054906101000a900473ffffffffffffffffffffffffffffffffffffffff1673ffffffffffffffffffffffffffffffffffffffff161480156106d85750600360006001836106b89190611da1565b815260200190815260200160002060050160009054906101000a900460ff165b156106ec5781806106e890611df7565b9250505b80806106f790611df7565b915050610627565b5060008167ffffffffffffffff81111561071c5761071b611e3f565b5b60405190808252806020026020018201604052801561075557816020015b610742611926565b81526020019060019003908161073a5790505b5090506000805b848110156109ad573373ffffffffffffffffffffffffffffffffffffffff166003600060018461078c9190611da1565b815260200190815260200160002060020160009054906101000a900473ffffffffffffffffffffffffffffffffffffffff1673ffffffffffffffffffffffffffffffffffffffff1614801561080d5750600360006001836107ed9190611da1565b815260200190815260200160002060050160009054906101000a900460ff165b1561099a57600360006001836108239190611da1565b81526020019081526020016000206040518060c00160405290816000820160009054906101000a900473ffffffffffffffffffffffffffffffffffffffff1673ffffffffffffffffffffffffffffffffffffffff1673ffffffffffffffffffffffffffffffffffffffff168152602001600182015481526020016002820160009054906101000a900473ffffffffffffffffffffffffffffffffffffffff1673ffffffffffffffffffffffffffffffffffffffff1673ffffffffffffffffffffffffffffffffffffffff1681526020016003820160009054906101000a900473ffffffffffffffffffffffffffffffffffffffff1673ffffffffffffffffffffffffffffffffffffffff1673ffffffffffffffffffffffffffffffffffffffff168152602001600482015481526020016005820160009054906101000a900460ff1615151515815250508383815181106109805761097f611e6e565b5b6020026020010181905250818061099690611df7565b9250505b80806109a590611df7565b91505061075c565b508194505050505090565b7f000000000000000000000000000000000000000000000000000000000000000081565b60018060000154905081565b600260005403610a2d576040517f08c379a0000000000000000000000000000000000000000000000000000000008152600401610a2490611efa565b60405180910390fd5b600260008190555060008111610a78576040517f08c379a0000000000000000000000000000000000000000000000000000000008152600401610a6f90611f66565b60405180910390fd5b7f00000000000000000000000000000000000000000000000000000000000000003414610ada576040517f08c379a0000000000000000000000000000000000000000000000000000000008152600401610ad190611fd2565b60405180910390fd5b8273ffffffffffffffffffffffffffffffffffffffff166323b872dd3330856040518463ffffffff1660e01b8152600401610b1793929190611ff2565b600060405180830381600087803b158015610b3157600080fd5b505af1158015610b45573d6000803e3d6000fd5b505050506000600360008481526020019081526020016000209050338160020160006101000a81548173ffffffffffffffffffffffffffffffffffffffff021916908373ffffffffffffffffffffffffffffffffffffffff160217905550308160030160006101000a81548173ffffffffffffffffffffffffffffffffffffffff021916908373ffffffffffffffffffffffffffffffffffffffff16021790555060018160050160006101000a81548160ff021916908315150217905550818160040181905550610c1660016118b4565b7fa0c6c0d02d86fdacecbaa5fdf5894bab204e31a778250474108540733a9b8d198484333086604051610c4d959493929190612088565b60405180910390a1506001600081905550505050565b7f000000000000000000000000000000000000000000000000000000000000000081565b600260005403610ccc576040517f08c379a0000000000000000000000000000000000000000000000000000000008152600401610cc390611efa565b60405180910390fd5b6002600081905550600060036000838152602001908152602001600020905060008211610d2e576040517f08c379a0000000000000000000000000000000000000000000000000000000008152600401610d2590612127565b60405180910390fd5b8060050160009054906101000a900460ff16610d7f576040517f08c379a0000000000000000000000000000000000000000000000000000000008152600401610d76906121b9565b60405180910390fd5b8060040154341015610dc6576040517f08c379a0000000000000000000000000000000000000000000000000000000008152600401610dbd9061224b565b60405180910390fd5b60003390508160020160009054906101000a900473ffffffffffffffffffffffffffffffffffffffff1673ffffffffffffffffffffffffffffffffffffffff166108fc349081150290604051600060405180830381858888f19350505050158015610e35573d6000803e3d6000fd5b508373ffffffffffffffffffffffffffffffffffffffff166323b872dd308385600101546040518463ffffffff1660e01b8152600401610e779392919061226b565b600060405180830381600087803b158015610e9157600080fd5b505af1158015610ea5573d6000803e3d6000fd5b505050507f000000000000000000000000000000000000000000000000000000000000000073ffffffffffffffffffffffffffffffffffffffff166108fc7f00000000000000000000000000000000000000000000000000000000000000009081150290604051600060405180830381858888f19350505050158015610f2f573d6000803e3d6000fd5b50808260030160006101000a81548173ffffffffffffffffffffffffffffffffffffffff021916908373ffffffffffffffffffffffffffffffffffffffff16021790555060008260050160006101000a81548160ff021916908315150217905550610f9a6001611910565b7f16f1dbd97e6bf646d429ed186cce832f1f7fd9907814293b83181e9970ab7bd28483600101548460020160009054906101000a900473ffffffffffffffffffffffffffffffffffffffff168434604051610ff99594939291906122a2565b60405180910390a1505060016000819055505050565b6060600061101d60026118a6565b9050600061102b60016118a6565b8261103691906122f5565b905060008167ffffffffffffffff81111561105457611053611e3f565b5b60405190808252806020026020018201604052801561108d57816020015b61107a611926565b8152602001906001900390816110725790505b5090506000805b8481101561126c57600360006001836110ad9190611da1565b815260200190815260200160002060050160009054906101000a900460ff161561125957600360006001836110e29190611da1565b81526020019081526020016000206040518060c00160405290816000820160009054906101000a900473ffffffffffffffffffffffffffffffffffffffff1673ffffffffffffffffffffffffffffffffffffffff1673ffffffffffffffffffffffffffffffffffffffff168152602001600182015481526020016002820160009054906101000a900473ffffffffffffffffffffffffffffffffffffffff1673ffffffffffffffffffffffffffffffffffffffff1673ffffffffffffffffffffffffffffffffffffffff1681526020016003820160009054906101000a900473ffffffffffffffffffffffffffffffffffffffff1673ffffffffffffffffffffffffffffffffffffffff1673ffffffffffffffffffffffffffffffffffffffff168152602001600482015481526020016005820160009054906101000a900460ff16151515158152505083838151811061123f5761123e611e6e565b5b6020026020010181905250818061125590611df7565b9250505b808061126490611df7565b915050611094565b508194505050505090565b60007f0000000000000000000000000000000000000000000000000000000000000000905090565b60036020528060005260406000206000915090508060000160009054906101000a900473ffffffffffffffffffffffffffffffffffffffff16908060010154908060020160009054906101000a900473ffffffffffffffffffffffffffffffffffffffff16908060030160009054906101000a900473ffffffffffffffffffffffffffffffffffffffff16908060040154908060050160009054906101000a900460ff16905086565b60026000540361138d576040517f08c379a000000000000000000000000000000000000000000000000000000000815260040161138490611efa565b60405180910390fd5b6002600081905550600081116113d8576040517f08c379a00000000000000000000000000000000000000000000000000000000081526004016113cf90611f66565b60405180910390fd5b7f0000000000000000000000000000000000000000000000000000000000000000341461143a576040517f08c379a000000000000000000000000000000000000000000000000000000000815260040161143190611fd2565b60405180910390fd5b8273ffffffffffffffffffffffffffffffffffffffff166323b872dd3330856040518463ffffffff1660e01b815260040161147793929190611ff2565b600060405180830381600087803b15801561149157600080fd5b505af11580156114a5573d6000803e3d6000fd5b505050506114b36002611910565b6040518060c001604052808473ffffffffffffffffffffffffffffffffffffffff1681526020018381526020013373ffffffffffffffffffffffffffffffffffffffff1681526020013073ffffffffffffffffffffffffffffffffffffffff168152602001828152602001600115158152506003600084815260200190815260200160002060008201518160000160006101000a81548173ffffffffffffffffffffffffffffffffffffffff021916908373ffffffffffffffffffffffffffffffffffffffff1602179055506020820151816001015560408201518160020160006101000a81548173ffffffffffffffffffffffffffffffffffffffff021916908373ffffffffffffffffffffffffffffffffffffffff16021790555060608201518160030160006101000a81548173ffffffffffffffffffffffffffffffffffffffff021916908373ffffffffffffffffffffffffffffffffffffffff1602179055506080820151816004015560a08201518160050160006101000a81548160ff0219169083151502179055509050507fa0c6c0d02d86fdacecbaa5fdf5894bab204e31a778250474108540733a9b8d19838333308560405161167b959493929190612329565b60405180910390a16001600081905550505050565b60028060000154905081565b606060006116aa60026118a6565b90506000808267ffffffffffffffff8111156116c9576116c8611e3f565b5b60405190808252806020026020018201604052801561170257816020015b6116ef611926565b8152602001906001900390816116e75790505b50905060005b8381101561189c57600360006001836117219190611da1565b81526020019081526020016000206040518060c00160405290816000820160009054906101000a900473ffffffffffffffffffffffffffffffffffffffff1673ffffffffffffffffffffffffffffffffffffffff1673ffffffffffffffffffffffffffffffffffffffff168152602001600182015481526020016002820160009054906101000a900473ffffffffffffffffffffffffffffffffffffffff1673ffffffffffffffffffffffffffffffffffffffff1673ffffffffffffffffffffffffffffffffffffffff1681526020016003820160009054906101000a900473ffffffffffffffffffffffffffffffffffffffff1673ffffffffffffffffffffffffffffffffffffffff1673ffffffffffffffffffffffffffffffffffffffff168152602001600482015481526020016005820160009054906101000a900460ff16151515158152505082848151811061187e5761187d611e6e565b5b6020026020010181905250808061189490611df7565b915050611708565b5080935050505090565b600081600001549050919050565b60008160000154905060008111611900576040517f08c379a00000000000000000000000000000000000000000000000000000000081526004016118f7906123c8565b60405180910390fd5b6001810382600001819055505050565b6001816000016000828254019250508190555050565b6040518060c00160405280600073ffffffffffffffffffffffffffffffffffffffff16815260200160008152602001600073ffffffffffffffffffffffffffffffffffffffff168152602001600073ffffffffffffffffffffffffffffffffffffffff168152602001600081526020016000151581525090565b600081519050919050565b600082825260208201905092915050565b6000819050602082019050919050565b600073ffffffffffffffffffffffffffffffffffffffff82169050919050565b60006119f7826119cc565b9050919050565b611a07816119ec565b82525050565b6000819050919050565b611a2081611a0d565b82525050565b6000611a31826119cc565b9050919050565b611a4181611a26565b82525050565b60008115159050919050565b611a5c81611a47565b82525050565b60c082016000820151611a7860008501826119fe565b506020820151611a8b6020850182611a17565b506040820151611a9e6040850182611a38565b506060820151611ab16060850182611a38565b506080820151611ac46080850182611a17565b5060a0820151611ad760a0850182611a53565b50505050565b6000611ae98383611a62565b60c08301905092915050565b6000602082019050919050565b6000611b0d826119a0565b611b1781856119ab565b9350611b22836119bc565b8060005b83811015611b53578151611b3a8882611add565b9750611b4583611af5565b925050600181019050611b26565b5085935050505092915050565b60006020820190508181036000830152611b7a8184611b02565b905092915050565b611b8b81611a0d565b82525050565b6000602082019050611ba66000830184611b82565b92915050565b600080fd5b611bba816119ec565b8114611bc557600080fd5b50565b600081359050611bd781611bb1565b92915050565b611be681611a0d565b8114611bf157600080fd5b50565b600081359050611c0381611bdd565b92915050565b600080600060608486031215611c2257611c21611bac565b5b6000611c3086828701611bc8565b9350506020611c4186828701611bf4565b9250506040611c5286828701611bf4565b9150509250925092565b611c6581611a26565b82525050565b6000602082019050611c806000830184611c5c565b92915050565b60008060408385031215611c9d57611c9c611bac565b5b6000611cab85828601611bc8565b9250506020611cbc85828601611bf4565b9150509250929050565b600060208284031215611cdc57611cdb611bac565b5b6000611cea84828501611bf4565b91505092915050565b611cfc816119ec565b82525050565b611d0b81611a47565b82525050565b600060c082019050611d266000830189611cf3565b611d336020830188611b82565b611d406040830187611c5c565b611d4d6060830186611c5c565b611d5a6080830185611b82565b611d6760a0830184611d02565b979650505050505050565b7f4e487b7100000000000000000000000000000000000000000000000000000000600052601160045260246000fd5b6000611dac82611a0d565b9150611db783611a0d565b9250827fffffffffffffffffffffffffffffffffffffffffffffffffffffffffffffffff03821115611dec57611deb611d72565b5b828201905092915050565b6000611e0282611a0d565b91507fffffffffffffffffffffffffffffffffffffffffffffffffffffffffffffffff8203611e3457611e33611d72565b5b600182019050919050565b7f4e487b7100000000000000000000000000000000000000000000000000000000600052604160045260246000fd5b7f4e487b7100000000000000000000000000000000000000000000000000000000600052603260045260246000fd5b600082825260208201905092915050565b7f5265656e7472616e637947756172643a207265656e7472616e742063616c6c00600082015250565b6000611ee4601f83611e9d565b9150611eef82611eae565b602082019050919050565b60006020820190508181036000830152611f1381611ed7565b9050919050565b7f5072696365206d757374206265206174206c6561737420312077656900000000600082015250565b6000611f50601c83611e9d565b9150611f5b82611f1a565b602082019050919050565b60006020820190508181036000830152611f7f81611f43565b9050919050565b7f4e6f7420656e6f75676820657468657220666f72206c697374696e6720666565600082015250565b6000611fbc602083611e9d565b9150611fc782611f86565b602082019050919050565b60006020820190508181036000830152611feb81611faf565b9050919050565b60006060820190506120076000830186611cf3565b6120146020830185611cf3565b6120216040830184611b82565b949350505050565b6000819050919050565b600061204e612049612044846119cc565b612029565b6119cc565b9050919050565b600061206082612033565b9050919050565b600061207282612055565b9050919050565b61208281612067565b82525050565b600060a08201905061209d6000830188611cf3565b6120aa6020830187611b82565b6120b76040830186611cf3565b6120c46060830185612079565b6120d16080830184611b82565b9695505050505050565b7f4e4654206974656d20646f65736e277420657869737400000000000000000000600082015250565b6000612111601683611e9d565b915061211c826120db565b602082019050919050565b6000602082019050818103600083015261214081612104565b9050919050565b7f4e4654206974656d206973206e6f74206c6973746564206f6e20746865206d6160008201527f726b6574706c6163650000000000000000000000000000000000000000000000602082015250565b60006121a3602983611e9d565b91506121ae82612147565b604082019050919050565b600060208201905081810360008301526121d281612196565b9050919050565b7f4e6f7420656e6f75676820657468657220746f20636f7665722061736b696e6760008201527f2070726963650000000000000000000000000000000000000000000000000000602082015250565b6000612235602683611e9d565b9150612240826121d9565b604082019050919050565b6000602082019050818103600083015261226481612228565b9050919050565b60006060820190506122806000830186611cf3565b61228d6020830185612079565b61229a6040830184611b82565b949350505050565b600060a0820190506122b76000830188611cf3565b6122c46020830187611b82565b6122d16040830186612079565b6122de6060830185612079565b6122eb6080830184611b82565b9695505050505050565b600061230082611a0d565b915061230b83611a0d565b92508282101561231e5761231d611d72565b5b828203905092915050565b600060a08201905061233e6000830188611cf3565b61234b6020830187611b82565b6123586040830186611cf3565b6123656060830185611cf3565b6123726080830184611b82565b9695505050505050565b7f436f756e7465723a2064656372656d656e74206f766572666c6f770000000000600082015250565b60006123b2601b83611e9d565b91506123bd8261237c565b602082019050919050565b600060208201905081810360008301526123e1816123a5565b905091905056fea264697066735822122029a4535b8d73a4e579f51447f9c071118cd211cc91473b320f97f5145291c24b64736f6c634300080f0033",
  "immutableReferences": {
    "1843": [
      {
        "length": 32,
        "start": 2490
      },
      {
        "length": 32,
        "start": 2682
      },
      {
        "length": 32,
        "start": 3813
      },
      {
        "length": 32,
        "start": 4731
      },
      {
        "length": 32,
        "start": 5082
      }
    ],
    "1845": [
      {
        "length": 32,
        "start": 3173
      },
      {
        "length": 32,
        "start": 3755
      }
    ]
  },
  "source": "// SPDX-License-Identifier: MIT\r\npragma solidity ^0.8.4;\r\n\r\nimport \"@openzeppelin/contracts/utils/Counters.sol\";\r\nimport \"@openzeppelin/contracts/token/ERC721/ERC721.sol\";\r\nimport \"@openzeppelin/contracts/security/ReentrancyGuard.sol\";\r\n\r\ncontract Marketplace is ReentrancyGuard{\r\n    \r\n    using Counters for Counters.Counter;\r\n    Counters.Counter public _nftsSold;\r\n    Counters.Counter public _nftCount;\r\n    uint256 public immutable LISTING_FEE;// = 100000000000000 wei; // 0.0001 ethers\r\n    address payable public immutable _marketOwner;\r\n    //address public marketContract = address(this);\r\n    \r\n    mapping(uint256 => NFT) public _idToNFT;\r\n\r\n    struct NFT{\r\n        address nftContract;\r\n        uint256 tokenId;\r\n        address payable seller;\r\n        address payable owner;\r\n        uint256 price;\r\n        bool listed;\r\n    }\r\n\r\n    event NFTListed(address nftContract, uint256 tokenId, address seller, address owner, uint256 price);\r\n    event NFTSold(address nftContract, uint256 tokenId, address seller, address owner, uint256 price);\r\n\r\n    constructor(uint _LISTING_FEE){\r\n        _marketOwner = payable(msg.sender);\r\n        LISTING_FEE = _LISTING_FEE;\r\n    }\r\n\r\n    //list the NFT on the marketplace\r\n    function listNft(address _nftContract, uint256 _tokenId, uint256 _price) public payable nonReentrant{\r\n        require(_price > 0, \"Price must be at least 1 wei\");\r\n        require(msg.value == LISTING_FEE, \"Not enough ether for listing fee\");\r\n\r\n        (IERC721(_nftContract)).transferFrom(msg.sender, address(this), _tokenId);\r\n\r\n        _nftCount.increment();\r\n\r\n        _idToNFT[_tokenId] = NFT(\r\n            _nftContract,\r\n            _tokenId,\r\n            payable(msg.sender),\r\n            payable(address(this)),\r\n            _price,\r\n            true\r\n        );\r\n\r\n        emit NFTListed(_nftContract, _tokenId, msg.sender, address(this), _price);\r\n    }\r\n\r\n\r\n    //Buy an NFT\r\n    function buyNft(address _nftContract, uint256 _tokenId) public payable nonReentrant{\r\n        NFT storage nft = _idToNFT[_tokenId];\r\n        //uint256 nftCount = _nftCount.current();\r\n        require(_tokenId > 0/* && _tokenId <= nftCount*/, \"NFT item doesn't exist\");\r\n        require(nft.listed, \"NFT item is not listed on the marketplace\");\r\n        require(msg.value >= nft.price, \"Not enough ether to cover asking price\");\r\n\r\n        address payable buyer = payable(msg.sender);\r\n        (payable(nft.seller)).transfer(msg.value);\r\n        (IERC721(_nftContract)).transferFrom(address(this), buyer, nft.tokenId);\r\n        payable(_marketOwner).transfer(LISTING_FEE);\r\n        nft.owner = buyer;\r\n        nft.listed = false;\r\n\r\n        _nftsSold.increment();\r\n        emit NFTSold(_nftContract, nft.tokenId, nft.seller, buyer, msg.value);\r\n    }\r\n\r\n    //Resell an NFT purchased from the marketplace\r\n    function resellNft(address _nftContract, uint256 _tokenId, uint256 _price) public payable nonReentrant{\r\n        require(_price > 0, \"Price must be at least 1 wei\");\r\n        require(msg.value == LISTING_FEE, \"Not enough ether for listing fee\");\r\n\r\n        (IERC721(_nftContract)).transferFrom(msg.sender, address(this), _tokenId);\r\n\r\n        NFT storage nft = _idToNFT[_tokenId];\r\n        nft.seller = payable(msg.sender);\r\n        nft.owner = payable(address(this));\r\n        nft.listed = true;\r\n        nft.price = _price;\r\n\r\n        _nftsSold.decrement();\r\n        emit NFTListed(_nftContract, _tokenId, msg.sender, payable(address(this)), _price);\r\n    }\r\n\r\n    \r\n    \r\n    //---------------------------------\r\n\r\n    \r\n    function getListingFee() public view returns (uint256){\r\n        return LISTING_FEE;\r\n    }\r\n\r\n    function getAllNFT() public view returns (NFT[] memory){\r\n        uint nftCount = _nftCount.current();\r\n        uint nftsIndex = 0;\r\n        NFT[] memory nfts = new NFT[](nftCount);\r\n        for(uint i=0; i<nftCount; i++){\r\n            nfts[nftsIndex] = _idToNFT[i+1];\r\n        }\r\n        return nfts;\r\n    }\r\n\r\n    function getListedNfts() public view returns (NFT[] memory){\r\n        uint256 nftCount = _nftCount.current();\r\n        uint256 unsoldNftsCount = nftCount - _nftsSold.current();\r\n\r\n        NFT[] memory nfts = new NFT[](unsoldNftsCount);\r\n        uint nftsIndex = 0;\r\n        for(uint i=0; i<nftCount; i++){\r\n            if(_idToNFT[i+1].listed){\r\n                nfts[nftsIndex] = _idToNFT[i+1];\r\n                nftsIndex++;\r\n            }\r\n        }\r\n        return nfts;\r\n    }\r\n\r\n    function getMyNfts() public view returns (NFT[] memory){\r\n        uint nftCount = _nftCount.current();\r\n        uint myNftCount = 0;\r\n        for(uint i=0; i<nftCount; i++){\r\n            if(_idToNFT[i+1].owner == msg.sender){\r\n                myNftCount++;\r\n            }\r\n        }\r\n\r\n        NFT[] memory nfts = new NFT[](myNftCount);\r\n        uint nftsIndex = 0;\r\n        for(uint i=0; i<nftCount; i++){\r\n            if(_idToNFT[i+1].owner == msg.sender){\r\n                nfts[nftsIndex] = _idToNFT[i+1];\r\n                nftsIndex++;\r\n            }\r\n        }\r\n        return nfts;\r\n    }\r\n\r\n    function getMyListedNfts() public view returns (NFT[] memory){\r\n        uint nftCount = _nftCount.current();\r\n        uint myListedNftCount = 0;\r\n        for (uint i = 0; i < nftCount; i++) {\r\n        if (_idToNFT[i + 1].seller == msg.sender && _idToNFT[i + 1].listed) {\r\n            myListedNftCount++;\r\n        }\r\n        }\r\n\r\n        NFT[] memory nfts = new NFT[](myListedNftCount);\r\n        uint nftsIndex = 0;\r\n        for (uint i = 0; i < nftCount; i++) {\r\n        if (_idToNFT[i + 1].seller == msg.sender && _idToNFT[i + 1].listed) {\r\n            nfts[nftsIndex] = _idToNFT[i + 1];\r\n            nftsIndex++;\r\n        }\r\n        }\r\n        return nfts;\r\n    }\r\n}",
  "sourcePath": "C:\\Users\\Federico Mioli\\Desktop\\Personale\\git projects\\NFT_Marketplace\\contracts\\Marketplace.sol",
  "compiler": {
    "name": "solc",
    "version": "0.8.15+commit.e14f2714.Emscripten.clang"
  },
  "schemaVersion": "3.4.8",
  "updatedAt": "2022-07-26T08:20:19.436Z",
  "devdoc": {
    "kind": "dev",
    "methods": {},
    "version": 1
  },
  "userdoc": {
    "kind": "user",
    "methods": {},
    "version": 1
  }
}