{
  "contractName": "NFT",
  "abi": [
    {
      "inputs": [
        {
          "internalType": "address",
          "name": "_marketplaceContract",
          "type": "address"
        }
      ],
      "stateMutability": "nonpayable",
      "type": "constructor"
    },
    {
      "anonymous": false,
      "inputs": [
        {
          "indexed": true,
          "internalType": "address",
          "name": "owner",
          "type": "address"
        },
        {
          "indexed": true,
          "internalType": "address",
          "name": "approved",
          "type": "address"
        },
        {
          "indexed": true,
          "internalType": "uint256",
          "name": "tokenId",
          "type": "uint256"
        }
      ],
      "name": "Approval",
      "type": "event"
    },
    {
      "anonymous": false,
      "inputs": [
        {
          "indexed": true,
          "internalType": "address",
          "name": "owner",
          "type": "address"
        },
        {
          "indexed": true,
          "internalType": "address",
          "name": "operator",
          "type": "address"
        },
        {
          "indexed": false,
          "internalType": "bool",
          "name": "approved",
          "type": "bool"
        }
      ],
      "name": "ApprovalForAll",
      "type": "event"
    },
    {
      "anonymous": false,
      "inputs": [
        {
          "indexed": false,
          "internalType": "uint256",
          "name": "tokenId",
          "type": "uint256"
        }
      ],
      "name": "NFTMinted",
      "type": "event"
    },
    {
      "anonymous": false,
      "inputs": [
        {
          "indexed": true,
          "internalType": "address",
          "name": "from",
          "type": "address"
        },
        {
          "indexed": true,
          "internalType": "address",
          "name": "to",
          "type": "address"
        },
        {
          "indexed": true,
          "internalType": "uint256",
          "name": "tokenId",
          "type": "uint256"
        }
      ],
      "name": "Transfer",
      "type": "event"
    },
    {
      "inputs": [],
      "name": "_tokenIds",
      "outputs": [
        {
          "internalType": "uint256",
          "name": "_value",
          "type": "uint256"
        }
      ],
      "stateMutability": "view",
      "type": "function",
      "constant": true
    },
    {
      "inputs": [
        {
          "internalType": "address",
          "name": "to",
          "type": "address"
        },
        {
          "internalType": "uint256",
          "name": "tokenId",
          "type": "uint256"
        }
      ],
      "name": "approve",
      "outputs": [],
      "stateMutability": "nonpayable",
      "type": "function"
    },
    {
      "inputs": [
        {
          "internalType": "address",
          "name": "owner",
          "type": "address"
        }
      ],
      "name": "balanceOf",
      "outputs": [
        {
          "internalType": "uint256",
          "name": "",
          "type": "uint256"
        }
      ],
      "stateMutability": "view",
      "type": "function",
      "constant": true
    },
    {
      "inputs": [
        {
          "internalType": "uint256",
          "name": "tokenId",
          "type": "uint256"
        }
      ],
      "name": "getApproved",
      "outputs": [
        {
          "internalType": "address",
          "name": "",
          "type": "address"
        }
      ],
      "stateMutability": "view",
      "type": "function",
      "constant": true
    },
    {
      "inputs": [
        {
          "internalType": "address",
          "name": "owner",
          "type": "address"
        },
        {
          "internalType": "address",
          "name": "operator",
          "type": "address"
        }
      ],
      "name": "isApprovedForAll",
      "outputs": [
        {
          "internalType": "bool",
          "name": "",
          "type": "bool"
        }
      ],
      "stateMutability": "view",
      "type": "function",
      "constant": true
    },
    {
      "inputs": [],
      "name": "name",
      "outputs": [
        {
          "internalType": "string",
          "name": "",
          "type": "string"
        }
      ],
      "stateMutability": "view",
      "type": "function",
      "constant": true
    },
    {
      "inputs": [
        {
          "internalType": "uint256",
          "name": "tokenId",
          "type": "uint256"
        }
      ],
      "name": "ownerOf",
      "outputs": [
        {
          "internalType": "address",
          "name": "",
          "type": "address"
        }
      ],
      "stateMutability": "view",
      "type": "function",
      "constant": true
    },
    {
      "inputs": [
        {
          "internalType": "address",
          "name": "from",
          "type": "address"
        },
        {
          "internalType": "address",
          "name": "to",
          "type": "address"
        },
        {
          "internalType": "uint256",
          "name": "tokenId",
          "type": "uint256"
        }
      ],
      "name": "safeTransferFrom",
      "outputs": [],
      "stateMutability": "nonpayable",
      "type": "function"
    },
    {
      "inputs": [
        {
          "internalType": "address",
          "name": "from",
          "type": "address"
        },
        {
          "internalType": "address",
          "name": "to",
          "type": "address"
        },
        {
          "internalType": "uint256",
          "name": "tokenId",
          "type": "uint256"
        },
        {
          "internalType": "bytes",
          "name": "_data",
          "type": "bytes"
        }
      ],
      "name": "safeTransferFrom",
      "outputs": [],
      "stateMutability": "nonpayable",
      "type": "function"
    },
    {
      "inputs": [
        {
          "internalType": "address",
          "name": "operator",
          "type": "address"
        },
        {
          "internalType": "bool",
          "name": "approved",
          "type": "bool"
        }
      ],
      "name": "setApprovalForAll",
      "outputs": [],
      "stateMutability": "nonpayable",
      "type": "function"
    },
    {
      "inputs": [
        {
          "internalType": "bytes4",
          "name": "interfaceId",
          "type": "bytes4"
        }
      ],
      "name": "supportsInterface",
      "outputs": [
        {
          "internalType": "bool",
          "name": "",
          "type": "bool"
        }
      ],
      "stateMutability": "view",
      "type": "function",
      "constant": true
    },
    {
      "inputs": [],
      "name": "symbol",
      "outputs": [
        {
          "internalType": "string",
          "name": "",
          "type": "string"
        }
      ],
      "stateMutability": "view",
      "type": "function",
      "constant": true
    },
    {
      "inputs": [
        {
          "internalType": "uint256",
          "name": "tokenId",
          "type": "uint256"
        }
      ],
      "name": "tokenURI",
      "outputs": [
        {
          "internalType": "string",
          "name": "",
          "type": "string"
        }
      ],
      "stateMutability": "view",
      "type": "function",
      "constant": true
    },
    {
      "inputs": [
        {
          "internalType": "address",
          "name": "from",
          "type": "address"
        },
        {
          "internalType": "address",
          "name": "to",
          "type": "address"
        },
        {
          "internalType": "uint256",
          "name": "tokenId",
          "type": "uint256"
        }
      ],
      "name": "transferFrom",
      "outputs": [],
      "stateMutability": "nonpayable",
      "type": "function"
    },
    {
      "inputs": [
        {
          "internalType": "string",
          "name": "_tokenURI",
          "type": "string"
        }
      ],
      "name": "mint",
      "outputs": [],
      "stateMutability": "nonpayable",
      "type": "function"
    }
  ],
  "bytecode": "0x60806040523480156200001157600080fd5b506040516200338c3803806200338c83398181016040528101906200003791906200017b565b6040518060400160405280600881526020017f44617070204e46540000000000000000000000000000000000000000000000008152506040518060400160405280600481526020017f444e4654000000000000000000000000000000000000000000000000000000008152508160009081620000b4919062000427565b508060019081620000c6919062000427565b50505080600860006101000a81548173ffffffffffffffffffffffffffffffffffffffff021916908373ffffffffffffffffffffffffffffffffffffffff160217905550506200050e565b600080fd5b600073ffffffffffffffffffffffffffffffffffffffff82169050919050565b6000620001438262000116565b9050919050565b620001558162000136565b81146200016157600080fd5b50565b60008151905062000175816200014a565b92915050565b60006020828403121562000194576200019362000111565b5b6000620001a48482850162000164565b91505092915050565b600081519050919050565b7f4e487b7100000000000000000000000000000000000000000000000000000000600052604160045260246000fd5b7f4e487b7100000000000000000000000000000000000000000000000000000000600052602260045260246000fd5b600060028204905060018216806200022f57607f821691505b602082108103620002455762000244620001e7565b5b50919050565b60008190508160005260206000209050919050565b60006020601f8301049050919050565b600082821b905092915050565b600060088302620002af7fffffffffffffffffffffffffffffffffffffffffffffffffffffffffffffffff8262000270565b620002bb868362000270565b95508019841693508086168417925050509392505050565b6000819050919050565b6000819050919050565b60006200030862000302620002fc84620002d3565b620002dd565b620002d3565b9050919050565b6000819050919050565b6200032483620002e7565b6200033c62000333826200030f565b8484546200027d565b825550505050565b600090565b6200035362000344565b6200036081848462000319565b505050565b5b8181101562000388576200037c60008262000349565b60018101905062000366565b5050565b601f821115620003d757620003a1816200024b565b620003ac8462000260565b81016020851015620003bc578190505b620003d4620003cb8562000260565b83018262000365565b50505b505050565b600082821c905092915050565b6000620003fc60001984600802620003dc565b1980831691505092915050565b6000620004178383620003e9565b9150826002028217905092915050565b6200043282620001ad565b67ffffffffffffffff8111156200044e576200044d620001b8565b5b6200045a825462000216565b620004678282856200038c565b600060209050601f8311600181146200049f57600084156200048a578287015190505b62000496858262000409565b86555062000506565b601f198416620004af866200024b565b60005b82811015620004d957848901518255600182019150602085019450602081019050620004b2565b86831015620004f95784890151620004f5601f891682620003e9565b8355505b6001600288020188555050505b505050505050565b612e6e806200051e6000396000f3fe608060405234801561001057600080fd5b50600436106100f55760003560e01c806370a0823111610097578063b88d4fde11610066578063b88d4fde14610284578063c87b56dd146102a0578063d85d3d27146102d0578063e985e9c5146102ec576100f5565b806370a08231146101fc57806395d89b411461022c578063a22cb4651461024a578063aa46a40014610266576100f5565b8063095ea7b3116100d3578063095ea7b31461017857806323b872dd1461019457806342842e0e146101b05780636352211e146101cc576100f5565b806301ffc9a7146100fa57806306fdde031461012a578063081812fc14610148575b600080fd5b610114600480360381019061010f9190611967565b61031c565b60405161012191906119af565b60405180910390f35b6101326103fe565b60405161013f9190611a63565b60405180910390f35b610162600480360381019061015d9190611abb565b610490565b60405161016f9190611b29565b60405180910390f35b610192600480360381019061018d9190611b70565b610515565b005b6101ae60048036038101906101a99190611bb0565b61062c565b005b6101ca60048036038101906101c59190611bb0565b61068c565b005b6101e660048036038101906101e19190611abb565b6106ac565b6040516101f39190611b29565b60405180910390f35b61021660048036038101906102119190611c03565b61075d565b6040516102239190611c3f565b60405180910390f35b610234610814565b6040516102419190611a63565b60405180910390f35b610264600480360381019061025f9190611c86565b6108a6565b005b61026e6108bc565b60405161027b9190611c3f565b60405180910390f35b61029e60048036038101906102999190611dfb565b6108c8565b005b6102ba60048036038101906102b59190611abb565b61092a565b6040516102c79190611a63565b60405180910390f35b6102ea60048036038101906102e59190611f1f565b610a7b565b005b61030660048036038101906103019190611f68565b610b0f565b60405161031391906119af565b60405180910390f35b60007f80ac58cd000000000000000000000000000000000000000000000000000000007bffffffffffffffffffffffffffffffffffffffffffffffffffffffff1916827bffffffffffffffffffffffffffffffffffffffffffffffffffffffff191614806103e757507f5b5e139f000000000000000000000000000000000000000000000000000000007bffffffffffffffffffffffffffffffffffffffffffffffffffffffff1916827bffffffffffffffffffffffffffffffffffffffffffffffffffffffff1916145b806103f757506103f682610ba3565b5b9050919050565b60606000805461040d90611fd7565b80601f016020809104026020016040519081016040528092919081815260200182805461043990611fd7565b80156104865780601f1061045b57610100808354040283529160200191610486565b820191906000526020600020905b81548152906001019060200180831161046957829003601f168201915b5050505050905090565b600061049b82610c0d565b6104da576040517f08c379a00000000000000000000000000000000000000000000000000000000081526004016104d19061207a565b60405180910390fd5b6004600083815260200190815260200160002060009054906101000a900473ffffffffffffffffffffffffffffffffffffffff169050919050565b6000610520826106ac565b90508073ffffffffffffffffffffffffffffffffffffffff168373ffffffffffffffffffffffffffffffffffffffff1603610590576040517f08c379a00000000000000000000000000000000000000000000000000000000081526004016105879061210c565b60405180910390fd5b8073ffffffffffffffffffffffffffffffffffffffff166105af610c79565b73ffffffffffffffffffffffffffffffffffffffff1614806105de57506105dd816105d8610c79565b610b0f565b5b61061d576040517f08c379a00000000000000000000000000000000000000000000000000000000081526004016106149061219e565b60405180910390fd5b6106278383610c81565b505050565b61063d610637610c79565b82610d3a565b61067c576040517f08c379a000000000000000000000000000000000000000000000000000000000815260040161067390612230565b60405180910390fd5b610687838383610e18565b505050565b6106a7838383604051806020016040528060008152506108c8565b505050565b6000806002600084815260200190815260200160002060009054906101000a900473ffffffffffffffffffffffffffffffffffffffff169050600073ffffffffffffffffffffffffffffffffffffffff168173ffffffffffffffffffffffffffffffffffffffff1603610754576040517f08c379a000000000000000000000000000000000000000000000000000000000815260040161074b906122c2565b60405180910390fd5b80915050919050565b60008073ffffffffffffffffffffffffffffffffffffffff168273ffffffffffffffffffffffffffffffffffffffff16036107cd576040517f08c379a00000000000000000000000000000000000000000000000000000000081526004016107c490612354565b60405180910390fd5b600360008373ffffffffffffffffffffffffffffffffffffffff1673ffffffffffffffffffffffffffffffffffffffff168152602001908152602001600020549050919050565b60606001805461082390611fd7565b80601f016020809104026020016040519081016040528092919081815260200182805461084f90611fd7565b801561089c5780601f106108715761010080835404028352916020019161089c565b820191906000526020600020905b81548152906001019060200180831161087f57829003601f168201915b5050505050905090565b6108b86108b1610c79565b838361107e565b5050565b60078060000154905081565b6108d96108d3610c79565b83610d3a565b610918576040517f08c379a000000000000000000000000000000000000000000000000000000000815260040161090f90612230565b60405180910390fd5b610924848484846111ea565b50505050565b606061093582610c0d565b610974576040517f08c379a000000000000000000000000000000000000000000000000000000000815260040161096b906123e6565b60405180910390fd5b600060066000848152602001908152602001600020805461099490611fd7565b80601f01602080910402602001604051908101604052809291908181526020018280546109c090611fd7565b8015610a0d5780601f106109e257610100808354040283529160200191610a0d565b820191906000526020600020905b8154815290600101906020018083116109f057829003601f168201915b505050505090506000610a1e611246565b90506000815103610a33578192505050610a76565b600082511115610a68578082604051602001610a50929190612442565b60405160208183030381529060405292505050610a76565b610a718461125d565b925050505b919050565b610a856007611304565b6000610a91600761131a565b9050610a9d3382611328565b610aa78183611346565b610ad4600860009054906101000a900473ffffffffffffffffffffffffffffffffffffffff1660016108a6565b7fd9dc24857f317ed9abbbb42e920ede0104231eb1d3d70236a74887ffaf15986881604051610b039190611c3f565b60405180910390a15050565b6000600560008473ffffffffffffffffffffffffffffffffffffffff1673ffffffffffffffffffffffffffffffffffffffff16815260200190815260200160002060008373ffffffffffffffffffffffffffffffffffffffff1673ffffffffffffffffffffffffffffffffffffffff16815260200190815260200160002060009054906101000a900460ff16905092915050565b60007f01ffc9a7000000000000000000000000000000000000000000000000000000007bffffffffffffffffffffffffffffffffffffffffffffffffffffffff1916827bffffffffffffffffffffffffffffffffffffffffffffffffffffffff1916149050919050565b60008073ffffffffffffffffffffffffffffffffffffffff166002600084815260200190815260200160002060009054906101000a900473ffffffffffffffffffffffffffffffffffffffff1673ffffffffffffffffffffffffffffffffffffffff1614159050919050565b600033905090565b816004600083815260200190815260200160002060006101000a81548173ffffffffffffffffffffffffffffffffffffffff021916908373ffffffffffffffffffffffffffffffffffffffff160217905550808273ffffffffffffffffffffffffffffffffffffffff16610cf4836106ac565b73ffffffffffffffffffffffffffffffffffffffff167f8c5be1e5ebec7d5bd14f71427d1e84f3dd0314c0f7b2291e5b200ac8c7c3b92560405160405180910390a45050565b6000610d4582610c0d565b610d84576040517f08c379a0000000000000000000000000000000000000000000000000000000008152600401610d7b906124d8565b60405180910390fd5b6000610d8f836106ac565b90508073ffffffffffffffffffffffffffffffffffffffff168473ffffffffffffffffffffffffffffffffffffffff161480610dd15750610dd08185610b0f565b5b80610e0f57508373ffffffffffffffffffffffffffffffffffffffff16610df784610490565b73ffffffffffffffffffffffffffffffffffffffff16145b91505092915050565b8273ffffffffffffffffffffffffffffffffffffffff16610e38826106ac565b73ffffffffffffffffffffffffffffffffffffffff1614610e8e576040517f08c379a0000000000000000000000000000000000000000000000000000000008152600401610e859061256a565b60405180910390fd5b600073ffffffffffffffffffffffffffffffffffffffff168273ffffffffffffffffffffffffffffffffffffffff1603610efd576040517f08c379a0000000000000000000000000000000000000000000000000000000008152600401610ef4906125fc565b60405180910390fd5b610f088383836113b3565b610f13600082610c81565b6001600360008573ffffffffffffffffffffffffffffffffffffffff1673ffffffffffffffffffffffffffffffffffffffff1681526020019081526020016000206000828254610f63919061264b565b925050819055506001600360008473ffffffffffffffffffffffffffffffffffffffff1673ffffffffffffffffffffffffffffffffffffffff1681526020019081526020016000206000828254610fba919061267f565b92505081905550816002600083815260200190815260200160002060006101000a81548173ffffffffffffffffffffffffffffffffffffffff021916908373ffffffffffffffffffffffffffffffffffffffff160217905550808273ffffffffffffffffffffffffffffffffffffffff168473ffffffffffffffffffffffffffffffffffffffff167fddf252ad1be2c89b69c2b068fc378daa952ba7f163c4a11628f55a4df523b3ef60405160405180910390a46110798383836113b8565b505050565b8173ffffffffffffffffffffffffffffffffffffffff168373ffffffffffffffffffffffffffffffffffffffff16036110ec576040517f08c379a00000000000000000000000000000000000000000000000000000000081526004016110e390612721565b60405180910390fd5b80600560008573ffffffffffffffffffffffffffffffffffffffff1673ffffffffffffffffffffffffffffffffffffffff16815260200190815260200160002060008473ffffffffffffffffffffffffffffffffffffffff1673ffffffffffffffffffffffffffffffffffffffff16815260200190815260200160002060006101000a81548160ff0219169083151502179055508173ffffffffffffffffffffffffffffffffffffffff168373ffffffffffffffffffffffffffffffffffffffff167f17307eab39ab6107e8899845ad3d59bd9653f200f220920489ca2b5937696c31836040516111dd91906119af565b60405180910390a3505050565b6111f5848484610e18565b611201848484846113bd565b611240576040517f08c379a0000000000000000000000000000000000000000000000000000000008152600401611237906127b3565b60405180910390fd5b50505050565b606060405180602001604052806000815250905090565b606061126882610c0d565b6112a7576040517f08c379a000000000000000000000000000000000000000000000000000000000815260040161129e90612845565b60405180910390fd5b60006112b1611246565b905060008151116112d157604051806020016040528060008152506112fc565b806112db84611544565b6040516020016112ec929190612442565b6040516020818303038152906040525b915050919050565b6001816000016000828254019250508190555050565b600081600001549050919050565b6113428282604051806020016040528060008152506116a4565b5050565b61134f82610c0d565b61138e576040517f08c379a0000000000000000000000000000000000000000000000000000000008152600401611385906128d7565b60405180910390fd5b806006600084815260200190815260200160002090816113ae9190612aa3565b505050565b505050565b505050565b60006113de8473ffffffffffffffffffffffffffffffffffffffff166116ff565b15611537578373ffffffffffffffffffffffffffffffffffffffff1663150b7a02611407610c79565b8786866040518563ffffffff1660e01b81526004016114299493929190612bca565b6020604051808303816000875af192505050801561146557506040513d601f19601f820116820180604052508101906114629190612c2b565b60015b6114e7573d8060008114611495576040519150601f19603f3d011682016040523d82523d6000602084013e61149a565b606091505b5060008151036114df576040517f08c379a00000000000000000000000000000000000000000000000000000000081526004016114d6906127b3565b60405180910390fd5b805181602001fd5b63150b7a0260e01b7bffffffffffffffffffffffffffffffffffffffffffffffffffffffff1916817bffffffffffffffffffffffffffffffffffffffffffffffffffffffff19161491505061153c565b600190505b949350505050565b60606000820361158b576040518060400160405280600181526020017f3000000000000000000000000000000000000000000000000000000000000000815250905061169f565b600082905060005b600082146115bd5780806115a690612c58565b915050600a826115b69190612ccf565b9150611593565b60008167ffffffffffffffff8111156115d9576115d8611cd0565b5b6040519080825280601f01601f19166020018201604052801561160b5781602001600182028036833780820191505090505b5090505b6000851461169857600182611624919061264b565b9150600a856116339190612d00565b603061163f919061267f565b60f81b81838151811061165557611654612d31565b5b60200101907effffffffffffffffffffffffffffffffffffffffffffffffffffffffffffff1916908160001a905350600a856116919190612ccf565b945061160f565b8093505050505b919050565b6116ae8383611722565b6116bb60008484846113bd565b6116fa576040517f08c379a00000000000000000000000000000000000000000000000000000000081526004016116f1906127b3565b60405180910390fd5b505050565b6000808273ffffffffffffffffffffffffffffffffffffffff163b119050919050565b600073ffffffffffffffffffffffffffffffffffffffff168273ffffffffffffffffffffffffffffffffffffffff1603611791576040517f08c379a000000000000000000000000000000000000000000000000000000000815260040161178890612dac565b60405180910390fd5b61179a81610c0d565b156117da576040517f08c379a00000000000000000000000000000000000000000000000000000000081526004016117d190612e18565b60405180910390fd5b6117e6600083836113b3565b6001600360008473ffffffffffffffffffffffffffffffffffffffff1673ffffffffffffffffffffffffffffffffffffffff1681526020019081526020016000206000828254611836919061267f565b92505081905550816002600083815260200190815260200160002060006101000a81548173ffffffffffffffffffffffffffffffffffffffff021916908373ffffffffffffffffffffffffffffffffffffffff160217905550808273ffffffffffffffffffffffffffffffffffffffff16600073ffffffffffffffffffffffffffffffffffffffff167fddf252ad1be2c89b69c2b068fc378daa952ba7f163c4a11628f55a4df523b3ef60405160405180910390a46118f7600083836113b8565b5050565b6000604051905090565b600080fd5b600080fd5b60007fffffffff0000000000000000000000000000000000000000000000000000000082169050919050565b6119448161190f565b811461194f57600080fd5b50565b6000813590506119618161193b565b92915050565b60006020828403121561197d5761197c611905565b5b600061198b84828501611952565b91505092915050565b60008115159050919050565b6119a981611994565b82525050565b60006020820190506119c460008301846119a0565b92915050565b600081519050919050565b600082825260208201905092915050565b60005b83811015611a045780820151818401526020810190506119e9565b83811115611a13576000848401525b50505050565b6000601f19601f8301169050919050565b6000611a35826119ca565b611a3f81856119d5565b9350611a4f8185602086016119e6565b611a5881611a19565b840191505092915050565b60006020820190508181036000830152611a7d8184611a2a565b905092915050565b6000819050919050565b611a9881611a85565b8114611aa357600080fd5b50565b600081359050611ab581611a8f565b92915050565b600060208284031215611ad157611ad0611905565b5b6000611adf84828501611aa6565b91505092915050565b600073ffffffffffffffffffffffffffffffffffffffff82169050919050565b6000611b1382611ae8565b9050919050565b611b2381611b08565b82525050565b6000602082019050611b3e6000830184611b1a565b92915050565b611b4d81611b08565b8114611b5857600080fd5b50565b600081359050611b6a81611b44565b92915050565b60008060408385031215611b8757611b86611905565b5b6000611b9585828601611b5b565b9250506020611ba685828601611aa6565b9150509250929050565b600080600060608486031215611bc957611bc8611905565b5b6000611bd786828701611b5b565b9350506020611be886828701611b5b565b9250506040611bf986828701611aa6565b9150509250925092565b600060208284031215611c1957611c18611905565b5b6000611c2784828501611b5b565b91505092915050565b611c3981611a85565b82525050565b6000602082019050611c546000830184611c30565b92915050565b611c6381611994565b8114611c6e57600080fd5b50565b600081359050611c8081611c5a565b92915050565b60008060408385031215611c9d57611c9c611905565b5b6000611cab85828601611b5b565b9250506020611cbc85828601611c71565b9150509250929050565b600080fd5b600080fd5b7f4e487b7100000000000000000000000000000000000000000000000000000000600052604160045260246000fd5b611d0882611a19565b810181811067ffffffffffffffff82111715611d2757611d26611cd0565b5b80604052505050565b6000611d3a6118fb565b9050611d468282611cff565b919050565b600067ffffffffffffffff821115611d6657611d65611cd0565b5b611d6f82611a19565b9050602081019050919050565b82818337600083830152505050565b6000611d9e611d9984611d4b565b611d30565b905082815260208101848484011115611dba57611db9611ccb565b5b611dc5848285611d7c565b509392505050565b600082601f830112611de257611de1611cc6565b5b8135611df2848260208601611d8b565b91505092915050565b60008060008060808587031215611e1557611e14611905565b5b6000611e2387828801611b5b565b9450506020611e3487828801611b5b565b9350506040611e4587828801611aa6565b925050606085013567ffffffffffffffff811115611e6657611e6561190a565b5b611e7287828801611dcd565b91505092959194509250565b600067ffffffffffffffff821115611e9957611e98611cd0565b5b611ea282611a19565b9050602081019050919050565b6000611ec2611ebd84611e7e565b611d30565b905082815260208101848484011115611ede57611edd611ccb565b5b611ee9848285611d7c565b509392505050565b600082601f830112611f0657611f05611cc6565b5b8135611f16848260208601611eaf565b91505092915050565b600060208284031215611f3557611f34611905565b5b600082013567ffffffffffffffff811115611f5357611f5261190a565b5b611f5f84828501611ef1565b91505092915050565b60008060408385031215611f7f57611f7e611905565b5b6000611f8d85828601611b5b565b9250506020611f9e85828601611b5b565b9150509250929050565b7f4e487b7100000000000000000000000000000000000000000000000000000000600052602260045260246000fd5b60006002820490506001821680611fef57607f821691505b60208210810361200257612001611fa8565b5b50919050565b7f4552433732313a20617070726f76656420717565727920666f72206e6f6e657860008201527f697374656e7420746f6b656e0000000000000000000000000000000000000000602082015250565b6000612064602c836119d5565b915061206f82612008565b604082019050919050565b6000602082019050818103600083015261209381612057565b9050919050565b7f4552433732313a20617070726f76616c20746f2063757272656e74206f776e6560008201527f7200000000000000000000000000000000000000000000000000000000000000602082015250565b60006120f66021836119d5565b91506121018261209a565b604082019050919050565b60006020820190508181036000830152612125816120e9565b9050919050565b7f4552433732313a20617070726f76652063616c6c6572206973206e6f74206f7760008201527f6e6572206e6f7220617070726f76656420666f7220616c6c0000000000000000602082015250565b60006121886038836119d5565b91506121938261212c565b604082019050919050565b600060208201905081810360008301526121b78161217b565b9050919050565b7f4552433732313a207472616e736665722063616c6c6572206973206e6f74206f60008201527f776e6572206e6f7220617070726f766564000000000000000000000000000000602082015250565b600061221a6031836119d5565b9150612225826121be565b604082019050919050565b600060208201905081810360008301526122498161220d565b9050919050565b7f4552433732313a206f776e657220717565727920666f72206e6f6e657869737460008201527f656e7420746f6b656e0000000000000000000000000000000000000000000000602082015250565b60006122ac6029836119d5565b91506122b782612250565b604082019050919050565b600060208201905081810360008301526122db8161229f565b9050919050565b7f4552433732313a2062616c616e636520717565727920666f7220746865207a6560008201527f726f206164647265737300000000000000000000000000000000000000000000602082015250565b600061233e602a836119d5565b9150612349826122e2565b604082019050919050565b6000602082019050818103600083015261236d81612331565b9050919050565b7f45524337323155524953746f726167653a2055524920717565727920666f722060008201527f6e6f6e6578697374656e7420746f6b656e000000000000000000000000000000602082015250565b60006123d06031836119d5565b91506123db82612374565b604082019050919050565b600060208201905081810360008301526123ff816123c3565b9050919050565b600081905092915050565b600061241c826119ca565b6124268185612406565b93506124368185602086016119e6565b80840191505092915050565b600061244e8285612411565b915061245a8284612411565b91508190509392505050565b7f4552433732313a206f70657261746f7220717565727920666f72206e6f6e657860008201527f697374656e7420746f6b656e0000000000000000000000000000000000000000602082015250565b60006124c2602c836119d5565b91506124cd82612466565b604082019050919050565b600060208201905081810360008301526124f1816124b5565b9050919050565b7f4552433732313a207472616e736665722066726f6d20696e636f72726563742060008201527f6f776e6572000000000000000000000000000000000000000000000000000000602082015250565b60006125546025836119d5565b915061255f826124f8565b604082019050919050565b6000602082019050818103600083015261258381612547565b9050919050565b7f4552433732313a207472616e7366657220746f20746865207a65726f2061646460008201527f7265737300000000000000000000000000000000000000000000000000000000602082015250565b60006125e66024836119d5565b91506125f18261258a565b604082019050919050565b60006020820190508181036000830152612615816125d9565b9050919050565b7f4e487b7100000000000000000000000000000000000000000000000000000000600052601160045260246000fd5b600061265682611a85565b915061266183611a85565b9250828210156126745761267361261c565b5b828203905092915050565b600061268a82611a85565b915061269583611a85565b9250827fffffffffffffffffffffffffffffffffffffffffffffffffffffffffffffffff038211156126ca576126c961261c565b5b828201905092915050565b7f4552433732313a20617070726f766520746f2063616c6c657200000000000000600082015250565b600061270b6019836119d5565b9150612716826126d5565b602082019050919050565b6000602082019050818103600083015261273a816126fe565b9050919050565b7f4552433732313a207472616e7366657220746f206e6f6e20455243373231526560008201527f63656976657220696d706c656d656e7465720000000000000000000000000000602082015250565b600061279d6032836119d5565b91506127a882612741565b604082019050919050565b600060208201905081810360008301526127cc81612790565b9050919050565b7f4552433732314d657461646174613a2055524920717565727920666f72206e6f60008201527f6e6578697374656e7420746f6b656e0000000000000000000000000000000000602082015250565b600061282f602f836119d5565b915061283a826127d3565b604082019050919050565b6000602082019050818103600083015261285e81612822565b9050919050565b7f45524337323155524953746f726167653a2055524920736574206f66206e6f6e60008201527f6578697374656e7420746f6b656e000000000000000000000000000000000000602082015250565b60006128c1602e836119d5565b91506128cc82612865565b604082019050919050565b600060208201905081810360008301526128f0816128b4565b9050919050565b60008190508160005260206000209050919050565b60006020601f8301049050919050565b600082821b905092915050565b6000600883026129597fffffffffffffffffffffffffffffffffffffffffffffffffffffffffffffffff8261291c565b612963868361291c565b95508019841693508086168417925050509392505050565b6000819050919050565b60006129a061299b61299684611a85565b61297b565b611a85565b9050919050565b6000819050919050565b6129ba83612985565b6129ce6129c6826129a7565b848454612929565b825550505050565b600090565b6129e36129d6565b6129ee8184846129b1565b505050565b5b81811015612a1257612a076000826129db565b6001810190506129f4565b5050565b601f821115612a5757612a28816128f7565b612a318461290c565b81016020851015612a40578190505b612a54612a4c8561290c565b8301826129f3565b50505b505050565b600082821c905092915050565b6000612a7a60001984600802612a5c565b1980831691505092915050565b6000612a938383612a69565b9150826002028217905092915050565b612aac826119ca565b67ffffffffffffffff811115612ac557612ac4611cd0565b5b612acf8254611fd7565b612ada828285612a16565b600060209050601f831160018114612b0d5760008415612afb578287015190505b612b058582612a87565b865550612b6d565b601f198416612b1b866128f7565b60005b82811015612b4357848901518255600182019150602085019450602081019050612b1e565b86831015612b605784890151612b5c601f891682612a69565b8355505b6001600288020188555050505b505050505050565b600081519050919050565b600082825260208201905092915050565b6000612b9c82612b75565b612ba68185612b80565b9350612bb68185602086016119e6565b612bbf81611a19565b840191505092915050565b6000608082019050612bdf6000830187611b1a565b612bec6020830186611b1a565b612bf96040830185611c30565b8181036060830152612c0b8184612b91565b905095945050505050565b600081519050612c258161193b565b92915050565b600060208284031215612c4157612c40611905565b5b6000612c4f84828501612c16565b91505092915050565b6000612c6382611a85565b91507fffffffffffffffffffffffffffffffffffffffffffffffffffffffffffffffff8203612c9557612c9461261c565b5b600182019050919050565b7f4e487b7100000000000000000000000000000000000000000000000000000000600052601260045260246000fd5b6000612cda82611a85565b9150612ce583611a85565b925082612cf557612cf4612ca0565b5b828204905092915050565b6000612d0b82611a85565b9150612d1683611a85565b925082612d2657612d25612ca0565b5b828206905092915050565b7f4e487b7100000000000000000000000000000000000000000000000000000000600052603260045260246000fd5b7f4552433732313a206d696e7420746f20746865207a65726f2061646472657373600082015250565b6000612d966020836119d5565b9150612da182612d60565b602082019050919050565b60006020820190508181036000830152612dc581612d89565b9050919050565b7f4552433732313a20746f6b656e20616c7265616479206d696e74656400000000600082015250565b6000612e02601c836119d5565b9150612e0d82612dcc565b602082019050919050565b60006020820190508181036000830152612e3181612df5565b905091905056fea2646970667358221220e93e1560b2ffab5f314e5c6dd8ebc9de192f8978e694a6f527b60ce0e7012bd764736f6c634300080f0033",
  "immutableReferences": {},
  "source": "// SPDX-License-Identifier: MIT\r\npragma solidity ^0.8.13;\r\n\r\nimport \"@openzeppelin/contracts/token/ERC721/ERC721.sol\";\r\nimport \"@openzeppelin/contracts/token/ERC721/extensions/ERC721URIStorage.sol\";\r\nimport \"@openzeppelin/contracts/utils/Counters.sol\";\r\n\r\n\r\ncontract NFT is ERC721URIStorage {\r\n    using Counters for Counters.Counter;\r\n    Counters.Counter public _tokenIds;\r\n    address marketplaceContract;\r\n\r\n    event NFTMinted(uint256 tokenId);\r\n\r\n    constructor(address _marketplaceContract) ERC721(\"Dapp NFT\", \"DNFT\"){\r\n        marketplaceContract = _marketplaceContract;\r\n    }\r\n\r\n    //_tokenURI points to the JSON metadata on IPFS that stores the NFT's metadata\r\n    function mint(string memory _tokenURI) public {\r\n        _tokenIds.increment();\r\n        uint256 newTokenId = _tokenIds.current();\r\n\r\n        //Mint the NFT with tokenId newTokenId to the address who called createToken\r\n        _safeMint(msg.sender, newTokenId);\r\n        //Map the tokenId to the tokenURI (which is an IPFS URL with the NFT metadata)\r\n        _setTokenURI(newTokenId, _tokenURI);\r\n\r\n        //When the nftContract executes the setApprovalForAll(contractAddress, true),\r\n        // it allows the contractAddress (the Market contract) to operate all of the nftContract's tokens\r\n        setApprovalForAll(marketplaceContract, true);\r\n        emit NFTMinted(newTokenId);\r\n    }\r\n}",
  "sourcePath": "C:\\Users\\Federico Mioli\\Desktop\\Personale\\git projects\\NFT_Marketplace\\contracts\\NFT.sol",
  "compiler": {
    "name": "solc",
    "version": "0.8.15+commit.e14f2714.Emscripten.clang"
  },
  "schemaVersion": "3.4.8",
  "updatedAt": "2022-07-26T07:44:11.160Z",
  "networkType": "ethereum",
  "devdoc": {
    "kind": "dev",
    "methods": {
      "approve(address,uint256)": {
        "details": "See {IERC721-approve}."
      },
      "balanceOf(address)": {
        "details": "See {IERC721-balanceOf}."
      },
      "getApproved(uint256)": {
        "details": "See {IERC721-getApproved}."
      },
      "isApprovedForAll(address,address)": {
        "details": "See {IERC721-isApprovedForAll}."
      },
      "name()": {
        "details": "See {IERC721Metadata-name}."
      },
      "ownerOf(uint256)": {
        "details": "See {IERC721-ownerOf}."
      },
      "safeTransferFrom(address,address,uint256)": {
        "details": "See {IERC721-safeTransferFrom}."
      },
      "safeTransferFrom(address,address,uint256,bytes)": {
        "details": "See {IERC721-safeTransferFrom}."
      },
      "setApprovalForAll(address,bool)": {
        "details": "See {IERC721-setApprovalForAll}."
      },
      "supportsInterface(bytes4)": {
        "details": "See {IERC165-supportsInterface}."
      },
      "symbol()": {
        "details": "See {IERC721Metadata-symbol}."
      },
      "tokenURI(uint256)": {
        "details": "See {IERC721Metadata-tokenURI}."
      },
      "transferFrom(address,address,uint256)": {
        "details": "See {IERC721-transferFrom}."
      }
    },
    "version": 1
  },
  "userdoc": {
    "kind": "user",
    "methods": {},
    "version": 1
  }
}